
UVG_Lite.elf:     file format elf32-littlearm

Sections:
Idx Name          Size      VMA       LMA       File off  Algn
  0 .isr_vector   000000c0  08000000  08000000  00010000  2**0
                  CONTENTS, ALLOC, LOAD, READONLY, DATA
  1 .text         00019a14  080000c0  080000c0  000100c0  2**4
                  CONTENTS, ALLOC, LOAD, READONLY, CODE
  2 .rodata       00001328  08019ad8  08019ad8  00029ad8  2**3
                  CONTENTS, ALLOC, LOAD, READONLY, DATA
  3 .ARM.extab    00000000  0801ae00  0801ae00  00030a20  2**0
                  CONTENTS
  4 .ARM          00000008  0801ae00  0801ae00  0002ae00  2**2
                  CONTENTS, ALLOC, LOAD, READONLY, DATA
  5 .preinit_array 00000000  0801ae08  0801ae08  00030a20  2**0
                  CONTENTS, ALLOC, LOAD, DATA
  6 .init_array   00000008  0801ae08  0801ae08  0002ae08  2**2
                  CONTENTS, ALLOC, LOAD, DATA
  7 .fini_array   00000004  0801ae10  0801ae10  0002ae10  2**2
                  CONTENTS, ALLOC, LOAD, DATA
  8 .data         00000a20  20000000  0801ae14  00030000  2**3
                  CONTENTS, ALLOC, LOAD, DATA
  9 .bss          00002f5c  20000a20  0801b834  00030a20  2**2
                  ALLOC
 10 ._user_heap_stack 00000604  2000397c  0801b834  0003397c  2**0
                  ALLOC
 11 .ARM.attributes 00000028  00000000  00000000  00030a20  2**0
                  CONTENTS, READONLY
 12 .debug_info   00025365  00000000  00000000  00030a48  2**0
                  CONTENTS, READONLY, DEBUGGING
 13 .debug_abbrev 0000564f  00000000  00000000  00055dad  2**0
                  CONTENTS, READONLY, DEBUGGING
 14 .debug_aranges 00002090  00000000  00000000  0005b400  2**3
                  CONTENTS, READONLY, DEBUGGING
 15 .debug_ranges 00001e60  00000000  00000000  0005d490  2**3
                  CONTENTS, READONLY, DEBUGGING
 16 .debug_macro  00019326  00000000  00000000  0005f2f0  2**0
                  CONTENTS, READONLY, DEBUGGING
 17 .debug_line   0001f20d  00000000  00000000  00078616  2**0
                  CONTENTS, READONLY, DEBUGGING
 18 .debug_str    0008ed70  00000000  00000000  00097823  2**0
                  CONTENTS, READONLY, DEBUGGING
 19 .comment      0000007b  00000000  00000000  00126593  2**0
                  CONTENTS, READONLY
 20 .debug_frame  00008bf8  00000000  00000000  00126610  2**2
                  CONTENTS, READONLY, DEBUGGING
 21 .stabstr      0000014d  00000000  00000000  0012f208  2**0
                  CONTENTS, READONLY, DEBUGGING

Disassembly of section .text:

080000c0 <__do_global_dtors_aux>:
 80000c0:	b510      	push	{r4, lr}
 80000c2:	4c06      	ldr	r4, [pc, #24]	; (80000dc <__do_global_dtors_aux+0x1c>)
 80000c4:	7823      	ldrb	r3, [r4, #0]
 80000c6:	2b00      	cmp	r3, #0
 80000c8:	d107      	bne.n	80000da <__do_global_dtors_aux+0x1a>
 80000ca:	4b05      	ldr	r3, [pc, #20]	; (80000e0 <__do_global_dtors_aux+0x20>)
 80000cc:	2b00      	cmp	r3, #0
 80000ce:	d002      	beq.n	80000d6 <__do_global_dtors_aux+0x16>
 80000d0:	4804      	ldr	r0, [pc, #16]	; (80000e4 <__do_global_dtors_aux+0x24>)
 80000d2:	e000      	b.n	80000d6 <__do_global_dtors_aux+0x16>
 80000d4:	bf00      	nop
 80000d6:	2301      	movs	r3, #1
 80000d8:	7023      	strb	r3, [r4, #0]
 80000da:	bd10      	pop	{r4, pc}
 80000dc:	20000a20 	.word	0x20000a20
 80000e0:	00000000 	.word	0x00000000
 80000e4:	08019abc 	.word	0x08019abc

080000e8 <frame_dummy>:
 80000e8:	4b04      	ldr	r3, [pc, #16]	; (80000fc <frame_dummy+0x14>)
 80000ea:	b510      	push	{r4, lr}
 80000ec:	2b00      	cmp	r3, #0
 80000ee:	d003      	beq.n	80000f8 <frame_dummy+0x10>
 80000f0:	4903      	ldr	r1, [pc, #12]	; (8000100 <frame_dummy+0x18>)
 80000f2:	4804      	ldr	r0, [pc, #16]	; (8000104 <frame_dummy+0x1c>)
 80000f4:	e000      	b.n	80000f8 <frame_dummy+0x10>
 80000f6:	bf00      	nop
 80000f8:	bd10      	pop	{r4, pc}
 80000fa:	46c0      	nop			; (mov r8, r8)
 80000fc:	00000000 	.word	0x00000000
 8000100:	20000a24 	.word	0x20000a24
 8000104:	08019abc 	.word	0x08019abc

08000108 <strcmp>:
 8000108:	7802      	ldrb	r2, [r0, #0]
 800010a:	780b      	ldrb	r3, [r1, #0]
 800010c:	2a00      	cmp	r2, #0
 800010e:	d003      	beq.n	8000118 <strcmp+0x10>
 8000110:	3001      	adds	r0, #1
 8000112:	3101      	adds	r1, #1
 8000114:	429a      	cmp	r2, r3
 8000116:	d0f7      	beq.n	8000108 <strcmp>
 8000118:	1ad0      	subs	r0, r2, r3
 800011a:	4770      	bx	lr

0800011c <strlen>:
 800011c:	2300      	movs	r3, #0
 800011e:	5cc2      	ldrb	r2, [r0, r3]
 8000120:	3301      	adds	r3, #1
 8000122:	2a00      	cmp	r2, #0
 8000124:	d1fb      	bne.n	800011e <strlen+0x2>
 8000126:	1e58      	subs	r0, r3, #1
 8000128:	4770      	bx	lr
	...

0800012c <__gnu_thumb1_case_uqi>:
 800012c:	b402      	push	{r1}
 800012e:	4671      	mov	r1, lr
 8000130:	0849      	lsrs	r1, r1, #1
 8000132:	0049      	lsls	r1, r1, #1
 8000134:	5c09      	ldrb	r1, [r1, r0]
 8000136:	0049      	lsls	r1, r1, #1
 8000138:	448e      	add	lr, r1
 800013a:	bc02      	pop	{r1}
 800013c:	4770      	bx	lr
 800013e:	46c0      	nop			; (mov r8, r8)

08000140 <__gnu_thumb1_case_shi>:
 8000140:	b403      	push	{r0, r1}
 8000142:	4671      	mov	r1, lr
 8000144:	0849      	lsrs	r1, r1, #1
 8000146:	0040      	lsls	r0, r0, #1
 8000148:	0049      	lsls	r1, r1, #1
 800014a:	5e09      	ldrsh	r1, [r1, r0]
 800014c:	0049      	lsls	r1, r1, #1
 800014e:	448e      	add	lr, r1
 8000150:	bc03      	pop	{r0, r1}
 8000152:	4770      	bx	lr

08000154 <__gnu_thumb1_case_uhi>:
 8000154:	b403      	push	{r0, r1}
 8000156:	4671      	mov	r1, lr
 8000158:	0849      	lsrs	r1, r1, #1
 800015a:	0040      	lsls	r0, r0, #1
 800015c:	0049      	lsls	r1, r1, #1
 800015e:	5a09      	ldrh	r1, [r1, r0]
 8000160:	0049      	lsls	r1, r1, #1
 8000162:	448e      	add	lr, r1
 8000164:	bc03      	pop	{r0, r1}
 8000166:	4770      	bx	lr

08000168 <__udivsi3>:
 8000168:	2200      	movs	r2, #0
 800016a:	0843      	lsrs	r3, r0, #1
 800016c:	428b      	cmp	r3, r1
 800016e:	d374      	bcc.n	800025a <__udivsi3+0xf2>
 8000170:	0903      	lsrs	r3, r0, #4
 8000172:	428b      	cmp	r3, r1
 8000174:	d35f      	bcc.n	8000236 <__udivsi3+0xce>
 8000176:	0a03      	lsrs	r3, r0, #8
 8000178:	428b      	cmp	r3, r1
 800017a:	d344      	bcc.n	8000206 <__udivsi3+0x9e>
 800017c:	0b03      	lsrs	r3, r0, #12
 800017e:	428b      	cmp	r3, r1
 8000180:	d328      	bcc.n	80001d4 <__udivsi3+0x6c>
 8000182:	0c03      	lsrs	r3, r0, #16
 8000184:	428b      	cmp	r3, r1
 8000186:	d30d      	bcc.n	80001a4 <__udivsi3+0x3c>
 8000188:	22ff      	movs	r2, #255	; 0xff
 800018a:	0209      	lsls	r1, r1, #8
 800018c:	ba12      	rev	r2, r2
 800018e:	0c03      	lsrs	r3, r0, #16
 8000190:	428b      	cmp	r3, r1
 8000192:	d302      	bcc.n	800019a <__udivsi3+0x32>
 8000194:	1212      	asrs	r2, r2, #8
 8000196:	0209      	lsls	r1, r1, #8
 8000198:	d065      	beq.n	8000266 <__udivsi3+0xfe>
 800019a:	0b03      	lsrs	r3, r0, #12
 800019c:	428b      	cmp	r3, r1
 800019e:	d319      	bcc.n	80001d4 <__udivsi3+0x6c>
 80001a0:	e000      	b.n	80001a4 <__udivsi3+0x3c>
 80001a2:	0a09      	lsrs	r1, r1, #8
 80001a4:	0bc3      	lsrs	r3, r0, #15
 80001a6:	428b      	cmp	r3, r1
 80001a8:	d301      	bcc.n	80001ae <__udivsi3+0x46>
 80001aa:	03cb      	lsls	r3, r1, #15
 80001ac:	1ac0      	subs	r0, r0, r3
 80001ae:	4152      	adcs	r2, r2
 80001b0:	0b83      	lsrs	r3, r0, #14
 80001b2:	428b      	cmp	r3, r1
 80001b4:	d301      	bcc.n	80001ba <__udivsi3+0x52>
 80001b6:	038b      	lsls	r3, r1, #14
 80001b8:	1ac0      	subs	r0, r0, r3
 80001ba:	4152      	adcs	r2, r2
 80001bc:	0b43      	lsrs	r3, r0, #13
 80001be:	428b      	cmp	r3, r1
 80001c0:	d301      	bcc.n	80001c6 <__udivsi3+0x5e>
 80001c2:	034b      	lsls	r3, r1, #13
 80001c4:	1ac0      	subs	r0, r0, r3
 80001c6:	4152      	adcs	r2, r2
 80001c8:	0b03      	lsrs	r3, r0, #12
 80001ca:	428b      	cmp	r3, r1
 80001cc:	d301      	bcc.n	80001d2 <__udivsi3+0x6a>
 80001ce:	030b      	lsls	r3, r1, #12
 80001d0:	1ac0      	subs	r0, r0, r3
 80001d2:	4152      	adcs	r2, r2
 80001d4:	0ac3      	lsrs	r3, r0, #11
 80001d6:	428b      	cmp	r3, r1
 80001d8:	d301      	bcc.n	80001de <__udivsi3+0x76>
 80001da:	02cb      	lsls	r3, r1, #11
 80001dc:	1ac0      	subs	r0, r0, r3
 80001de:	4152      	adcs	r2, r2
 80001e0:	0a83      	lsrs	r3, r0, #10
 80001e2:	428b      	cmp	r3, r1
 80001e4:	d301      	bcc.n	80001ea <__udivsi3+0x82>
 80001e6:	028b      	lsls	r3, r1, #10
 80001e8:	1ac0      	subs	r0, r0, r3
 80001ea:	4152      	adcs	r2, r2
 80001ec:	0a43      	lsrs	r3, r0, #9
 80001ee:	428b      	cmp	r3, r1
 80001f0:	d301      	bcc.n	80001f6 <__udivsi3+0x8e>
 80001f2:	024b      	lsls	r3, r1, #9
 80001f4:	1ac0      	subs	r0, r0, r3
 80001f6:	4152      	adcs	r2, r2
 80001f8:	0a03      	lsrs	r3, r0, #8
 80001fa:	428b      	cmp	r3, r1
 80001fc:	d301      	bcc.n	8000202 <__udivsi3+0x9a>
 80001fe:	020b      	lsls	r3, r1, #8
 8000200:	1ac0      	subs	r0, r0, r3
 8000202:	4152      	adcs	r2, r2
 8000204:	d2cd      	bcs.n	80001a2 <__udivsi3+0x3a>
 8000206:	09c3      	lsrs	r3, r0, #7
 8000208:	428b      	cmp	r3, r1
 800020a:	d301      	bcc.n	8000210 <__udivsi3+0xa8>
 800020c:	01cb      	lsls	r3, r1, #7
 800020e:	1ac0      	subs	r0, r0, r3
 8000210:	4152      	adcs	r2, r2
 8000212:	0983      	lsrs	r3, r0, #6
 8000214:	428b      	cmp	r3, r1
 8000216:	d301      	bcc.n	800021c <__udivsi3+0xb4>
 8000218:	018b      	lsls	r3, r1, #6
 800021a:	1ac0      	subs	r0, r0, r3
 800021c:	4152      	adcs	r2, r2
 800021e:	0943      	lsrs	r3, r0, #5
 8000220:	428b      	cmp	r3, r1
 8000222:	d301      	bcc.n	8000228 <__udivsi3+0xc0>
 8000224:	014b      	lsls	r3, r1, #5
 8000226:	1ac0      	subs	r0, r0, r3
 8000228:	4152      	adcs	r2, r2
 800022a:	0903      	lsrs	r3, r0, #4
 800022c:	428b      	cmp	r3, r1
 800022e:	d301      	bcc.n	8000234 <__udivsi3+0xcc>
 8000230:	010b      	lsls	r3, r1, #4
 8000232:	1ac0      	subs	r0, r0, r3
 8000234:	4152      	adcs	r2, r2
 8000236:	08c3      	lsrs	r3, r0, #3
 8000238:	428b      	cmp	r3, r1
 800023a:	d301      	bcc.n	8000240 <__udivsi3+0xd8>
 800023c:	00cb      	lsls	r3, r1, #3
 800023e:	1ac0      	subs	r0, r0, r3
 8000240:	4152      	adcs	r2, r2
 8000242:	0883      	lsrs	r3, r0, #2
 8000244:	428b      	cmp	r3, r1
 8000246:	d301      	bcc.n	800024c <__udivsi3+0xe4>
 8000248:	008b      	lsls	r3, r1, #2
 800024a:	1ac0      	subs	r0, r0, r3
 800024c:	4152      	adcs	r2, r2
 800024e:	0843      	lsrs	r3, r0, #1
 8000250:	428b      	cmp	r3, r1
 8000252:	d301      	bcc.n	8000258 <__udivsi3+0xf0>
 8000254:	004b      	lsls	r3, r1, #1
 8000256:	1ac0      	subs	r0, r0, r3
 8000258:	4152      	adcs	r2, r2
 800025a:	1a41      	subs	r1, r0, r1
 800025c:	d200      	bcs.n	8000260 <__udivsi3+0xf8>
 800025e:	4601      	mov	r1, r0
 8000260:	4152      	adcs	r2, r2
 8000262:	4610      	mov	r0, r2
 8000264:	4770      	bx	lr
 8000266:	e7ff      	b.n	8000268 <__udivsi3+0x100>
 8000268:	b501      	push	{r0, lr}
 800026a:	2000      	movs	r0, #0
 800026c:	f000 f8f0 	bl	8000450 <__aeabi_idiv0>
 8000270:	bd02      	pop	{r1, pc}
 8000272:	46c0      	nop			; (mov r8, r8)

08000274 <__aeabi_uidivmod>:
 8000274:	2900      	cmp	r1, #0
 8000276:	d0f7      	beq.n	8000268 <__udivsi3+0x100>
 8000278:	e776      	b.n	8000168 <__udivsi3>
 800027a:	4770      	bx	lr

0800027c <__divsi3>:
 800027c:	4603      	mov	r3, r0
 800027e:	430b      	orrs	r3, r1
 8000280:	d47f      	bmi.n	8000382 <__divsi3+0x106>
 8000282:	2200      	movs	r2, #0
 8000284:	0843      	lsrs	r3, r0, #1
 8000286:	428b      	cmp	r3, r1
 8000288:	d374      	bcc.n	8000374 <__divsi3+0xf8>
 800028a:	0903      	lsrs	r3, r0, #4
 800028c:	428b      	cmp	r3, r1
 800028e:	d35f      	bcc.n	8000350 <__divsi3+0xd4>
 8000290:	0a03      	lsrs	r3, r0, #8
 8000292:	428b      	cmp	r3, r1
 8000294:	d344      	bcc.n	8000320 <__divsi3+0xa4>
 8000296:	0b03      	lsrs	r3, r0, #12
 8000298:	428b      	cmp	r3, r1
 800029a:	d328      	bcc.n	80002ee <__divsi3+0x72>
 800029c:	0c03      	lsrs	r3, r0, #16
 800029e:	428b      	cmp	r3, r1
 80002a0:	d30d      	bcc.n	80002be <__divsi3+0x42>
 80002a2:	22ff      	movs	r2, #255	; 0xff
 80002a4:	0209      	lsls	r1, r1, #8
 80002a6:	ba12      	rev	r2, r2
 80002a8:	0c03      	lsrs	r3, r0, #16
 80002aa:	428b      	cmp	r3, r1
 80002ac:	d302      	bcc.n	80002b4 <__divsi3+0x38>
 80002ae:	1212      	asrs	r2, r2, #8
 80002b0:	0209      	lsls	r1, r1, #8
 80002b2:	d065      	beq.n	8000380 <__divsi3+0x104>
 80002b4:	0b03      	lsrs	r3, r0, #12
 80002b6:	428b      	cmp	r3, r1
 80002b8:	d319      	bcc.n	80002ee <__divsi3+0x72>
 80002ba:	e000      	b.n	80002be <__divsi3+0x42>
 80002bc:	0a09      	lsrs	r1, r1, #8
 80002be:	0bc3      	lsrs	r3, r0, #15
 80002c0:	428b      	cmp	r3, r1
 80002c2:	d301      	bcc.n	80002c8 <__divsi3+0x4c>
 80002c4:	03cb      	lsls	r3, r1, #15
 80002c6:	1ac0      	subs	r0, r0, r3
 80002c8:	4152      	adcs	r2, r2
 80002ca:	0b83      	lsrs	r3, r0, #14
 80002cc:	428b      	cmp	r3, r1
 80002ce:	d301      	bcc.n	80002d4 <__divsi3+0x58>
 80002d0:	038b      	lsls	r3, r1, #14
 80002d2:	1ac0      	subs	r0, r0, r3
 80002d4:	4152      	adcs	r2, r2
 80002d6:	0b43      	lsrs	r3, r0, #13
 80002d8:	428b      	cmp	r3, r1
 80002da:	d301      	bcc.n	80002e0 <__divsi3+0x64>
 80002dc:	034b      	lsls	r3, r1, #13
 80002de:	1ac0      	subs	r0, r0, r3
 80002e0:	4152      	adcs	r2, r2
 80002e2:	0b03      	lsrs	r3, r0, #12
 80002e4:	428b      	cmp	r3, r1
 80002e6:	d301      	bcc.n	80002ec <__divsi3+0x70>
 80002e8:	030b      	lsls	r3, r1, #12
 80002ea:	1ac0      	subs	r0, r0, r3
 80002ec:	4152      	adcs	r2, r2
 80002ee:	0ac3      	lsrs	r3, r0, #11
 80002f0:	428b      	cmp	r3, r1
 80002f2:	d301      	bcc.n	80002f8 <__divsi3+0x7c>
 80002f4:	02cb      	lsls	r3, r1, #11
 80002f6:	1ac0      	subs	r0, r0, r3
 80002f8:	4152      	adcs	r2, r2
 80002fa:	0a83      	lsrs	r3, r0, #10
 80002fc:	428b      	cmp	r3, r1
 80002fe:	d301      	bcc.n	8000304 <__divsi3+0x88>
 8000300:	028b      	lsls	r3, r1, #10
 8000302:	1ac0      	subs	r0, r0, r3
 8000304:	4152      	adcs	r2, r2
 8000306:	0a43      	lsrs	r3, r0, #9
 8000308:	428b      	cmp	r3, r1
 800030a:	d301      	bcc.n	8000310 <__divsi3+0x94>
 800030c:	024b      	lsls	r3, r1, #9
 800030e:	1ac0      	subs	r0, r0, r3
 8000310:	4152      	adcs	r2, r2
 8000312:	0a03      	lsrs	r3, r0, #8
 8000314:	428b      	cmp	r3, r1
 8000316:	d301      	bcc.n	800031c <__divsi3+0xa0>
 8000318:	020b      	lsls	r3, r1, #8
 800031a:	1ac0      	subs	r0, r0, r3
 800031c:	4152      	adcs	r2, r2
 800031e:	d2cd      	bcs.n	80002bc <__divsi3+0x40>
 8000320:	09c3      	lsrs	r3, r0, #7
 8000322:	428b      	cmp	r3, r1
 8000324:	d301      	bcc.n	800032a <__divsi3+0xae>
 8000326:	01cb      	lsls	r3, r1, #7
 8000328:	1ac0      	subs	r0, r0, r3
 800032a:	4152      	adcs	r2, r2
 800032c:	0983      	lsrs	r3, r0, #6
 800032e:	428b      	cmp	r3, r1
 8000330:	d301      	bcc.n	8000336 <__divsi3+0xba>
 8000332:	018b      	lsls	r3, r1, #6
 8000334:	1ac0      	subs	r0, r0, r3
 8000336:	4152      	adcs	r2, r2
 8000338:	0943      	lsrs	r3, r0, #5
 800033a:	428b      	cmp	r3, r1
 800033c:	d301      	bcc.n	8000342 <__divsi3+0xc6>
 800033e:	014b      	lsls	r3, r1, #5
 8000340:	1ac0      	subs	r0, r0, r3
 8000342:	4152      	adcs	r2, r2
 8000344:	0903      	lsrs	r3, r0, #4
 8000346:	428b      	cmp	r3, r1
 8000348:	d301      	bcc.n	800034e <__divsi3+0xd2>
 800034a:	010b      	lsls	r3, r1, #4
 800034c:	1ac0      	subs	r0, r0, r3
 800034e:	4152      	adcs	r2, r2
 8000350:	08c3      	lsrs	r3, r0, #3
 8000352:	428b      	cmp	r3, r1
 8000354:	d301      	bcc.n	800035a <__divsi3+0xde>
 8000356:	00cb      	lsls	r3, r1, #3
 8000358:	1ac0      	subs	r0, r0, r3
 800035a:	4152      	adcs	r2, r2
 800035c:	0883      	lsrs	r3, r0, #2
 800035e:	428b      	cmp	r3, r1
 8000360:	d301      	bcc.n	8000366 <__divsi3+0xea>
 8000362:	008b      	lsls	r3, r1, #2
 8000364:	1ac0      	subs	r0, r0, r3
 8000366:	4152      	adcs	r2, r2
 8000368:	0843      	lsrs	r3, r0, #1
 800036a:	428b      	cmp	r3, r1
 800036c:	d301      	bcc.n	8000372 <__divsi3+0xf6>
 800036e:	004b      	lsls	r3, r1, #1
 8000370:	1ac0      	subs	r0, r0, r3
 8000372:	4152      	adcs	r2, r2
 8000374:	1a41      	subs	r1, r0, r1
 8000376:	d200      	bcs.n	800037a <__divsi3+0xfe>
 8000378:	4601      	mov	r1, r0
 800037a:	4152      	adcs	r2, r2
 800037c:	4610      	mov	r0, r2
 800037e:	4770      	bx	lr
 8000380:	e05d      	b.n	800043e <__divsi3+0x1c2>
 8000382:	0fca      	lsrs	r2, r1, #31
 8000384:	d000      	beq.n	8000388 <__divsi3+0x10c>
 8000386:	4249      	negs	r1, r1
 8000388:	1003      	asrs	r3, r0, #32
 800038a:	d300      	bcc.n	800038e <__divsi3+0x112>
 800038c:	4240      	negs	r0, r0
 800038e:	4053      	eors	r3, r2
 8000390:	2200      	movs	r2, #0
 8000392:	469c      	mov	ip, r3
 8000394:	0903      	lsrs	r3, r0, #4
 8000396:	428b      	cmp	r3, r1
 8000398:	d32d      	bcc.n	80003f6 <__divsi3+0x17a>
 800039a:	0a03      	lsrs	r3, r0, #8
 800039c:	428b      	cmp	r3, r1
 800039e:	d312      	bcc.n	80003c6 <__divsi3+0x14a>
 80003a0:	22fc      	movs	r2, #252	; 0xfc
 80003a2:	0189      	lsls	r1, r1, #6
 80003a4:	ba12      	rev	r2, r2
 80003a6:	0a03      	lsrs	r3, r0, #8
 80003a8:	428b      	cmp	r3, r1
 80003aa:	d30c      	bcc.n	80003c6 <__divsi3+0x14a>
 80003ac:	0189      	lsls	r1, r1, #6
 80003ae:	1192      	asrs	r2, r2, #6
 80003b0:	428b      	cmp	r3, r1
 80003b2:	d308      	bcc.n	80003c6 <__divsi3+0x14a>
 80003b4:	0189      	lsls	r1, r1, #6
 80003b6:	1192      	asrs	r2, r2, #6
 80003b8:	428b      	cmp	r3, r1
 80003ba:	d304      	bcc.n	80003c6 <__divsi3+0x14a>
 80003bc:	0189      	lsls	r1, r1, #6
 80003be:	d03a      	beq.n	8000436 <__divsi3+0x1ba>
 80003c0:	1192      	asrs	r2, r2, #6
 80003c2:	e000      	b.n	80003c6 <__divsi3+0x14a>
 80003c4:	0989      	lsrs	r1, r1, #6
 80003c6:	09c3      	lsrs	r3, r0, #7
 80003c8:	428b      	cmp	r3, r1
 80003ca:	d301      	bcc.n	80003d0 <__divsi3+0x154>
 80003cc:	01cb      	lsls	r3, r1, #7
 80003ce:	1ac0      	subs	r0, r0, r3
 80003d0:	4152      	adcs	r2, r2
 80003d2:	0983      	lsrs	r3, r0, #6
 80003d4:	428b      	cmp	r3, r1
 80003d6:	d301      	bcc.n	80003dc <__divsi3+0x160>
 80003d8:	018b      	lsls	r3, r1, #6
 80003da:	1ac0      	subs	r0, r0, r3
 80003dc:	4152      	adcs	r2, r2
 80003de:	0943      	lsrs	r3, r0, #5
 80003e0:	428b      	cmp	r3, r1
 80003e2:	d301      	bcc.n	80003e8 <__divsi3+0x16c>
 80003e4:	014b      	lsls	r3, r1, #5
 80003e6:	1ac0      	subs	r0, r0, r3
 80003e8:	4152      	adcs	r2, r2
 80003ea:	0903      	lsrs	r3, r0, #4
 80003ec:	428b      	cmp	r3, r1
 80003ee:	d301      	bcc.n	80003f4 <__divsi3+0x178>
 80003f0:	010b      	lsls	r3, r1, #4
 80003f2:	1ac0      	subs	r0, r0, r3
 80003f4:	4152      	adcs	r2, r2
 80003f6:	08c3      	lsrs	r3, r0, #3
 80003f8:	428b      	cmp	r3, r1
 80003fa:	d301      	bcc.n	8000400 <__divsi3+0x184>
 80003fc:	00cb      	lsls	r3, r1, #3
 80003fe:	1ac0      	subs	r0, r0, r3
 8000400:	4152      	adcs	r2, r2
 8000402:	0883      	lsrs	r3, r0, #2
 8000404:	428b      	cmp	r3, r1
 8000406:	d301      	bcc.n	800040c <__divsi3+0x190>
 8000408:	008b      	lsls	r3, r1, #2
 800040a:	1ac0      	subs	r0, r0, r3
 800040c:	4152      	adcs	r2, r2
 800040e:	d2d9      	bcs.n	80003c4 <__divsi3+0x148>
 8000410:	0843      	lsrs	r3, r0, #1
 8000412:	428b      	cmp	r3, r1
 8000414:	d301      	bcc.n	800041a <__divsi3+0x19e>
 8000416:	004b      	lsls	r3, r1, #1
 8000418:	1ac0      	subs	r0, r0, r3
 800041a:	4152      	adcs	r2, r2
 800041c:	1a41      	subs	r1, r0, r1
 800041e:	d200      	bcs.n	8000422 <__divsi3+0x1a6>
 8000420:	4601      	mov	r1, r0
 8000422:	4663      	mov	r3, ip
 8000424:	4152      	adcs	r2, r2
 8000426:	105b      	asrs	r3, r3, #1
 8000428:	4610      	mov	r0, r2
 800042a:	d301      	bcc.n	8000430 <__divsi3+0x1b4>
 800042c:	4240      	negs	r0, r0
 800042e:	2b00      	cmp	r3, #0
 8000430:	d500      	bpl.n	8000434 <__divsi3+0x1b8>
 8000432:	4249      	negs	r1, r1
 8000434:	4770      	bx	lr
 8000436:	4663      	mov	r3, ip
 8000438:	105b      	asrs	r3, r3, #1
 800043a:	d300      	bcc.n	800043e <__divsi3+0x1c2>
 800043c:	4240      	negs	r0, r0
 800043e:	b501      	push	{r0, lr}
 8000440:	2000      	movs	r0, #0
 8000442:	f000 f805 	bl	8000450 <__aeabi_idiv0>
 8000446:	bd02      	pop	{r1, pc}

08000448 <__aeabi_idivmod>:
 8000448:	2900      	cmp	r1, #0
 800044a:	d0f8      	beq.n	800043e <__divsi3+0x1c2>
 800044c:	e716      	b.n	800027c <__divsi3>
 800044e:	4770      	bx	lr

08000450 <__aeabi_idiv0>:
 8000450:	4770      	bx	lr
 8000452:	46c0      	nop			; (mov r8, r8)

08000454 <__aeabi_cdrcmple>:
 8000454:	4684      	mov	ip, r0
 8000456:	1c10      	adds	r0, r2, #0
 8000458:	4662      	mov	r2, ip
 800045a:	468c      	mov	ip, r1
 800045c:	1c19      	adds	r1, r3, #0
 800045e:	4663      	mov	r3, ip
 8000460:	e000      	b.n	8000464 <__aeabi_cdcmpeq>
 8000462:	46c0      	nop			; (mov r8, r8)

08000464 <__aeabi_cdcmpeq>:
 8000464:	b51f      	push	{r0, r1, r2, r3, r4, lr}
 8000466:	f001 ff7f 	bl	8002368 <__ledf2>
 800046a:	2800      	cmp	r0, #0
 800046c:	d401      	bmi.n	8000472 <__aeabi_cdcmpeq+0xe>
 800046e:	2100      	movs	r1, #0
 8000470:	42c8      	cmn	r0, r1
 8000472:	bd1f      	pop	{r0, r1, r2, r3, r4, pc}

08000474 <__aeabi_dcmpeq>:
 8000474:	b510      	push	{r4, lr}
 8000476:	f001 fed7 	bl	8002228 <__eqdf2>
 800047a:	4240      	negs	r0, r0
 800047c:	3001      	adds	r0, #1
 800047e:	bd10      	pop	{r4, pc}

08000480 <__aeabi_dcmplt>:
 8000480:	b510      	push	{r4, lr}
 8000482:	f001 ff71 	bl	8002368 <__ledf2>
 8000486:	2800      	cmp	r0, #0
 8000488:	db01      	blt.n	800048e <__aeabi_dcmplt+0xe>
 800048a:	2000      	movs	r0, #0
 800048c:	bd10      	pop	{r4, pc}
 800048e:	2001      	movs	r0, #1
 8000490:	bd10      	pop	{r4, pc}
 8000492:	46c0      	nop			; (mov r8, r8)

08000494 <__aeabi_dcmple>:
 8000494:	b510      	push	{r4, lr}
 8000496:	f001 ff67 	bl	8002368 <__ledf2>
 800049a:	2800      	cmp	r0, #0
 800049c:	dd01      	ble.n	80004a2 <__aeabi_dcmple+0xe>
 800049e:	2000      	movs	r0, #0
 80004a0:	bd10      	pop	{r4, pc}
 80004a2:	2001      	movs	r0, #1
 80004a4:	bd10      	pop	{r4, pc}
 80004a6:	46c0      	nop			; (mov r8, r8)

080004a8 <__aeabi_dcmpgt>:
 80004a8:	b510      	push	{r4, lr}
 80004aa:	f001 fef9 	bl	80022a0 <__gedf2>
 80004ae:	2800      	cmp	r0, #0
 80004b0:	dc01      	bgt.n	80004b6 <__aeabi_dcmpgt+0xe>
 80004b2:	2000      	movs	r0, #0
 80004b4:	bd10      	pop	{r4, pc}
 80004b6:	2001      	movs	r0, #1
 80004b8:	bd10      	pop	{r4, pc}
 80004ba:	46c0      	nop			; (mov r8, r8)

080004bc <__aeabi_dcmpge>:
 80004bc:	b510      	push	{r4, lr}
 80004be:	f001 feef 	bl	80022a0 <__gedf2>
 80004c2:	2800      	cmp	r0, #0
 80004c4:	da01      	bge.n	80004ca <__aeabi_dcmpge+0xe>
 80004c6:	2000      	movs	r0, #0
 80004c8:	bd10      	pop	{r4, pc}
 80004ca:	2001      	movs	r0, #1
 80004cc:	bd10      	pop	{r4, pc}
 80004ce:	46c0      	nop			; (mov r8, r8)

080004d0 <__aeabi_cfrcmple>:
 80004d0:	4684      	mov	ip, r0
 80004d2:	1c08      	adds	r0, r1, #0
 80004d4:	4661      	mov	r1, ip
 80004d6:	e7ff      	b.n	80004d8 <__aeabi_cfcmpeq>

080004d8 <__aeabi_cfcmpeq>:
 80004d8:	b51f      	push	{r0, r1, r2, r3, r4, lr}
 80004da:	f000 fc97 	bl	8000e0c <__lesf2>
 80004de:	2800      	cmp	r0, #0
 80004e0:	d401      	bmi.n	80004e6 <__aeabi_cfcmpeq+0xe>
 80004e2:	2100      	movs	r1, #0
 80004e4:	42c8      	cmn	r0, r1
 80004e6:	bd1f      	pop	{r0, r1, r2, r3, r4, pc}

080004e8 <__aeabi_fcmpeq>:
 80004e8:	b510      	push	{r4, lr}
 80004ea:	f000 fc19 	bl	8000d20 <__eqsf2>
 80004ee:	4240      	negs	r0, r0
 80004f0:	3001      	adds	r0, #1
 80004f2:	bd10      	pop	{r4, pc}

080004f4 <__aeabi_fcmplt>:
 80004f4:	b510      	push	{r4, lr}
 80004f6:	f000 fc89 	bl	8000e0c <__lesf2>
 80004fa:	2800      	cmp	r0, #0
 80004fc:	db01      	blt.n	8000502 <__aeabi_fcmplt+0xe>
 80004fe:	2000      	movs	r0, #0
 8000500:	bd10      	pop	{r4, pc}
 8000502:	2001      	movs	r0, #1
 8000504:	bd10      	pop	{r4, pc}
 8000506:	46c0      	nop			; (mov r8, r8)

08000508 <__aeabi_fcmple>:
 8000508:	b510      	push	{r4, lr}
 800050a:	f000 fc7f 	bl	8000e0c <__lesf2>
 800050e:	2800      	cmp	r0, #0
 8000510:	dd01      	ble.n	8000516 <__aeabi_fcmple+0xe>
 8000512:	2000      	movs	r0, #0
 8000514:	bd10      	pop	{r4, pc}
 8000516:	2001      	movs	r0, #1
 8000518:	bd10      	pop	{r4, pc}
 800051a:	46c0      	nop			; (mov r8, r8)

0800051c <__aeabi_fcmpgt>:
 800051c:	b510      	push	{r4, lr}
 800051e:	f000 fc27 	bl	8000d70 <__gesf2>
 8000522:	2800      	cmp	r0, #0
 8000524:	dc01      	bgt.n	800052a <__aeabi_fcmpgt+0xe>
 8000526:	2000      	movs	r0, #0
 8000528:	bd10      	pop	{r4, pc}
 800052a:	2001      	movs	r0, #1
 800052c:	bd10      	pop	{r4, pc}
 800052e:	46c0      	nop			; (mov r8, r8)

08000530 <__aeabi_fcmpge>:
 8000530:	b510      	push	{r4, lr}
 8000532:	f000 fc1d 	bl	8000d70 <__gesf2>
 8000536:	2800      	cmp	r0, #0
 8000538:	da01      	bge.n	800053e <__aeabi_fcmpge+0xe>
 800053a:	2000      	movs	r0, #0
 800053c:	bd10      	pop	{r4, pc}
 800053e:	2001      	movs	r0, #1
 8000540:	bd10      	pop	{r4, pc}
 8000542:	46c0      	nop			; (mov r8, r8)

08000544 <__aeabi_uldivmod>:
 8000544:	2b00      	cmp	r3, #0
 8000546:	d111      	bne.n	800056c <__aeabi_uldivmod+0x28>
 8000548:	2a00      	cmp	r2, #0
 800054a:	d10f      	bne.n	800056c <__aeabi_uldivmod+0x28>
 800054c:	2900      	cmp	r1, #0
 800054e:	d100      	bne.n	8000552 <__aeabi_uldivmod+0xe>
 8000550:	2800      	cmp	r0, #0
 8000552:	d002      	beq.n	800055a <__aeabi_uldivmod+0x16>
 8000554:	2100      	movs	r1, #0
 8000556:	43c9      	mvns	r1, r1
 8000558:	1c08      	adds	r0, r1, #0
 800055a:	b407      	push	{r0, r1, r2}
 800055c:	4802      	ldr	r0, [pc, #8]	; (8000568 <__aeabi_uldivmod+0x24>)
 800055e:	a102      	add	r1, pc, #8	; (adr r1, 8000568 <__aeabi_uldivmod+0x24>)
 8000560:	1840      	adds	r0, r0, r1
 8000562:	9002      	str	r0, [sp, #8]
 8000564:	bd03      	pop	{r0, r1, pc}
 8000566:	46c0      	nop			; (mov r8, r8)
 8000568:	fffffee9 	.word	0xfffffee9
 800056c:	b403      	push	{r0, r1}
 800056e:	4668      	mov	r0, sp
 8000570:	b501      	push	{r0, lr}
 8000572:	9802      	ldr	r0, [sp, #8]
 8000574:	f000 f866 	bl	8000644 <__udivmoddi4>
 8000578:	9b01      	ldr	r3, [sp, #4]
 800057a:	469e      	mov	lr, r3
 800057c:	b002      	add	sp, #8
 800057e:	bc0c      	pop	{r2, r3}
 8000580:	4770      	bx	lr
 8000582:	46c0      	nop			; (mov r8, r8)

08000584 <__aeabi_lmul>:
 8000584:	b5f0      	push	{r4, r5, r6, r7, lr}
 8000586:	46ce      	mov	lr, r9
 8000588:	4647      	mov	r7, r8
 800058a:	0415      	lsls	r5, r2, #16
 800058c:	0c2d      	lsrs	r5, r5, #16
 800058e:	002e      	movs	r6, r5
 8000590:	b580      	push	{r7, lr}
 8000592:	0407      	lsls	r7, r0, #16
 8000594:	0c14      	lsrs	r4, r2, #16
 8000596:	0c3f      	lsrs	r7, r7, #16
 8000598:	4699      	mov	r9, r3
 800059a:	0c03      	lsrs	r3, r0, #16
 800059c:	437e      	muls	r6, r7
 800059e:	435d      	muls	r5, r3
 80005a0:	4367      	muls	r7, r4
 80005a2:	4363      	muls	r3, r4
 80005a4:	197f      	adds	r7, r7, r5
 80005a6:	0c34      	lsrs	r4, r6, #16
 80005a8:	19e4      	adds	r4, r4, r7
 80005aa:	469c      	mov	ip, r3
 80005ac:	42a5      	cmp	r5, r4
 80005ae:	d903      	bls.n	80005b8 <__aeabi_lmul+0x34>
 80005b0:	2380      	movs	r3, #128	; 0x80
 80005b2:	025b      	lsls	r3, r3, #9
 80005b4:	4698      	mov	r8, r3
 80005b6:	44c4      	add	ip, r8
 80005b8:	464b      	mov	r3, r9
 80005ba:	4343      	muls	r3, r0
 80005bc:	4351      	muls	r1, r2
 80005be:	0c25      	lsrs	r5, r4, #16
 80005c0:	0436      	lsls	r6, r6, #16
 80005c2:	4465      	add	r5, ip
 80005c4:	0c36      	lsrs	r6, r6, #16
 80005c6:	0424      	lsls	r4, r4, #16
 80005c8:	19a4      	adds	r4, r4, r6
 80005ca:	195b      	adds	r3, r3, r5
 80005cc:	1859      	adds	r1, r3, r1
 80005ce:	0020      	movs	r0, r4
 80005d0:	bc0c      	pop	{r2, r3}
 80005d2:	4690      	mov	r8, r2
 80005d4:	4699      	mov	r9, r3
 80005d6:	bdf0      	pop	{r4, r5, r6, r7, pc}

080005d8 <__aeabi_f2uiz>:
 80005d8:	219e      	movs	r1, #158	; 0x9e
 80005da:	b510      	push	{r4, lr}
 80005dc:	05c9      	lsls	r1, r1, #23
 80005de:	1c04      	adds	r4, r0, #0
 80005e0:	f7ff ffa6 	bl	8000530 <__aeabi_fcmpge>
 80005e4:	2800      	cmp	r0, #0
 80005e6:	d103      	bne.n	80005f0 <__aeabi_f2uiz+0x18>
 80005e8:	1c20      	adds	r0, r4, #0
 80005ea:	f000 ff55 	bl	8001498 <__aeabi_f2iz>
 80005ee:	bd10      	pop	{r4, pc}
 80005f0:	219e      	movs	r1, #158	; 0x9e
 80005f2:	1c20      	adds	r0, r4, #0
 80005f4:	05c9      	lsls	r1, r1, #23
 80005f6:	f000 fd8b 	bl	8001110 <__aeabi_fsub>
 80005fa:	f000 ff4d 	bl	8001498 <__aeabi_f2iz>
 80005fe:	2380      	movs	r3, #128	; 0x80
 8000600:	061b      	lsls	r3, r3, #24
 8000602:	469c      	mov	ip, r3
 8000604:	4460      	add	r0, ip
 8000606:	e7f2      	b.n	80005ee <__aeabi_f2uiz+0x16>

08000608 <__aeabi_d2uiz>:
 8000608:	b570      	push	{r4, r5, r6, lr}
 800060a:	2200      	movs	r2, #0
 800060c:	4b0c      	ldr	r3, [pc, #48]	; (8000640 <__aeabi_d2uiz+0x38>)
 800060e:	0004      	movs	r4, r0
 8000610:	000d      	movs	r5, r1
 8000612:	f7ff ff53 	bl	80004bc <__aeabi_dcmpge>
 8000616:	2800      	cmp	r0, #0
 8000618:	d104      	bne.n	8000624 <__aeabi_d2uiz+0x1c>
 800061a:	0020      	movs	r0, r4
 800061c:	0029      	movs	r1, r5
 800061e:	f002 fce1 	bl	8002fe4 <__aeabi_d2iz>
 8000622:	bd70      	pop	{r4, r5, r6, pc}
 8000624:	4b06      	ldr	r3, [pc, #24]	; (8000640 <__aeabi_d2uiz+0x38>)
 8000626:	2200      	movs	r2, #0
 8000628:	0020      	movs	r0, r4
 800062a:	0029      	movs	r1, r5
 800062c:	f002 f976 	bl	800291c <__aeabi_dsub>
 8000630:	f002 fcd8 	bl	8002fe4 <__aeabi_d2iz>
 8000634:	2380      	movs	r3, #128	; 0x80
 8000636:	061b      	lsls	r3, r3, #24
 8000638:	469c      	mov	ip, r3
 800063a:	4460      	add	r0, ip
 800063c:	e7f1      	b.n	8000622 <__aeabi_d2uiz+0x1a>
 800063e:	46c0      	nop			; (mov r8, r8)
 8000640:	41e00000 	.word	0x41e00000

08000644 <__udivmoddi4>:
 8000644:	b5f0      	push	{r4, r5, r6, r7, lr}
 8000646:	464f      	mov	r7, r9
 8000648:	4646      	mov	r6, r8
 800064a:	46d6      	mov	lr, sl
 800064c:	b5c0      	push	{r6, r7, lr}
 800064e:	0004      	movs	r4, r0
 8000650:	b082      	sub	sp, #8
 8000652:	000d      	movs	r5, r1
 8000654:	4691      	mov	r9, r2
 8000656:	4698      	mov	r8, r3
 8000658:	428b      	cmp	r3, r1
 800065a:	d82f      	bhi.n	80006bc <__udivmoddi4+0x78>
 800065c:	d02c      	beq.n	80006b8 <__udivmoddi4+0x74>
 800065e:	4641      	mov	r1, r8
 8000660:	4648      	mov	r0, r9
 8000662:	f002 fe55 	bl	8003310 <__clzdi2>
 8000666:	0029      	movs	r1, r5
 8000668:	0006      	movs	r6, r0
 800066a:	0020      	movs	r0, r4
 800066c:	f002 fe50 	bl	8003310 <__clzdi2>
 8000670:	1a33      	subs	r3, r6, r0
 8000672:	469c      	mov	ip, r3
 8000674:	3b20      	subs	r3, #32
 8000676:	469a      	mov	sl, r3
 8000678:	d500      	bpl.n	800067c <__udivmoddi4+0x38>
 800067a:	e076      	b.n	800076a <__udivmoddi4+0x126>
 800067c:	464b      	mov	r3, r9
 800067e:	4652      	mov	r2, sl
 8000680:	4093      	lsls	r3, r2
 8000682:	001f      	movs	r7, r3
 8000684:	464b      	mov	r3, r9
 8000686:	4662      	mov	r2, ip
 8000688:	4093      	lsls	r3, r2
 800068a:	001e      	movs	r6, r3
 800068c:	42af      	cmp	r7, r5
 800068e:	d828      	bhi.n	80006e2 <__udivmoddi4+0x9e>
 8000690:	d025      	beq.n	80006de <__udivmoddi4+0x9a>
 8000692:	4653      	mov	r3, sl
 8000694:	1ba4      	subs	r4, r4, r6
 8000696:	41bd      	sbcs	r5, r7
 8000698:	2b00      	cmp	r3, #0
 800069a:	da00      	bge.n	800069e <__udivmoddi4+0x5a>
 800069c:	e07b      	b.n	8000796 <__udivmoddi4+0x152>
 800069e:	2200      	movs	r2, #0
 80006a0:	2300      	movs	r3, #0
 80006a2:	9200      	str	r2, [sp, #0]
 80006a4:	9301      	str	r3, [sp, #4]
 80006a6:	2301      	movs	r3, #1
 80006a8:	4652      	mov	r2, sl
 80006aa:	4093      	lsls	r3, r2
 80006ac:	9301      	str	r3, [sp, #4]
 80006ae:	2301      	movs	r3, #1
 80006b0:	4662      	mov	r2, ip
 80006b2:	4093      	lsls	r3, r2
 80006b4:	9300      	str	r3, [sp, #0]
 80006b6:	e018      	b.n	80006ea <__udivmoddi4+0xa6>
 80006b8:	4282      	cmp	r2, r0
 80006ba:	d9d0      	bls.n	800065e <__udivmoddi4+0x1a>
 80006bc:	2200      	movs	r2, #0
 80006be:	2300      	movs	r3, #0
 80006c0:	9200      	str	r2, [sp, #0]
 80006c2:	9301      	str	r3, [sp, #4]
 80006c4:	9b0a      	ldr	r3, [sp, #40]	; 0x28
 80006c6:	2b00      	cmp	r3, #0
 80006c8:	d001      	beq.n	80006ce <__udivmoddi4+0x8a>
 80006ca:	601c      	str	r4, [r3, #0]
 80006cc:	605d      	str	r5, [r3, #4]
 80006ce:	9800      	ldr	r0, [sp, #0]
 80006d0:	9901      	ldr	r1, [sp, #4]
 80006d2:	b002      	add	sp, #8
 80006d4:	bc1c      	pop	{r2, r3, r4}
 80006d6:	4690      	mov	r8, r2
 80006d8:	4699      	mov	r9, r3
 80006da:	46a2      	mov	sl, r4
 80006dc:	bdf0      	pop	{r4, r5, r6, r7, pc}
 80006de:	42a3      	cmp	r3, r4
 80006e0:	d9d7      	bls.n	8000692 <__udivmoddi4+0x4e>
 80006e2:	2200      	movs	r2, #0
 80006e4:	2300      	movs	r3, #0
 80006e6:	9200      	str	r2, [sp, #0]
 80006e8:	9301      	str	r3, [sp, #4]
 80006ea:	4663      	mov	r3, ip
 80006ec:	2b00      	cmp	r3, #0
 80006ee:	d0e9      	beq.n	80006c4 <__udivmoddi4+0x80>
 80006f0:	07fb      	lsls	r3, r7, #31
 80006f2:	4698      	mov	r8, r3
 80006f4:	4641      	mov	r1, r8
 80006f6:	0872      	lsrs	r2, r6, #1
 80006f8:	430a      	orrs	r2, r1
 80006fa:	087b      	lsrs	r3, r7, #1
 80006fc:	4666      	mov	r6, ip
 80006fe:	e00e      	b.n	800071e <__udivmoddi4+0xda>
 8000700:	42ab      	cmp	r3, r5
 8000702:	d101      	bne.n	8000708 <__udivmoddi4+0xc4>
 8000704:	42a2      	cmp	r2, r4
 8000706:	d80c      	bhi.n	8000722 <__udivmoddi4+0xde>
 8000708:	1aa4      	subs	r4, r4, r2
 800070a:	419d      	sbcs	r5, r3
 800070c:	2001      	movs	r0, #1
 800070e:	1924      	adds	r4, r4, r4
 8000710:	416d      	adcs	r5, r5
 8000712:	2100      	movs	r1, #0
 8000714:	3e01      	subs	r6, #1
 8000716:	1824      	adds	r4, r4, r0
 8000718:	414d      	adcs	r5, r1
 800071a:	2e00      	cmp	r6, #0
 800071c:	d006      	beq.n	800072c <__udivmoddi4+0xe8>
 800071e:	42ab      	cmp	r3, r5
 8000720:	d9ee      	bls.n	8000700 <__udivmoddi4+0xbc>
 8000722:	3e01      	subs	r6, #1
 8000724:	1924      	adds	r4, r4, r4
 8000726:	416d      	adcs	r5, r5
 8000728:	2e00      	cmp	r6, #0
 800072a:	d1f8      	bne.n	800071e <__udivmoddi4+0xda>
 800072c:	9800      	ldr	r0, [sp, #0]
 800072e:	9901      	ldr	r1, [sp, #4]
 8000730:	4653      	mov	r3, sl
 8000732:	1900      	adds	r0, r0, r4
 8000734:	4169      	adcs	r1, r5
 8000736:	2b00      	cmp	r3, #0
 8000738:	db23      	blt.n	8000782 <__udivmoddi4+0x13e>
 800073a:	002b      	movs	r3, r5
 800073c:	4652      	mov	r2, sl
 800073e:	40d3      	lsrs	r3, r2
 8000740:	002a      	movs	r2, r5
 8000742:	4664      	mov	r4, ip
 8000744:	40e2      	lsrs	r2, r4
 8000746:	001c      	movs	r4, r3
 8000748:	4653      	mov	r3, sl
 800074a:	0015      	movs	r5, r2
 800074c:	2b00      	cmp	r3, #0
 800074e:	db2d      	blt.n	80007ac <__udivmoddi4+0x168>
 8000750:	0026      	movs	r6, r4
 8000752:	4657      	mov	r7, sl
 8000754:	40be      	lsls	r6, r7
 8000756:	0033      	movs	r3, r6
 8000758:	0026      	movs	r6, r4
 800075a:	4667      	mov	r7, ip
 800075c:	40be      	lsls	r6, r7
 800075e:	0032      	movs	r2, r6
 8000760:	1a80      	subs	r0, r0, r2
 8000762:	4199      	sbcs	r1, r3
 8000764:	9000      	str	r0, [sp, #0]
 8000766:	9101      	str	r1, [sp, #4]
 8000768:	e7ac      	b.n	80006c4 <__udivmoddi4+0x80>
 800076a:	4662      	mov	r2, ip
 800076c:	2320      	movs	r3, #32
 800076e:	1a9b      	subs	r3, r3, r2
 8000770:	464a      	mov	r2, r9
 8000772:	40da      	lsrs	r2, r3
 8000774:	4661      	mov	r1, ip
 8000776:	0013      	movs	r3, r2
 8000778:	4642      	mov	r2, r8
 800077a:	408a      	lsls	r2, r1
 800077c:	0017      	movs	r7, r2
 800077e:	431f      	orrs	r7, r3
 8000780:	e780      	b.n	8000684 <__udivmoddi4+0x40>
 8000782:	4662      	mov	r2, ip
 8000784:	2320      	movs	r3, #32
 8000786:	1a9b      	subs	r3, r3, r2
 8000788:	002a      	movs	r2, r5
 800078a:	4666      	mov	r6, ip
 800078c:	409a      	lsls	r2, r3
 800078e:	0023      	movs	r3, r4
 8000790:	40f3      	lsrs	r3, r6
 8000792:	4313      	orrs	r3, r2
 8000794:	e7d4      	b.n	8000740 <__udivmoddi4+0xfc>
 8000796:	4662      	mov	r2, ip
 8000798:	2320      	movs	r3, #32
 800079a:	2100      	movs	r1, #0
 800079c:	1a9b      	subs	r3, r3, r2
 800079e:	2200      	movs	r2, #0
 80007a0:	9100      	str	r1, [sp, #0]
 80007a2:	9201      	str	r2, [sp, #4]
 80007a4:	2201      	movs	r2, #1
 80007a6:	40da      	lsrs	r2, r3
 80007a8:	9201      	str	r2, [sp, #4]
 80007aa:	e780      	b.n	80006ae <__udivmoddi4+0x6a>
 80007ac:	2320      	movs	r3, #32
 80007ae:	4662      	mov	r2, ip
 80007b0:	0026      	movs	r6, r4
 80007b2:	1a9b      	subs	r3, r3, r2
 80007b4:	40de      	lsrs	r6, r3
 80007b6:	002f      	movs	r7, r5
 80007b8:	46b0      	mov	r8, r6
 80007ba:	4666      	mov	r6, ip
 80007bc:	40b7      	lsls	r7, r6
 80007be:	4646      	mov	r6, r8
 80007c0:	003b      	movs	r3, r7
 80007c2:	4333      	orrs	r3, r6
 80007c4:	e7c8      	b.n	8000758 <__udivmoddi4+0x114>
 80007c6:	46c0      	nop			; (mov r8, r8)

080007c8 <__aeabi_fadd>:
 80007c8:	b5f8      	push	{r3, r4, r5, r6, r7, lr}
 80007ca:	4647      	mov	r7, r8
 80007cc:	46ce      	mov	lr, r9
 80007ce:	0243      	lsls	r3, r0, #9
 80007d0:	0a5b      	lsrs	r3, r3, #9
 80007d2:	0044      	lsls	r4, r0, #1
 80007d4:	0fc2      	lsrs	r2, r0, #31
 80007d6:	469c      	mov	ip, r3
 80007d8:	0048      	lsls	r0, r1, #1
 80007da:	00dd      	lsls	r5, r3, #3
 80007dc:	024b      	lsls	r3, r1, #9
 80007de:	0e24      	lsrs	r4, r4, #24
 80007e0:	0a5b      	lsrs	r3, r3, #9
 80007e2:	0e00      	lsrs	r0, r0, #24
 80007e4:	b580      	push	{r7, lr}
 80007e6:	4698      	mov	r8, r3
 80007e8:	0026      	movs	r6, r4
 80007ea:	4691      	mov	r9, r2
 80007ec:	0fc9      	lsrs	r1, r1, #31
 80007ee:	00db      	lsls	r3, r3, #3
 80007f0:	1a27      	subs	r7, r4, r0
 80007f2:	428a      	cmp	r2, r1
 80007f4:	d029      	beq.n	800084a <__aeabi_fadd+0x82>
 80007f6:	2f00      	cmp	r7, #0
 80007f8:	dd15      	ble.n	8000826 <__aeabi_fadd+0x5e>
 80007fa:	2800      	cmp	r0, #0
 80007fc:	d14a      	bne.n	8000894 <__aeabi_fadd+0xcc>
 80007fe:	2b00      	cmp	r3, #0
 8000800:	d000      	beq.n	8000804 <__aeabi_fadd+0x3c>
 8000802:	e095      	b.n	8000930 <__aeabi_fadd+0x168>
 8000804:	08ed      	lsrs	r5, r5, #3
 8000806:	2cff      	cmp	r4, #255	; 0xff
 8000808:	d100      	bne.n	800080c <__aeabi_fadd+0x44>
 800080a:	e088      	b.n	800091e <__aeabi_fadd+0x156>
 800080c:	026b      	lsls	r3, r5, #9
 800080e:	0a5b      	lsrs	r3, r3, #9
 8000810:	b2e6      	uxtb	r6, r4
 8000812:	025b      	lsls	r3, r3, #9
 8000814:	05f6      	lsls	r6, r6, #23
 8000816:	0a58      	lsrs	r0, r3, #9
 8000818:	4330      	orrs	r0, r6
 800081a:	07d2      	lsls	r2, r2, #31
 800081c:	4310      	orrs	r0, r2
 800081e:	bc0c      	pop	{r2, r3}
 8000820:	4690      	mov	r8, r2
 8000822:	4699      	mov	r9, r3
 8000824:	bdf8      	pop	{r3, r4, r5, r6, r7, pc}
 8000826:	2f00      	cmp	r7, #0
 8000828:	d000      	beq.n	800082c <__aeabi_fadd+0x64>
 800082a:	e087      	b.n	800093c <__aeabi_fadd+0x174>
 800082c:	1c60      	adds	r0, r4, #1
 800082e:	b2c0      	uxtb	r0, r0
 8000830:	2801      	cmp	r0, #1
 8000832:	dc00      	bgt.n	8000836 <__aeabi_fadd+0x6e>
 8000834:	e0b6      	b.n	80009a4 <__aeabi_fadd+0x1dc>
 8000836:	1aee      	subs	r6, r5, r3
 8000838:	0172      	lsls	r2, r6, #5
 800083a:	d500      	bpl.n	800083e <__aeabi_fadd+0x76>
 800083c:	e0c5      	b.n	80009ca <__aeabi_fadd+0x202>
 800083e:	2e00      	cmp	r6, #0
 8000840:	d13d      	bne.n	80008be <__aeabi_fadd+0xf6>
 8000842:	2200      	movs	r2, #0
 8000844:	2600      	movs	r6, #0
 8000846:	2300      	movs	r3, #0
 8000848:	e7e3      	b.n	8000812 <__aeabi_fadd+0x4a>
 800084a:	2f00      	cmp	r7, #0
 800084c:	dc00      	bgt.n	8000850 <__aeabi_fadd+0x88>
 800084e:	e096      	b.n	800097e <__aeabi_fadd+0x1b6>
 8000850:	2800      	cmp	r0, #0
 8000852:	d05d      	beq.n	8000910 <__aeabi_fadd+0x148>
 8000854:	2cff      	cmp	r4, #255	; 0xff
 8000856:	d060      	beq.n	800091a <__aeabi_fadd+0x152>
 8000858:	2280      	movs	r2, #128	; 0x80
 800085a:	04d2      	lsls	r2, r2, #19
 800085c:	4313      	orrs	r3, r2
 800085e:	2f1b      	cmp	r7, #27
 8000860:	dd00      	ble.n	8000864 <__aeabi_fadd+0x9c>
 8000862:	e0ec      	b.n	8000a3e <__aeabi_fadd+0x276>
 8000864:	2220      	movs	r2, #32
 8000866:	1bd2      	subs	r2, r2, r7
 8000868:	0018      	movs	r0, r3
 800086a:	4093      	lsls	r3, r2
 800086c:	40f8      	lsrs	r0, r7
 800086e:	1e5a      	subs	r2, r3, #1
 8000870:	4193      	sbcs	r3, r2
 8000872:	4303      	orrs	r3, r0
 8000874:	18ed      	adds	r5, r5, r3
 8000876:	016b      	lsls	r3, r5, #5
 8000878:	d57b      	bpl.n	8000972 <__aeabi_fadd+0x1aa>
 800087a:	3401      	adds	r4, #1
 800087c:	2cff      	cmp	r4, #255	; 0xff
 800087e:	d100      	bne.n	8000882 <__aeabi_fadd+0xba>
 8000880:	e0b7      	b.n	80009f2 <__aeabi_fadd+0x22a>
 8000882:	2201      	movs	r2, #1
 8000884:	2607      	movs	r6, #7
 8000886:	402a      	ands	r2, r5
 8000888:	086b      	lsrs	r3, r5, #1
 800088a:	4d9a      	ldr	r5, [pc, #616]	; (8000af4 <__aeabi_fadd+0x32c>)
 800088c:	401d      	ands	r5, r3
 800088e:	4315      	orrs	r5, r2
 8000890:	402e      	ands	r6, r5
 8000892:	e029      	b.n	80008e8 <__aeabi_fadd+0x120>
 8000894:	2cff      	cmp	r4, #255	; 0xff
 8000896:	d0b5      	beq.n	8000804 <__aeabi_fadd+0x3c>
 8000898:	2280      	movs	r2, #128	; 0x80
 800089a:	04d2      	lsls	r2, r2, #19
 800089c:	4313      	orrs	r3, r2
 800089e:	2f1b      	cmp	r7, #27
 80008a0:	dd00      	ble.n	80008a4 <__aeabi_fadd+0xdc>
 80008a2:	e0b2      	b.n	8000a0a <__aeabi_fadd+0x242>
 80008a4:	2220      	movs	r2, #32
 80008a6:	1bd2      	subs	r2, r2, r7
 80008a8:	0019      	movs	r1, r3
 80008aa:	4093      	lsls	r3, r2
 80008ac:	40f9      	lsrs	r1, r7
 80008ae:	1e5a      	subs	r2, r3, #1
 80008b0:	4193      	sbcs	r3, r2
 80008b2:	430b      	orrs	r3, r1
 80008b4:	1aed      	subs	r5, r5, r3
 80008b6:	016b      	lsls	r3, r5, #5
 80008b8:	d55b      	bpl.n	8000972 <__aeabi_fadd+0x1aa>
 80008ba:	01ad      	lsls	r5, r5, #6
 80008bc:	09ae      	lsrs	r6, r5, #6
 80008be:	0030      	movs	r0, r6
 80008c0:	f002 fd08 	bl	80032d4 <__clzsi2>
 80008c4:	3805      	subs	r0, #5
 80008c6:	4086      	lsls	r6, r0
 80008c8:	4284      	cmp	r4, r0
 80008ca:	dc65      	bgt.n	8000998 <__aeabi_fadd+0x1d0>
 80008cc:	1b04      	subs	r4, r0, r4
 80008ce:	0033      	movs	r3, r6
 80008d0:	2020      	movs	r0, #32
 80008d2:	3401      	adds	r4, #1
 80008d4:	40e3      	lsrs	r3, r4
 80008d6:	1b04      	subs	r4, r0, r4
 80008d8:	40a6      	lsls	r6, r4
 80008da:	1e75      	subs	r5, r6, #1
 80008dc:	41ae      	sbcs	r6, r5
 80008de:	4333      	orrs	r3, r6
 80008e0:	2607      	movs	r6, #7
 80008e2:	001d      	movs	r5, r3
 80008e4:	2400      	movs	r4, #0
 80008e6:	401e      	ands	r6, r3
 80008e8:	2201      	movs	r2, #1
 80008ea:	464b      	mov	r3, r9
 80008ec:	401a      	ands	r2, r3
 80008ee:	2e00      	cmp	r6, #0
 80008f0:	d004      	beq.n	80008fc <__aeabi_fadd+0x134>
 80008f2:	230f      	movs	r3, #15
 80008f4:	402b      	ands	r3, r5
 80008f6:	2b04      	cmp	r3, #4
 80008f8:	d000      	beq.n	80008fc <__aeabi_fadd+0x134>
 80008fa:	3504      	adds	r5, #4
 80008fc:	016b      	lsls	r3, r5, #5
 80008fe:	d400      	bmi.n	8000902 <__aeabi_fadd+0x13a>
 8000900:	e780      	b.n	8000804 <__aeabi_fadd+0x3c>
 8000902:	3401      	adds	r4, #1
 8000904:	b2e6      	uxtb	r6, r4
 8000906:	2cff      	cmp	r4, #255	; 0xff
 8000908:	d12f      	bne.n	800096a <__aeabi_fadd+0x1a2>
 800090a:	26ff      	movs	r6, #255	; 0xff
 800090c:	2300      	movs	r3, #0
 800090e:	e780      	b.n	8000812 <__aeabi_fadd+0x4a>
 8000910:	2b00      	cmp	r3, #0
 8000912:	d152      	bne.n	80009ba <__aeabi_fadd+0x1f2>
 8000914:	2cff      	cmp	r4, #255	; 0xff
 8000916:	d000      	beq.n	800091a <__aeabi_fadd+0x152>
 8000918:	e774      	b.n	8000804 <__aeabi_fadd+0x3c>
 800091a:	000a      	movs	r2, r1
 800091c:	08ed      	lsrs	r5, r5, #3
 800091e:	2d00      	cmp	r5, #0
 8000920:	d0f3      	beq.n	800090a <__aeabi_fadd+0x142>
 8000922:	2380      	movs	r3, #128	; 0x80
 8000924:	03db      	lsls	r3, r3, #15
 8000926:	432b      	orrs	r3, r5
 8000928:	025b      	lsls	r3, r3, #9
 800092a:	0a5b      	lsrs	r3, r3, #9
 800092c:	26ff      	movs	r6, #255	; 0xff
 800092e:	e770      	b.n	8000812 <__aeabi_fadd+0x4a>
 8000930:	3f01      	subs	r7, #1
 8000932:	2f00      	cmp	r7, #0
 8000934:	d0be      	beq.n	80008b4 <__aeabi_fadd+0xec>
 8000936:	2cff      	cmp	r4, #255	; 0xff
 8000938:	d1b1      	bne.n	800089e <__aeabi_fadd+0xd6>
 800093a:	e763      	b.n	8000804 <__aeabi_fadd+0x3c>
 800093c:	2c00      	cmp	r4, #0
 800093e:	d047      	beq.n	80009d0 <__aeabi_fadd+0x208>
 8000940:	28ff      	cmp	r0, #255	; 0xff
 8000942:	d069      	beq.n	8000a18 <__aeabi_fadd+0x250>
 8000944:	2480      	movs	r4, #128	; 0x80
 8000946:	04e4      	lsls	r4, r4, #19
 8000948:	427a      	negs	r2, r7
 800094a:	4325      	orrs	r5, r4
 800094c:	2a1b      	cmp	r2, #27
 800094e:	dd00      	ble.n	8000952 <__aeabi_fadd+0x18a>
 8000950:	e0c5      	b.n	8000ade <__aeabi_fadd+0x316>
 8000952:	002c      	movs	r4, r5
 8000954:	2620      	movs	r6, #32
 8000956:	40d4      	lsrs	r4, r2
 8000958:	1ab2      	subs	r2, r6, r2
 800095a:	4095      	lsls	r5, r2
 800095c:	1e6a      	subs	r2, r5, #1
 800095e:	4195      	sbcs	r5, r2
 8000960:	4325      	orrs	r5, r4
 8000962:	1b5d      	subs	r5, r3, r5
 8000964:	0004      	movs	r4, r0
 8000966:	4689      	mov	r9, r1
 8000968:	e7a5      	b.n	80008b6 <__aeabi_fadd+0xee>
 800096a:	01ab      	lsls	r3, r5, #6
 800096c:	0a5b      	lsrs	r3, r3, #9
 800096e:	e750      	b.n	8000812 <__aeabi_fadd+0x4a>
 8000970:	2400      	movs	r4, #0
 8000972:	2201      	movs	r2, #1
 8000974:	464b      	mov	r3, r9
 8000976:	401a      	ands	r2, r3
 8000978:	076b      	lsls	r3, r5, #29
 800097a:	d1ba      	bne.n	80008f2 <__aeabi_fadd+0x12a>
 800097c:	e742      	b.n	8000804 <__aeabi_fadd+0x3c>
 800097e:	2f00      	cmp	r7, #0
 8000980:	d13b      	bne.n	80009fa <__aeabi_fadd+0x232>
 8000982:	3401      	adds	r4, #1
 8000984:	b2e0      	uxtb	r0, r4
 8000986:	2801      	cmp	r0, #1
 8000988:	dd4a      	ble.n	8000a20 <__aeabi_fadd+0x258>
 800098a:	2cff      	cmp	r4, #255	; 0xff
 800098c:	d0bd      	beq.n	800090a <__aeabi_fadd+0x142>
 800098e:	2607      	movs	r6, #7
 8000990:	18ed      	adds	r5, r5, r3
 8000992:	086d      	lsrs	r5, r5, #1
 8000994:	402e      	ands	r6, r5
 8000996:	e7a7      	b.n	80008e8 <__aeabi_fadd+0x120>
 8000998:	2307      	movs	r3, #7
 800099a:	4d57      	ldr	r5, [pc, #348]	; (8000af8 <__aeabi_fadd+0x330>)
 800099c:	1a24      	subs	r4, r4, r0
 800099e:	4035      	ands	r5, r6
 80009a0:	401e      	ands	r6, r3
 80009a2:	e7a1      	b.n	80008e8 <__aeabi_fadd+0x120>
 80009a4:	2c00      	cmp	r4, #0
 80009a6:	d11b      	bne.n	80009e0 <__aeabi_fadd+0x218>
 80009a8:	2d00      	cmp	r5, #0
 80009aa:	d16e      	bne.n	8000a8a <__aeabi_fadd+0x2c2>
 80009ac:	2b00      	cmp	r3, #0
 80009ae:	d100      	bne.n	80009b2 <__aeabi_fadd+0x1ea>
 80009b0:	e09a      	b.n	8000ae8 <__aeabi_fadd+0x320>
 80009b2:	000a      	movs	r2, r1
 80009b4:	001d      	movs	r5, r3
 80009b6:	003c      	movs	r4, r7
 80009b8:	e724      	b.n	8000804 <__aeabi_fadd+0x3c>
 80009ba:	3f01      	subs	r7, #1
 80009bc:	2f00      	cmp	r7, #0
 80009be:	d100      	bne.n	80009c2 <__aeabi_fadd+0x1fa>
 80009c0:	e758      	b.n	8000874 <__aeabi_fadd+0xac>
 80009c2:	2cff      	cmp	r4, #255	; 0xff
 80009c4:	d000      	beq.n	80009c8 <__aeabi_fadd+0x200>
 80009c6:	e74a      	b.n	800085e <__aeabi_fadd+0x96>
 80009c8:	e7a7      	b.n	800091a <__aeabi_fadd+0x152>
 80009ca:	1b5e      	subs	r6, r3, r5
 80009cc:	4689      	mov	r9, r1
 80009ce:	e776      	b.n	80008be <__aeabi_fadd+0xf6>
 80009d0:	2d00      	cmp	r5, #0
 80009d2:	d11c      	bne.n	8000a0e <__aeabi_fadd+0x246>
 80009d4:	000a      	movs	r2, r1
 80009d6:	28ff      	cmp	r0, #255	; 0xff
 80009d8:	d01f      	beq.n	8000a1a <__aeabi_fadd+0x252>
 80009da:	0004      	movs	r4, r0
 80009dc:	001d      	movs	r5, r3
 80009de:	e711      	b.n	8000804 <__aeabi_fadd+0x3c>
 80009e0:	2d00      	cmp	r5, #0
 80009e2:	d15d      	bne.n	8000aa0 <__aeabi_fadd+0x2d8>
 80009e4:	2b00      	cmp	r3, #0
 80009e6:	d117      	bne.n	8000a18 <__aeabi_fadd+0x250>
 80009e8:	2380      	movs	r3, #128	; 0x80
 80009ea:	2200      	movs	r2, #0
 80009ec:	03db      	lsls	r3, r3, #15
 80009ee:	26ff      	movs	r6, #255	; 0xff
 80009f0:	e70f      	b.n	8000812 <__aeabi_fadd+0x4a>
 80009f2:	000a      	movs	r2, r1
 80009f4:	26ff      	movs	r6, #255	; 0xff
 80009f6:	2300      	movs	r3, #0
 80009f8:	e70b      	b.n	8000812 <__aeabi_fadd+0x4a>
 80009fa:	2c00      	cmp	r4, #0
 80009fc:	d121      	bne.n	8000a42 <__aeabi_fadd+0x27a>
 80009fe:	2d00      	cmp	r5, #0
 8000a00:	d166      	bne.n	8000ad0 <__aeabi_fadd+0x308>
 8000a02:	28ff      	cmp	r0, #255	; 0xff
 8000a04:	d1e9      	bne.n	80009da <__aeabi_fadd+0x212>
 8000a06:	001d      	movs	r5, r3
 8000a08:	e787      	b.n	800091a <__aeabi_fadd+0x152>
 8000a0a:	2301      	movs	r3, #1
 8000a0c:	e752      	b.n	80008b4 <__aeabi_fadd+0xec>
 8000a0e:	1c7a      	adds	r2, r7, #1
 8000a10:	d0a7      	beq.n	8000962 <__aeabi_fadd+0x19a>
 8000a12:	43fa      	mvns	r2, r7
 8000a14:	28ff      	cmp	r0, #255	; 0xff
 8000a16:	d199      	bne.n	800094c <__aeabi_fadd+0x184>
 8000a18:	000a      	movs	r2, r1
 8000a1a:	001d      	movs	r5, r3
 8000a1c:	24ff      	movs	r4, #255	; 0xff
 8000a1e:	e6f1      	b.n	8000804 <__aeabi_fadd+0x3c>
 8000a20:	2e00      	cmp	r6, #0
 8000a22:	d121      	bne.n	8000a68 <__aeabi_fadd+0x2a0>
 8000a24:	2d00      	cmp	r5, #0
 8000a26:	d04f      	beq.n	8000ac8 <__aeabi_fadd+0x300>
 8000a28:	2b00      	cmp	r3, #0
 8000a2a:	d04c      	beq.n	8000ac6 <__aeabi_fadd+0x2fe>
 8000a2c:	18ed      	adds	r5, r5, r3
 8000a2e:	016b      	lsls	r3, r5, #5
 8000a30:	d59e      	bpl.n	8000970 <__aeabi_fadd+0x1a8>
 8000a32:	4b31      	ldr	r3, [pc, #196]	; (8000af8 <__aeabi_fadd+0x330>)
 8000a34:	3607      	adds	r6, #7
 8000a36:	402e      	ands	r6, r5
 8000a38:	2401      	movs	r4, #1
 8000a3a:	401d      	ands	r5, r3
 8000a3c:	e754      	b.n	80008e8 <__aeabi_fadd+0x120>
 8000a3e:	2301      	movs	r3, #1
 8000a40:	e718      	b.n	8000874 <__aeabi_fadd+0xac>
 8000a42:	28ff      	cmp	r0, #255	; 0xff
 8000a44:	d0df      	beq.n	8000a06 <__aeabi_fadd+0x23e>
 8000a46:	2480      	movs	r4, #128	; 0x80
 8000a48:	04e4      	lsls	r4, r4, #19
 8000a4a:	427f      	negs	r7, r7
 8000a4c:	4325      	orrs	r5, r4
 8000a4e:	2f1b      	cmp	r7, #27
 8000a50:	dc4d      	bgt.n	8000aee <__aeabi_fadd+0x326>
 8000a52:	2620      	movs	r6, #32
 8000a54:	1bf6      	subs	r6, r6, r7
 8000a56:	002c      	movs	r4, r5
 8000a58:	40b5      	lsls	r5, r6
 8000a5a:	40fc      	lsrs	r4, r7
 8000a5c:	1e6a      	subs	r2, r5, #1
 8000a5e:	4195      	sbcs	r5, r2
 8000a60:	4325      	orrs	r5, r4
 8000a62:	18ed      	adds	r5, r5, r3
 8000a64:	0004      	movs	r4, r0
 8000a66:	e706      	b.n	8000876 <__aeabi_fadd+0xae>
 8000a68:	2d00      	cmp	r5, #0
 8000a6a:	d0cc      	beq.n	8000a06 <__aeabi_fadd+0x23e>
 8000a6c:	2b00      	cmp	r3, #0
 8000a6e:	d100      	bne.n	8000a72 <__aeabi_fadd+0x2aa>
 8000a70:	e753      	b.n	800091a <__aeabi_fadd+0x152>
 8000a72:	2180      	movs	r1, #128	; 0x80
 8000a74:	4660      	mov	r0, ip
 8000a76:	03c9      	lsls	r1, r1, #15
 8000a78:	4208      	tst	r0, r1
 8000a7a:	d003      	beq.n	8000a84 <__aeabi_fadd+0x2bc>
 8000a7c:	4640      	mov	r0, r8
 8000a7e:	4208      	tst	r0, r1
 8000a80:	d100      	bne.n	8000a84 <__aeabi_fadd+0x2bc>
 8000a82:	001d      	movs	r5, r3
 8000a84:	2101      	movs	r1, #1
 8000a86:	4011      	ands	r1, r2
 8000a88:	e747      	b.n	800091a <__aeabi_fadd+0x152>
 8000a8a:	2b00      	cmp	r3, #0
 8000a8c:	d100      	bne.n	8000a90 <__aeabi_fadd+0x2c8>
 8000a8e:	e6b9      	b.n	8000804 <__aeabi_fadd+0x3c>
 8000a90:	1aea      	subs	r2, r5, r3
 8000a92:	0150      	lsls	r0, r2, #5
 8000a94:	d525      	bpl.n	8000ae2 <__aeabi_fadd+0x31a>
 8000a96:	2607      	movs	r6, #7
 8000a98:	1b5d      	subs	r5, r3, r5
 8000a9a:	402e      	ands	r6, r5
 8000a9c:	4689      	mov	r9, r1
 8000a9e:	e723      	b.n	80008e8 <__aeabi_fadd+0x120>
 8000aa0:	24ff      	movs	r4, #255	; 0xff
 8000aa2:	2b00      	cmp	r3, #0
 8000aa4:	d100      	bne.n	8000aa8 <__aeabi_fadd+0x2e0>
 8000aa6:	e6ad      	b.n	8000804 <__aeabi_fadd+0x3c>
 8000aa8:	2280      	movs	r2, #128	; 0x80
 8000aaa:	4660      	mov	r0, ip
 8000aac:	03d2      	lsls	r2, r2, #15
 8000aae:	4210      	tst	r0, r2
 8000ab0:	d004      	beq.n	8000abc <__aeabi_fadd+0x2f4>
 8000ab2:	4640      	mov	r0, r8
 8000ab4:	4210      	tst	r0, r2
 8000ab6:	d101      	bne.n	8000abc <__aeabi_fadd+0x2f4>
 8000ab8:	001d      	movs	r5, r3
 8000aba:	4689      	mov	r9, r1
 8000abc:	2201      	movs	r2, #1
 8000abe:	464b      	mov	r3, r9
 8000ac0:	24ff      	movs	r4, #255	; 0xff
 8000ac2:	401a      	ands	r2, r3
 8000ac4:	e69e      	b.n	8000804 <__aeabi_fadd+0x3c>
 8000ac6:	002b      	movs	r3, r5
 8000ac8:	08dd      	lsrs	r5, r3, #3
 8000aca:	000a      	movs	r2, r1
 8000acc:	2400      	movs	r4, #0
 8000ace:	e69d      	b.n	800080c <__aeabi_fadd+0x44>
 8000ad0:	1c7a      	adds	r2, r7, #1
 8000ad2:	d0c6      	beq.n	8000a62 <__aeabi_fadd+0x29a>
 8000ad4:	43ff      	mvns	r7, r7
 8000ad6:	28ff      	cmp	r0, #255	; 0xff
 8000ad8:	d1b9      	bne.n	8000a4e <__aeabi_fadd+0x286>
 8000ada:	001d      	movs	r5, r3
 8000adc:	e71d      	b.n	800091a <__aeabi_fadd+0x152>
 8000ade:	2501      	movs	r5, #1
 8000ae0:	e73f      	b.n	8000962 <__aeabi_fadd+0x19a>
 8000ae2:	1e15      	subs	r5, r2, #0
 8000ae4:	d000      	beq.n	8000ae8 <__aeabi_fadd+0x320>
 8000ae6:	e744      	b.n	8000972 <__aeabi_fadd+0x1aa>
 8000ae8:	2200      	movs	r2, #0
 8000aea:	2300      	movs	r3, #0
 8000aec:	e691      	b.n	8000812 <__aeabi_fadd+0x4a>
 8000aee:	2501      	movs	r5, #1
 8000af0:	e7b7      	b.n	8000a62 <__aeabi_fadd+0x29a>
 8000af2:	46c0      	nop			; (mov r8, r8)
 8000af4:	7dffffff 	.word	0x7dffffff
 8000af8:	fbffffff 	.word	0xfbffffff

08000afc <__aeabi_fdiv>:
 8000afc:	b5f8      	push	{r3, r4, r5, r6, r7, lr}
 8000afe:	4657      	mov	r7, sl
 8000b00:	464e      	mov	r6, r9
 8000b02:	4645      	mov	r5, r8
 8000b04:	46de      	mov	lr, fp
 8000b06:	0244      	lsls	r4, r0, #9
 8000b08:	b5e0      	push	{r5, r6, r7, lr}
 8000b0a:	0046      	lsls	r6, r0, #1
 8000b0c:	4688      	mov	r8, r1
 8000b0e:	0a64      	lsrs	r4, r4, #9
 8000b10:	0e36      	lsrs	r6, r6, #24
 8000b12:	0fc7      	lsrs	r7, r0, #31
 8000b14:	2e00      	cmp	r6, #0
 8000b16:	d063      	beq.n	8000be0 <__aeabi_fdiv+0xe4>
 8000b18:	2eff      	cmp	r6, #255	; 0xff
 8000b1a:	d024      	beq.n	8000b66 <__aeabi_fdiv+0x6a>
 8000b1c:	2380      	movs	r3, #128	; 0x80
 8000b1e:	00e4      	lsls	r4, r4, #3
 8000b20:	04db      	lsls	r3, r3, #19
 8000b22:	431c      	orrs	r4, r3
 8000b24:	2300      	movs	r3, #0
 8000b26:	4699      	mov	r9, r3
 8000b28:	469b      	mov	fp, r3
 8000b2a:	3e7f      	subs	r6, #127	; 0x7f
 8000b2c:	4643      	mov	r3, r8
 8000b2e:	4642      	mov	r2, r8
 8000b30:	025d      	lsls	r5, r3, #9
 8000b32:	0fd2      	lsrs	r2, r2, #31
 8000b34:	005b      	lsls	r3, r3, #1
 8000b36:	0a6d      	lsrs	r5, r5, #9
 8000b38:	0e1b      	lsrs	r3, r3, #24
 8000b3a:	4690      	mov	r8, r2
 8000b3c:	4692      	mov	sl, r2
 8000b3e:	d065      	beq.n	8000c0c <__aeabi_fdiv+0x110>
 8000b40:	2bff      	cmp	r3, #255	; 0xff
 8000b42:	d055      	beq.n	8000bf0 <__aeabi_fdiv+0xf4>
 8000b44:	2280      	movs	r2, #128	; 0x80
 8000b46:	2100      	movs	r1, #0
 8000b48:	00ed      	lsls	r5, r5, #3
 8000b4a:	04d2      	lsls	r2, r2, #19
 8000b4c:	3b7f      	subs	r3, #127	; 0x7f
 8000b4e:	4315      	orrs	r5, r2
 8000b50:	1af6      	subs	r6, r6, r3
 8000b52:	4643      	mov	r3, r8
 8000b54:	464a      	mov	r2, r9
 8000b56:	407b      	eors	r3, r7
 8000b58:	2a0f      	cmp	r2, #15
 8000b5a:	d900      	bls.n	8000b5e <__aeabi_fdiv+0x62>
 8000b5c:	e08d      	b.n	8000c7a <__aeabi_fdiv+0x17e>
 8000b5e:	486d      	ldr	r0, [pc, #436]	; (8000d14 <__aeabi_fdiv+0x218>)
 8000b60:	0092      	lsls	r2, r2, #2
 8000b62:	5882      	ldr	r2, [r0, r2]
 8000b64:	4697      	mov	pc, r2
 8000b66:	2c00      	cmp	r4, #0
 8000b68:	d154      	bne.n	8000c14 <__aeabi_fdiv+0x118>
 8000b6a:	2308      	movs	r3, #8
 8000b6c:	4699      	mov	r9, r3
 8000b6e:	3b06      	subs	r3, #6
 8000b70:	26ff      	movs	r6, #255	; 0xff
 8000b72:	469b      	mov	fp, r3
 8000b74:	e7da      	b.n	8000b2c <__aeabi_fdiv+0x30>
 8000b76:	2500      	movs	r5, #0
 8000b78:	4653      	mov	r3, sl
 8000b7a:	2902      	cmp	r1, #2
 8000b7c:	d01b      	beq.n	8000bb6 <__aeabi_fdiv+0xba>
 8000b7e:	2903      	cmp	r1, #3
 8000b80:	d100      	bne.n	8000b84 <__aeabi_fdiv+0x88>
 8000b82:	e0bf      	b.n	8000d04 <__aeabi_fdiv+0x208>
 8000b84:	2901      	cmp	r1, #1
 8000b86:	d028      	beq.n	8000bda <__aeabi_fdiv+0xde>
 8000b88:	0030      	movs	r0, r6
 8000b8a:	307f      	adds	r0, #127	; 0x7f
 8000b8c:	2800      	cmp	r0, #0
 8000b8e:	dd20      	ble.n	8000bd2 <__aeabi_fdiv+0xd6>
 8000b90:	076a      	lsls	r2, r5, #29
 8000b92:	d004      	beq.n	8000b9e <__aeabi_fdiv+0xa2>
 8000b94:	220f      	movs	r2, #15
 8000b96:	402a      	ands	r2, r5
 8000b98:	2a04      	cmp	r2, #4
 8000b9a:	d000      	beq.n	8000b9e <__aeabi_fdiv+0xa2>
 8000b9c:	3504      	adds	r5, #4
 8000b9e:	012a      	lsls	r2, r5, #4
 8000ba0:	d503      	bpl.n	8000baa <__aeabi_fdiv+0xae>
 8000ba2:	0030      	movs	r0, r6
 8000ba4:	4a5c      	ldr	r2, [pc, #368]	; (8000d18 <__aeabi_fdiv+0x21c>)
 8000ba6:	3080      	adds	r0, #128	; 0x80
 8000ba8:	4015      	ands	r5, r2
 8000baa:	28fe      	cmp	r0, #254	; 0xfe
 8000bac:	dc03      	bgt.n	8000bb6 <__aeabi_fdiv+0xba>
 8000bae:	01ac      	lsls	r4, r5, #6
 8000bb0:	0a64      	lsrs	r4, r4, #9
 8000bb2:	b2c2      	uxtb	r2, r0
 8000bb4:	e001      	b.n	8000bba <__aeabi_fdiv+0xbe>
 8000bb6:	22ff      	movs	r2, #255	; 0xff
 8000bb8:	2400      	movs	r4, #0
 8000bba:	0264      	lsls	r4, r4, #9
 8000bbc:	05d2      	lsls	r2, r2, #23
 8000bbe:	0a60      	lsrs	r0, r4, #9
 8000bc0:	07db      	lsls	r3, r3, #31
 8000bc2:	4310      	orrs	r0, r2
 8000bc4:	4318      	orrs	r0, r3
 8000bc6:	bc3c      	pop	{r2, r3, r4, r5}
 8000bc8:	4690      	mov	r8, r2
 8000bca:	4699      	mov	r9, r3
 8000bcc:	46a2      	mov	sl, r4
 8000bce:	46ab      	mov	fp, r5
 8000bd0:	bdf8      	pop	{r3, r4, r5, r6, r7, pc}
 8000bd2:	2201      	movs	r2, #1
 8000bd4:	1a10      	subs	r0, r2, r0
 8000bd6:	281b      	cmp	r0, #27
 8000bd8:	dd7c      	ble.n	8000cd4 <__aeabi_fdiv+0x1d8>
 8000bda:	2200      	movs	r2, #0
 8000bdc:	2400      	movs	r4, #0
 8000bde:	e7ec      	b.n	8000bba <__aeabi_fdiv+0xbe>
 8000be0:	2c00      	cmp	r4, #0
 8000be2:	d11d      	bne.n	8000c20 <__aeabi_fdiv+0x124>
 8000be4:	2304      	movs	r3, #4
 8000be6:	4699      	mov	r9, r3
 8000be8:	3b03      	subs	r3, #3
 8000bea:	2600      	movs	r6, #0
 8000bec:	469b      	mov	fp, r3
 8000bee:	e79d      	b.n	8000b2c <__aeabi_fdiv+0x30>
 8000bf0:	3eff      	subs	r6, #255	; 0xff
 8000bf2:	2d00      	cmp	r5, #0
 8000bf4:	d120      	bne.n	8000c38 <__aeabi_fdiv+0x13c>
 8000bf6:	2102      	movs	r1, #2
 8000bf8:	4643      	mov	r3, r8
 8000bfa:	464a      	mov	r2, r9
 8000bfc:	407b      	eors	r3, r7
 8000bfe:	430a      	orrs	r2, r1
 8000c00:	2a0f      	cmp	r2, #15
 8000c02:	d8d8      	bhi.n	8000bb6 <__aeabi_fdiv+0xba>
 8000c04:	4845      	ldr	r0, [pc, #276]	; (8000d1c <__aeabi_fdiv+0x220>)
 8000c06:	0092      	lsls	r2, r2, #2
 8000c08:	5882      	ldr	r2, [r0, r2]
 8000c0a:	4697      	mov	pc, r2
 8000c0c:	2d00      	cmp	r5, #0
 8000c0e:	d119      	bne.n	8000c44 <__aeabi_fdiv+0x148>
 8000c10:	2101      	movs	r1, #1
 8000c12:	e7f1      	b.n	8000bf8 <__aeabi_fdiv+0xfc>
 8000c14:	230c      	movs	r3, #12
 8000c16:	4699      	mov	r9, r3
 8000c18:	3b09      	subs	r3, #9
 8000c1a:	26ff      	movs	r6, #255	; 0xff
 8000c1c:	469b      	mov	fp, r3
 8000c1e:	e785      	b.n	8000b2c <__aeabi_fdiv+0x30>
 8000c20:	0020      	movs	r0, r4
 8000c22:	f002 fb57 	bl	80032d4 <__clzsi2>
 8000c26:	2676      	movs	r6, #118	; 0x76
 8000c28:	1f43      	subs	r3, r0, #5
 8000c2a:	409c      	lsls	r4, r3
 8000c2c:	2300      	movs	r3, #0
 8000c2e:	4276      	negs	r6, r6
 8000c30:	1a36      	subs	r6, r6, r0
 8000c32:	4699      	mov	r9, r3
 8000c34:	469b      	mov	fp, r3
 8000c36:	e779      	b.n	8000b2c <__aeabi_fdiv+0x30>
 8000c38:	464a      	mov	r2, r9
 8000c3a:	2303      	movs	r3, #3
 8000c3c:	431a      	orrs	r2, r3
 8000c3e:	4691      	mov	r9, r2
 8000c40:	2103      	movs	r1, #3
 8000c42:	e786      	b.n	8000b52 <__aeabi_fdiv+0x56>
 8000c44:	0028      	movs	r0, r5
 8000c46:	f002 fb45 	bl	80032d4 <__clzsi2>
 8000c4a:	1f43      	subs	r3, r0, #5
 8000c4c:	1836      	adds	r6, r6, r0
 8000c4e:	409d      	lsls	r5, r3
 8000c50:	3676      	adds	r6, #118	; 0x76
 8000c52:	2100      	movs	r1, #0
 8000c54:	e77d      	b.n	8000b52 <__aeabi_fdiv+0x56>
 8000c56:	2480      	movs	r4, #128	; 0x80
 8000c58:	2300      	movs	r3, #0
 8000c5a:	03e4      	lsls	r4, r4, #15
 8000c5c:	22ff      	movs	r2, #255	; 0xff
 8000c5e:	e7ac      	b.n	8000bba <__aeabi_fdiv+0xbe>
 8000c60:	2500      	movs	r5, #0
 8000c62:	2380      	movs	r3, #128	; 0x80
 8000c64:	03db      	lsls	r3, r3, #15
 8000c66:	421c      	tst	r4, r3
 8000c68:	d028      	beq.n	8000cbc <__aeabi_fdiv+0x1c0>
 8000c6a:	421d      	tst	r5, r3
 8000c6c:	d126      	bne.n	8000cbc <__aeabi_fdiv+0x1c0>
 8000c6e:	432b      	orrs	r3, r5
 8000c70:	025c      	lsls	r4, r3, #9
 8000c72:	0a64      	lsrs	r4, r4, #9
 8000c74:	4643      	mov	r3, r8
 8000c76:	22ff      	movs	r2, #255	; 0xff
 8000c78:	e79f      	b.n	8000bba <__aeabi_fdiv+0xbe>
 8000c7a:	0162      	lsls	r2, r4, #5
 8000c7c:	016c      	lsls	r4, r5, #5
 8000c7e:	42a2      	cmp	r2, r4
 8000c80:	d224      	bcs.n	8000ccc <__aeabi_fdiv+0x1d0>
 8000c82:	211b      	movs	r1, #27
 8000c84:	2500      	movs	r5, #0
 8000c86:	3e01      	subs	r6, #1
 8000c88:	2701      	movs	r7, #1
 8000c8a:	0010      	movs	r0, r2
 8000c8c:	006d      	lsls	r5, r5, #1
 8000c8e:	0052      	lsls	r2, r2, #1
 8000c90:	2800      	cmp	r0, #0
 8000c92:	db01      	blt.n	8000c98 <__aeabi_fdiv+0x19c>
 8000c94:	4294      	cmp	r4, r2
 8000c96:	d801      	bhi.n	8000c9c <__aeabi_fdiv+0x1a0>
 8000c98:	1b12      	subs	r2, r2, r4
 8000c9a:	433d      	orrs	r5, r7
 8000c9c:	3901      	subs	r1, #1
 8000c9e:	2900      	cmp	r1, #0
 8000ca0:	d1f3      	bne.n	8000c8a <__aeabi_fdiv+0x18e>
 8000ca2:	0014      	movs	r4, r2
 8000ca4:	1e62      	subs	r2, r4, #1
 8000ca6:	4194      	sbcs	r4, r2
 8000ca8:	4325      	orrs	r5, r4
 8000caa:	e76d      	b.n	8000b88 <__aeabi_fdiv+0x8c>
 8000cac:	46ba      	mov	sl, r7
 8000cae:	4659      	mov	r1, fp
 8000cb0:	0025      	movs	r5, r4
 8000cb2:	4653      	mov	r3, sl
 8000cb4:	2902      	cmp	r1, #2
 8000cb6:	d000      	beq.n	8000cba <__aeabi_fdiv+0x1be>
 8000cb8:	e761      	b.n	8000b7e <__aeabi_fdiv+0x82>
 8000cba:	e77c      	b.n	8000bb6 <__aeabi_fdiv+0xba>
 8000cbc:	2380      	movs	r3, #128	; 0x80
 8000cbe:	03db      	lsls	r3, r3, #15
 8000cc0:	431c      	orrs	r4, r3
 8000cc2:	0264      	lsls	r4, r4, #9
 8000cc4:	0a64      	lsrs	r4, r4, #9
 8000cc6:	003b      	movs	r3, r7
 8000cc8:	22ff      	movs	r2, #255	; 0xff
 8000cca:	e776      	b.n	8000bba <__aeabi_fdiv+0xbe>
 8000ccc:	1b12      	subs	r2, r2, r4
 8000cce:	211a      	movs	r1, #26
 8000cd0:	2501      	movs	r5, #1
 8000cd2:	e7d9      	b.n	8000c88 <__aeabi_fdiv+0x18c>
 8000cd4:	369e      	adds	r6, #158	; 0x9e
 8000cd6:	002a      	movs	r2, r5
 8000cd8:	40b5      	lsls	r5, r6
 8000cda:	002c      	movs	r4, r5
 8000cdc:	40c2      	lsrs	r2, r0
 8000cde:	1e65      	subs	r5, r4, #1
 8000ce0:	41ac      	sbcs	r4, r5
 8000ce2:	4314      	orrs	r4, r2
 8000ce4:	0762      	lsls	r2, r4, #29
 8000ce6:	d004      	beq.n	8000cf2 <__aeabi_fdiv+0x1f6>
 8000ce8:	220f      	movs	r2, #15
 8000cea:	4022      	ands	r2, r4
 8000cec:	2a04      	cmp	r2, #4
 8000cee:	d000      	beq.n	8000cf2 <__aeabi_fdiv+0x1f6>
 8000cf0:	3404      	adds	r4, #4
 8000cf2:	0162      	lsls	r2, r4, #5
 8000cf4:	d403      	bmi.n	8000cfe <__aeabi_fdiv+0x202>
 8000cf6:	01a4      	lsls	r4, r4, #6
 8000cf8:	0a64      	lsrs	r4, r4, #9
 8000cfa:	2200      	movs	r2, #0
 8000cfc:	e75d      	b.n	8000bba <__aeabi_fdiv+0xbe>
 8000cfe:	2201      	movs	r2, #1
 8000d00:	2400      	movs	r4, #0
 8000d02:	e75a      	b.n	8000bba <__aeabi_fdiv+0xbe>
 8000d04:	2480      	movs	r4, #128	; 0x80
 8000d06:	03e4      	lsls	r4, r4, #15
 8000d08:	432c      	orrs	r4, r5
 8000d0a:	0264      	lsls	r4, r4, #9
 8000d0c:	0a64      	lsrs	r4, r4, #9
 8000d0e:	22ff      	movs	r2, #255	; 0xff
 8000d10:	e753      	b.n	8000bba <__aeabi_fdiv+0xbe>
 8000d12:	46c0      	nop			; (mov r8, r8)
 8000d14:	0801a804 	.word	0x0801a804
 8000d18:	f7ffffff 	.word	0xf7ffffff
 8000d1c:	0801a844 	.word	0x0801a844

08000d20 <__eqsf2>:
 8000d20:	b570      	push	{r4, r5, r6, lr}
 8000d22:	0042      	lsls	r2, r0, #1
 8000d24:	024e      	lsls	r6, r1, #9
 8000d26:	004c      	lsls	r4, r1, #1
 8000d28:	0245      	lsls	r5, r0, #9
 8000d2a:	0a6d      	lsrs	r5, r5, #9
 8000d2c:	0e12      	lsrs	r2, r2, #24
 8000d2e:	0fc3      	lsrs	r3, r0, #31
 8000d30:	0a76      	lsrs	r6, r6, #9
 8000d32:	0e24      	lsrs	r4, r4, #24
 8000d34:	0fc9      	lsrs	r1, r1, #31
 8000d36:	2aff      	cmp	r2, #255	; 0xff
 8000d38:	d00f      	beq.n	8000d5a <__eqsf2+0x3a>
 8000d3a:	2cff      	cmp	r4, #255	; 0xff
 8000d3c:	d011      	beq.n	8000d62 <__eqsf2+0x42>
 8000d3e:	2001      	movs	r0, #1
 8000d40:	42a2      	cmp	r2, r4
 8000d42:	d000      	beq.n	8000d46 <__eqsf2+0x26>
 8000d44:	bd70      	pop	{r4, r5, r6, pc}
 8000d46:	42b5      	cmp	r5, r6
 8000d48:	d1fc      	bne.n	8000d44 <__eqsf2+0x24>
 8000d4a:	428b      	cmp	r3, r1
 8000d4c:	d00d      	beq.n	8000d6a <__eqsf2+0x4a>
 8000d4e:	2a00      	cmp	r2, #0
 8000d50:	d1f8      	bne.n	8000d44 <__eqsf2+0x24>
 8000d52:	0028      	movs	r0, r5
 8000d54:	1e45      	subs	r5, r0, #1
 8000d56:	41a8      	sbcs	r0, r5
 8000d58:	e7f4      	b.n	8000d44 <__eqsf2+0x24>
 8000d5a:	2001      	movs	r0, #1
 8000d5c:	2d00      	cmp	r5, #0
 8000d5e:	d1f1      	bne.n	8000d44 <__eqsf2+0x24>
 8000d60:	e7eb      	b.n	8000d3a <__eqsf2+0x1a>
 8000d62:	2001      	movs	r0, #1
 8000d64:	2e00      	cmp	r6, #0
 8000d66:	d1ed      	bne.n	8000d44 <__eqsf2+0x24>
 8000d68:	e7e9      	b.n	8000d3e <__eqsf2+0x1e>
 8000d6a:	2000      	movs	r0, #0
 8000d6c:	e7ea      	b.n	8000d44 <__eqsf2+0x24>
 8000d6e:	46c0      	nop			; (mov r8, r8)

08000d70 <__gesf2>:
 8000d70:	b570      	push	{r4, r5, r6, lr}
 8000d72:	004a      	lsls	r2, r1, #1
 8000d74:	024e      	lsls	r6, r1, #9
 8000d76:	0245      	lsls	r5, r0, #9
 8000d78:	0044      	lsls	r4, r0, #1
 8000d7a:	0a6d      	lsrs	r5, r5, #9
 8000d7c:	0e24      	lsrs	r4, r4, #24
 8000d7e:	0fc3      	lsrs	r3, r0, #31
 8000d80:	0a76      	lsrs	r6, r6, #9
 8000d82:	0e12      	lsrs	r2, r2, #24
 8000d84:	0fc9      	lsrs	r1, r1, #31
 8000d86:	2cff      	cmp	r4, #255	; 0xff
 8000d88:	d015      	beq.n	8000db6 <__gesf2+0x46>
 8000d8a:	2aff      	cmp	r2, #255	; 0xff
 8000d8c:	d00e      	beq.n	8000dac <__gesf2+0x3c>
 8000d8e:	2c00      	cmp	r4, #0
 8000d90:	d115      	bne.n	8000dbe <__gesf2+0x4e>
 8000d92:	2a00      	cmp	r2, #0
 8000d94:	d101      	bne.n	8000d9a <__gesf2+0x2a>
 8000d96:	2e00      	cmp	r6, #0
 8000d98:	d01c      	beq.n	8000dd4 <__gesf2+0x64>
 8000d9a:	2d00      	cmp	r5, #0
 8000d9c:	d014      	beq.n	8000dc8 <__gesf2+0x58>
 8000d9e:	428b      	cmp	r3, r1
 8000da0:	d027      	beq.n	8000df2 <__gesf2+0x82>
 8000da2:	2002      	movs	r0, #2
 8000da4:	3b01      	subs	r3, #1
 8000da6:	4018      	ands	r0, r3
 8000da8:	3801      	subs	r0, #1
 8000daa:	bd70      	pop	{r4, r5, r6, pc}
 8000dac:	2e00      	cmp	r6, #0
 8000dae:	d0ee      	beq.n	8000d8e <__gesf2+0x1e>
 8000db0:	2002      	movs	r0, #2
 8000db2:	4240      	negs	r0, r0
 8000db4:	e7f9      	b.n	8000daa <__gesf2+0x3a>
 8000db6:	2d00      	cmp	r5, #0
 8000db8:	d1fa      	bne.n	8000db0 <__gesf2+0x40>
 8000dba:	2aff      	cmp	r2, #255	; 0xff
 8000dbc:	d00e      	beq.n	8000ddc <__gesf2+0x6c>
 8000dbe:	2a00      	cmp	r2, #0
 8000dc0:	d10e      	bne.n	8000de0 <__gesf2+0x70>
 8000dc2:	2e00      	cmp	r6, #0
 8000dc4:	d0ed      	beq.n	8000da2 <__gesf2+0x32>
 8000dc6:	e00b      	b.n	8000de0 <__gesf2+0x70>
 8000dc8:	2301      	movs	r3, #1
 8000dca:	3901      	subs	r1, #1
 8000dcc:	4399      	bics	r1, r3
 8000dce:	0008      	movs	r0, r1
 8000dd0:	3001      	adds	r0, #1
 8000dd2:	e7ea      	b.n	8000daa <__gesf2+0x3a>
 8000dd4:	2000      	movs	r0, #0
 8000dd6:	2d00      	cmp	r5, #0
 8000dd8:	d0e7      	beq.n	8000daa <__gesf2+0x3a>
 8000dda:	e7e2      	b.n	8000da2 <__gesf2+0x32>
 8000ddc:	2e00      	cmp	r6, #0
 8000dde:	d1e7      	bne.n	8000db0 <__gesf2+0x40>
 8000de0:	428b      	cmp	r3, r1
 8000de2:	d1de      	bne.n	8000da2 <__gesf2+0x32>
 8000de4:	4294      	cmp	r4, r2
 8000de6:	dd05      	ble.n	8000df4 <__gesf2+0x84>
 8000de8:	2102      	movs	r1, #2
 8000dea:	1e58      	subs	r0, r3, #1
 8000dec:	4008      	ands	r0, r1
 8000dee:	3801      	subs	r0, #1
 8000df0:	e7db      	b.n	8000daa <__gesf2+0x3a>
 8000df2:	2400      	movs	r4, #0
 8000df4:	42a2      	cmp	r2, r4
 8000df6:	dc04      	bgt.n	8000e02 <__gesf2+0x92>
 8000df8:	42b5      	cmp	r5, r6
 8000dfa:	d8d2      	bhi.n	8000da2 <__gesf2+0x32>
 8000dfc:	2000      	movs	r0, #0
 8000dfe:	42b5      	cmp	r5, r6
 8000e00:	d2d3      	bcs.n	8000daa <__gesf2+0x3a>
 8000e02:	1e58      	subs	r0, r3, #1
 8000e04:	2301      	movs	r3, #1
 8000e06:	4398      	bics	r0, r3
 8000e08:	3001      	adds	r0, #1
 8000e0a:	e7ce      	b.n	8000daa <__gesf2+0x3a>

08000e0c <__lesf2>:
 8000e0c:	b530      	push	{r4, r5, lr}
 8000e0e:	0042      	lsls	r2, r0, #1
 8000e10:	0244      	lsls	r4, r0, #9
 8000e12:	024d      	lsls	r5, r1, #9
 8000e14:	0fc3      	lsrs	r3, r0, #31
 8000e16:	0048      	lsls	r0, r1, #1
 8000e18:	0a64      	lsrs	r4, r4, #9
 8000e1a:	0e12      	lsrs	r2, r2, #24
 8000e1c:	0a6d      	lsrs	r5, r5, #9
 8000e1e:	0e00      	lsrs	r0, r0, #24
 8000e20:	0fc9      	lsrs	r1, r1, #31
 8000e22:	2aff      	cmp	r2, #255	; 0xff
 8000e24:	d012      	beq.n	8000e4c <__lesf2+0x40>
 8000e26:	28ff      	cmp	r0, #255	; 0xff
 8000e28:	d00c      	beq.n	8000e44 <__lesf2+0x38>
 8000e2a:	2a00      	cmp	r2, #0
 8000e2c:	d112      	bne.n	8000e54 <__lesf2+0x48>
 8000e2e:	2800      	cmp	r0, #0
 8000e30:	d119      	bne.n	8000e66 <__lesf2+0x5a>
 8000e32:	2d00      	cmp	r5, #0
 8000e34:	d117      	bne.n	8000e66 <__lesf2+0x5a>
 8000e36:	2c00      	cmp	r4, #0
 8000e38:	d02b      	beq.n	8000e92 <__lesf2+0x86>
 8000e3a:	2002      	movs	r0, #2
 8000e3c:	3b01      	subs	r3, #1
 8000e3e:	4018      	ands	r0, r3
 8000e40:	3801      	subs	r0, #1
 8000e42:	e026      	b.n	8000e92 <__lesf2+0x86>
 8000e44:	2d00      	cmp	r5, #0
 8000e46:	d0f0      	beq.n	8000e2a <__lesf2+0x1e>
 8000e48:	2002      	movs	r0, #2
 8000e4a:	e022      	b.n	8000e92 <__lesf2+0x86>
 8000e4c:	2c00      	cmp	r4, #0
 8000e4e:	d1fb      	bne.n	8000e48 <__lesf2+0x3c>
 8000e50:	28ff      	cmp	r0, #255	; 0xff
 8000e52:	d01f      	beq.n	8000e94 <__lesf2+0x88>
 8000e54:	2800      	cmp	r0, #0
 8000e56:	d11f      	bne.n	8000e98 <__lesf2+0x8c>
 8000e58:	2d00      	cmp	r5, #0
 8000e5a:	d11d      	bne.n	8000e98 <__lesf2+0x8c>
 8000e5c:	2002      	movs	r0, #2
 8000e5e:	3b01      	subs	r3, #1
 8000e60:	4018      	ands	r0, r3
 8000e62:	3801      	subs	r0, #1
 8000e64:	e015      	b.n	8000e92 <__lesf2+0x86>
 8000e66:	2c00      	cmp	r4, #0
 8000e68:	d00e      	beq.n	8000e88 <__lesf2+0x7c>
 8000e6a:	428b      	cmp	r3, r1
 8000e6c:	d1e5      	bne.n	8000e3a <__lesf2+0x2e>
 8000e6e:	2200      	movs	r2, #0
 8000e70:	4290      	cmp	r0, r2
 8000e72:	dc04      	bgt.n	8000e7e <__lesf2+0x72>
 8000e74:	42ac      	cmp	r4, r5
 8000e76:	d8e0      	bhi.n	8000e3a <__lesf2+0x2e>
 8000e78:	2000      	movs	r0, #0
 8000e7a:	42ac      	cmp	r4, r5
 8000e7c:	d209      	bcs.n	8000e92 <__lesf2+0x86>
 8000e7e:	1e58      	subs	r0, r3, #1
 8000e80:	2301      	movs	r3, #1
 8000e82:	4398      	bics	r0, r3
 8000e84:	3001      	adds	r0, #1
 8000e86:	e004      	b.n	8000e92 <__lesf2+0x86>
 8000e88:	2301      	movs	r3, #1
 8000e8a:	3901      	subs	r1, #1
 8000e8c:	4399      	bics	r1, r3
 8000e8e:	0008      	movs	r0, r1
 8000e90:	3001      	adds	r0, #1
 8000e92:	bd30      	pop	{r4, r5, pc}
 8000e94:	2d00      	cmp	r5, #0
 8000e96:	d1d7      	bne.n	8000e48 <__lesf2+0x3c>
 8000e98:	428b      	cmp	r3, r1
 8000e9a:	d1ce      	bne.n	8000e3a <__lesf2+0x2e>
 8000e9c:	4282      	cmp	r2, r0
 8000e9e:	dde7      	ble.n	8000e70 <__lesf2+0x64>
 8000ea0:	2102      	movs	r1, #2
 8000ea2:	1e58      	subs	r0, r3, #1
 8000ea4:	4008      	ands	r0, r1
 8000ea6:	3801      	subs	r0, #1
 8000ea8:	e7f3      	b.n	8000e92 <__lesf2+0x86>
 8000eaa:	46c0      	nop			; (mov r8, r8)

08000eac <__aeabi_fmul>:
 8000eac:	b5f0      	push	{r4, r5, r6, r7, lr}
 8000eae:	464e      	mov	r6, r9
 8000eb0:	4657      	mov	r7, sl
 8000eb2:	4645      	mov	r5, r8
 8000eb4:	46de      	mov	lr, fp
 8000eb6:	b5e0      	push	{r5, r6, r7, lr}
 8000eb8:	0243      	lsls	r3, r0, #9
 8000eba:	0a5b      	lsrs	r3, r3, #9
 8000ebc:	0045      	lsls	r5, r0, #1
 8000ebe:	b083      	sub	sp, #12
 8000ec0:	1c0f      	adds	r7, r1, #0
 8000ec2:	4699      	mov	r9, r3
 8000ec4:	0e2d      	lsrs	r5, r5, #24
 8000ec6:	0fc6      	lsrs	r6, r0, #31
 8000ec8:	2d00      	cmp	r5, #0
 8000eca:	d057      	beq.n	8000f7c <__aeabi_fmul+0xd0>
 8000ecc:	2dff      	cmp	r5, #255	; 0xff
 8000ece:	d024      	beq.n	8000f1a <__aeabi_fmul+0x6e>
 8000ed0:	2080      	movs	r0, #128	; 0x80
 8000ed2:	00db      	lsls	r3, r3, #3
 8000ed4:	04c0      	lsls	r0, r0, #19
 8000ed6:	4318      	orrs	r0, r3
 8000ed8:	2300      	movs	r3, #0
 8000eda:	4681      	mov	r9, r0
 8000edc:	469a      	mov	sl, r3
 8000ede:	469b      	mov	fp, r3
 8000ee0:	3d7f      	subs	r5, #127	; 0x7f
 8000ee2:	027c      	lsls	r4, r7, #9
 8000ee4:	007a      	lsls	r2, r7, #1
 8000ee6:	0ffb      	lsrs	r3, r7, #31
 8000ee8:	0a64      	lsrs	r4, r4, #9
 8000eea:	0e12      	lsrs	r2, r2, #24
 8000eec:	4698      	mov	r8, r3
 8000eee:	d023      	beq.n	8000f38 <__aeabi_fmul+0x8c>
 8000ef0:	2aff      	cmp	r2, #255	; 0xff
 8000ef2:	d04b      	beq.n	8000f8c <__aeabi_fmul+0xe0>
 8000ef4:	00e3      	lsls	r3, r4, #3
 8000ef6:	2480      	movs	r4, #128	; 0x80
 8000ef8:	2000      	movs	r0, #0
 8000efa:	04e4      	lsls	r4, r4, #19
 8000efc:	3a7f      	subs	r2, #127	; 0x7f
 8000efe:	431c      	orrs	r4, r3
 8000f00:	18ad      	adds	r5, r5, r2
 8000f02:	1c6b      	adds	r3, r5, #1
 8000f04:	4647      	mov	r7, r8
 8000f06:	9301      	str	r3, [sp, #4]
 8000f08:	4653      	mov	r3, sl
 8000f0a:	4077      	eors	r7, r6
 8000f0c:	003a      	movs	r2, r7
 8000f0e:	2b0f      	cmp	r3, #15
 8000f10:	d848      	bhi.n	8000fa4 <__aeabi_fmul+0xf8>
 8000f12:	497d      	ldr	r1, [pc, #500]	; (8001108 <__aeabi_fmul+0x25c>)
 8000f14:	009b      	lsls	r3, r3, #2
 8000f16:	58cb      	ldr	r3, [r1, r3]
 8000f18:	469f      	mov	pc, r3
 8000f1a:	2b00      	cmp	r3, #0
 8000f1c:	d000      	beq.n	8000f20 <__aeabi_fmul+0x74>
 8000f1e:	e085      	b.n	800102c <__aeabi_fmul+0x180>
 8000f20:	3308      	adds	r3, #8
 8000f22:	469a      	mov	sl, r3
 8000f24:	3b06      	subs	r3, #6
 8000f26:	469b      	mov	fp, r3
 8000f28:	027c      	lsls	r4, r7, #9
 8000f2a:	007a      	lsls	r2, r7, #1
 8000f2c:	0ffb      	lsrs	r3, r7, #31
 8000f2e:	25ff      	movs	r5, #255	; 0xff
 8000f30:	0a64      	lsrs	r4, r4, #9
 8000f32:	0e12      	lsrs	r2, r2, #24
 8000f34:	4698      	mov	r8, r3
 8000f36:	d1db      	bne.n	8000ef0 <__aeabi_fmul+0x44>
 8000f38:	2c00      	cmp	r4, #0
 8000f3a:	d000      	beq.n	8000f3e <__aeabi_fmul+0x92>
 8000f3c:	e090      	b.n	8001060 <__aeabi_fmul+0x1b4>
 8000f3e:	4652      	mov	r2, sl
 8000f40:	2301      	movs	r3, #1
 8000f42:	431a      	orrs	r2, r3
 8000f44:	4692      	mov	sl, r2
 8000f46:	2001      	movs	r0, #1
 8000f48:	e7db      	b.n	8000f02 <__aeabi_fmul+0x56>
 8000f4a:	464c      	mov	r4, r9
 8000f4c:	4658      	mov	r0, fp
 8000f4e:	0017      	movs	r7, r2
 8000f50:	2802      	cmp	r0, #2
 8000f52:	d024      	beq.n	8000f9e <__aeabi_fmul+0xf2>
 8000f54:	2803      	cmp	r0, #3
 8000f56:	d100      	bne.n	8000f5a <__aeabi_fmul+0xae>
 8000f58:	e0cf      	b.n	80010fa <__aeabi_fmul+0x24e>
 8000f5a:	2200      	movs	r2, #0
 8000f5c:	2300      	movs	r3, #0
 8000f5e:	2801      	cmp	r0, #1
 8000f60:	d14d      	bne.n	8000ffe <__aeabi_fmul+0x152>
 8000f62:	0258      	lsls	r0, r3, #9
 8000f64:	05d2      	lsls	r2, r2, #23
 8000f66:	0a40      	lsrs	r0, r0, #9
 8000f68:	07ff      	lsls	r7, r7, #31
 8000f6a:	4310      	orrs	r0, r2
 8000f6c:	4338      	orrs	r0, r7
 8000f6e:	b003      	add	sp, #12
 8000f70:	bc3c      	pop	{r2, r3, r4, r5}
 8000f72:	4690      	mov	r8, r2
 8000f74:	4699      	mov	r9, r3
 8000f76:	46a2      	mov	sl, r4
 8000f78:	46ab      	mov	fp, r5
 8000f7a:	bdf0      	pop	{r4, r5, r6, r7, pc}
 8000f7c:	2b00      	cmp	r3, #0
 8000f7e:	d15b      	bne.n	8001038 <__aeabi_fmul+0x18c>
 8000f80:	2304      	movs	r3, #4
 8000f82:	469a      	mov	sl, r3
 8000f84:	3b03      	subs	r3, #3
 8000f86:	2500      	movs	r5, #0
 8000f88:	469b      	mov	fp, r3
 8000f8a:	e7aa      	b.n	8000ee2 <__aeabi_fmul+0x36>
 8000f8c:	35ff      	adds	r5, #255	; 0xff
 8000f8e:	2c00      	cmp	r4, #0
 8000f90:	d160      	bne.n	8001054 <__aeabi_fmul+0x1a8>
 8000f92:	4652      	mov	r2, sl
 8000f94:	2302      	movs	r3, #2
 8000f96:	431a      	orrs	r2, r3
 8000f98:	4692      	mov	sl, r2
 8000f9a:	2002      	movs	r0, #2
 8000f9c:	e7b1      	b.n	8000f02 <__aeabi_fmul+0x56>
 8000f9e:	22ff      	movs	r2, #255	; 0xff
 8000fa0:	2300      	movs	r3, #0
 8000fa2:	e7de      	b.n	8000f62 <__aeabi_fmul+0xb6>
 8000fa4:	464b      	mov	r3, r9
 8000fa6:	0c1b      	lsrs	r3, r3, #16
 8000fa8:	469c      	mov	ip, r3
 8000faa:	464b      	mov	r3, r9
 8000fac:	0426      	lsls	r6, r4, #16
 8000fae:	0c36      	lsrs	r6, r6, #16
 8000fb0:	0418      	lsls	r0, r3, #16
 8000fb2:	4661      	mov	r1, ip
 8000fb4:	0033      	movs	r3, r6
 8000fb6:	0c22      	lsrs	r2, r4, #16
 8000fb8:	4664      	mov	r4, ip
 8000fba:	0c00      	lsrs	r0, r0, #16
 8000fbc:	4343      	muls	r3, r0
 8000fbe:	434e      	muls	r6, r1
 8000fc0:	4350      	muls	r0, r2
 8000fc2:	4354      	muls	r4, r2
 8000fc4:	1980      	adds	r0, r0, r6
 8000fc6:	0c1a      	lsrs	r2, r3, #16
 8000fc8:	1812      	adds	r2, r2, r0
 8000fca:	4296      	cmp	r6, r2
 8000fcc:	d903      	bls.n	8000fd6 <__aeabi_fmul+0x12a>
 8000fce:	2180      	movs	r1, #128	; 0x80
 8000fd0:	0249      	lsls	r1, r1, #9
 8000fd2:	468c      	mov	ip, r1
 8000fd4:	4464      	add	r4, ip
 8000fd6:	041b      	lsls	r3, r3, #16
 8000fd8:	0c1b      	lsrs	r3, r3, #16
 8000fda:	0410      	lsls	r0, r2, #16
 8000fdc:	18c0      	adds	r0, r0, r3
 8000fde:	0183      	lsls	r3, r0, #6
 8000fe0:	1e5e      	subs	r6, r3, #1
 8000fe2:	41b3      	sbcs	r3, r6
 8000fe4:	0e80      	lsrs	r0, r0, #26
 8000fe6:	4318      	orrs	r0, r3
 8000fe8:	0c13      	lsrs	r3, r2, #16
 8000fea:	191b      	adds	r3, r3, r4
 8000fec:	019b      	lsls	r3, r3, #6
 8000fee:	4303      	orrs	r3, r0
 8000ff0:	001c      	movs	r4, r3
 8000ff2:	0123      	lsls	r3, r4, #4
 8000ff4:	d579      	bpl.n	80010ea <__aeabi_fmul+0x23e>
 8000ff6:	2301      	movs	r3, #1
 8000ff8:	0862      	lsrs	r2, r4, #1
 8000ffa:	401c      	ands	r4, r3
 8000ffc:	4314      	orrs	r4, r2
 8000ffe:	9a01      	ldr	r2, [sp, #4]
 8001000:	327f      	adds	r2, #127	; 0x7f
 8001002:	2a00      	cmp	r2, #0
 8001004:	dd4d      	ble.n	80010a2 <__aeabi_fmul+0x1f6>
 8001006:	0763      	lsls	r3, r4, #29
 8001008:	d004      	beq.n	8001014 <__aeabi_fmul+0x168>
 800100a:	230f      	movs	r3, #15
 800100c:	4023      	ands	r3, r4
 800100e:	2b04      	cmp	r3, #4
 8001010:	d000      	beq.n	8001014 <__aeabi_fmul+0x168>
 8001012:	3404      	adds	r4, #4
 8001014:	0123      	lsls	r3, r4, #4
 8001016:	d503      	bpl.n	8001020 <__aeabi_fmul+0x174>
 8001018:	4b3c      	ldr	r3, [pc, #240]	; (800110c <__aeabi_fmul+0x260>)
 800101a:	9a01      	ldr	r2, [sp, #4]
 800101c:	401c      	ands	r4, r3
 800101e:	3280      	adds	r2, #128	; 0x80
 8001020:	2afe      	cmp	r2, #254	; 0xfe
 8001022:	dcbc      	bgt.n	8000f9e <__aeabi_fmul+0xf2>
 8001024:	01a3      	lsls	r3, r4, #6
 8001026:	0a5b      	lsrs	r3, r3, #9
 8001028:	b2d2      	uxtb	r2, r2
 800102a:	e79a      	b.n	8000f62 <__aeabi_fmul+0xb6>
 800102c:	230c      	movs	r3, #12
 800102e:	469a      	mov	sl, r3
 8001030:	3b09      	subs	r3, #9
 8001032:	25ff      	movs	r5, #255	; 0xff
 8001034:	469b      	mov	fp, r3
 8001036:	e754      	b.n	8000ee2 <__aeabi_fmul+0x36>
 8001038:	0018      	movs	r0, r3
 800103a:	f002 f94b 	bl	80032d4 <__clzsi2>
 800103e:	464a      	mov	r2, r9
 8001040:	1f43      	subs	r3, r0, #5
 8001042:	2576      	movs	r5, #118	; 0x76
 8001044:	409a      	lsls	r2, r3
 8001046:	2300      	movs	r3, #0
 8001048:	426d      	negs	r5, r5
 800104a:	4691      	mov	r9, r2
 800104c:	1a2d      	subs	r5, r5, r0
 800104e:	469a      	mov	sl, r3
 8001050:	469b      	mov	fp, r3
 8001052:	e746      	b.n	8000ee2 <__aeabi_fmul+0x36>
 8001054:	4652      	mov	r2, sl
 8001056:	2303      	movs	r3, #3
 8001058:	431a      	orrs	r2, r3
 800105a:	4692      	mov	sl, r2
 800105c:	2003      	movs	r0, #3
 800105e:	e750      	b.n	8000f02 <__aeabi_fmul+0x56>
 8001060:	0020      	movs	r0, r4
 8001062:	f002 f937 	bl	80032d4 <__clzsi2>
 8001066:	1f43      	subs	r3, r0, #5
 8001068:	1a2d      	subs	r5, r5, r0
 800106a:	409c      	lsls	r4, r3
 800106c:	3d76      	subs	r5, #118	; 0x76
 800106e:	2000      	movs	r0, #0
 8001070:	e747      	b.n	8000f02 <__aeabi_fmul+0x56>
 8001072:	2380      	movs	r3, #128	; 0x80
 8001074:	2700      	movs	r7, #0
 8001076:	03db      	lsls	r3, r3, #15
 8001078:	22ff      	movs	r2, #255	; 0xff
 800107a:	e772      	b.n	8000f62 <__aeabi_fmul+0xb6>
 800107c:	4642      	mov	r2, r8
 800107e:	e766      	b.n	8000f4e <__aeabi_fmul+0xa2>
 8001080:	464c      	mov	r4, r9
 8001082:	0032      	movs	r2, r6
 8001084:	4658      	mov	r0, fp
 8001086:	e762      	b.n	8000f4e <__aeabi_fmul+0xa2>
 8001088:	2380      	movs	r3, #128	; 0x80
 800108a:	464a      	mov	r2, r9
 800108c:	03db      	lsls	r3, r3, #15
 800108e:	421a      	tst	r2, r3
 8001090:	d022      	beq.n	80010d8 <__aeabi_fmul+0x22c>
 8001092:	421c      	tst	r4, r3
 8001094:	d120      	bne.n	80010d8 <__aeabi_fmul+0x22c>
 8001096:	4323      	orrs	r3, r4
 8001098:	025b      	lsls	r3, r3, #9
 800109a:	0a5b      	lsrs	r3, r3, #9
 800109c:	4647      	mov	r7, r8
 800109e:	22ff      	movs	r2, #255	; 0xff
 80010a0:	e75f      	b.n	8000f62 <__aeabi_fmul+0xb6>
 80010a2:	2301      	movs	r3, #1
 80010a4:	1a9a      	subs	r2, r3, r2
 80010a6:	2a1b      	cmp	r2, #27
 80010a8:	dc21      	bgt.n	80010ee <__aeabi_fmul+0x242>
 80010aa:	0023      	movs	r3, r4
 80010ac:	9901      	ldr	r1, [sp, #4]
 80010ae:	40d3      	lsrs	r3, r2
 80010b0:	319e      	adds	r1, #158	; 0x9e
 80010b2:	408c      	lsls	r4, r1
 80010b4:	001a      	movs	r2, r3
 80010b6:	0023      	movs	r3, r4
 80010b8:	1e5c      	subs	r4, r3, #1
 80010ba:	41a3      	sbcs	r3, r4
 80010bc:	4313      	orrs	r3, r2
 80010be:	075a      	lsls	r2, r3, #29
 80010c0:	d004      	beq.n	80010cc <__aeabi_fmul+0x220>
 80010c2:	220f      	movs	r2, #15
 80010c4:	401a      	ands	r2, r3
 80010c6:	2a04      	cmp	r2, #4
 80010c8:	d000      	beq.n	80010cc <__aeabi_fmul+0x220>
 80010ca:	3304      	adds	r3, #4
 80010cc:	015a      	lsls	r2, r3, #5
 80010ce:	d411      	bmi.n	80010f4 <__aeabi_fmul+0x248>
 80010d0:	019b      	lsls	r3, r3, #6
 80010d2:	0a5b      	lsrs	r3, r3, #9
 80010d4:	2200      	movs	r2, #0
 80010d6:	e744      	b.n	8000f62 <__aeabi_fmul+0xb6>
 80010d8:	2380      	movs	r3, #128	; 0x80
 80010da:	464a      	mov	r2, r9
 80010dc:	03db      	lsls	r3, r3, #15
 80010de:	4313      	orrs	r3, r2
 80010e0:	025b      	lsls	r3, r3, #9
 80010e2:	0a5b      	lsrs	r3, r3, #9
 80010e4:	0037      	movs	r7, r6
 80010e6:	22ff      	movs	r2, #255	; 0xff
 80010e8:	e73b      	b.n	8000f62 <__aeabi_fmul+0xb6>
 80010ea:	9501      	str	r5, [sp, #4]
 80010ec:	e787      	b.n	8000ffe <__aeabi_fmul+0x152>
 80010ee:	2200      	movs	r2, #0
 80010f0:	2300      	movs	r3, #0
 80010f2:	e736      	b.n	8000f62 <__aeabi_fmul+0xb6>
 80010f4:	2201      	movs	r2, #1
 80010f6:	2300      	movs	r3, #0
 80010f8:	e733      	b.n	8000f62 <__aeabi_fmul+0xb6>
 80010fa:	2380      	movs	r3, #128	; 0x80
 80010fc:	03db      	lsls	r3, r3, #15
 80010fe:	4323      	orrs	r3, r4
 8001100:	025b      	lsls	r3, r3, #9
 8001102:	0a5b      	lsrs	r3, r3, #9
 8001104:	22ff      	movs	r2, #255	; 0xff
 8001106:	e72c      	b.n	8000f62 <__aeabi_fmul+0xb6>
 8001108:	0801a884 	.word	0x0801a884
 800110c:	f7ffffff 	.word	0xf7ffffff

08001110 <__aeabi_fsub>:
 8001110:	b5f8      	push	{r3, r4, r5, r6, r7, lr}
 8001112:	4647      	mov	r7, r8
 8001114:	46ce      	mov	lr, r9
 8001116:	0044      	lsls	r4, r0, #1
 8001118:	0fc2      	lsrs	r2, r0, #31
 800111a:	b580      	push	{r7, lr}
 800111c:	0247      	lsls	r7, r0, #9
 800111e:	0248      	lsls	r0, r1, #9
 8001120:	0a40      	lsrs	r0, r0, #9
 8001122:	4684      	mov	ip, r0
 8001124:	4666      	mov	r6, ip
 8001126:	0048      	lsls	r0, r1, #1
 8001128:	0a7f      	lsrs	r7, r7, #9
 800112a:	0e24      	lsrs	r4, r4, #24
 800112c:	00f6      	lsls	r6, r6, #3
 800112e:	0025      	movs	r5, r4
 8001130:	4690      	mov	r8, r2
 8001132:	00fb      	lsls	r3, r7, #3
 8001134:	0e00      	lsrs	r0, r0, #24
 8001136:	0fc9      	lsrs	r1, r1, #31
 8001138:	46b1      	mov	r9, r6
 800113a:	28ff      	cmp	r0, #255	; 0xff
 800113c:	d100      	bne.n	8001140 <__aeabi_fsub+0x30>
 800113e:	e085      	b.n	800124c <__aeabi_fsub+0x13c>
 8001140:	2601      	movs	r6, #1
 8001142:	4071      	eors	r1, r6
 8001144:	1a26      	subs	r6, r4, r0
 8001146:	4291      	cmp	r1, r2
 8001148:	d057      	beq.n	80011fa <__aeabi_fsub+0xea>
 800114a:	2e00      	cmp	r6, #0
 800114c:	dd43      	ble.n	80011d6 <__aeabi_fsub+0xc6>
 800114e:	2800      	cmp	r0, #0
 8001150:	d000      	beq.n	8001154 <__aeabi_fsub+0x44>
 8001152:	e07f      	b.n	8001254 <__aeabi_fsub+0x144>
 8001154:	4649      	mov	r1, r9
 8001156:	2900      	cmp	r1, #0
 8001158:	d100      	bne.n	800115c <__aeabi_fsub+0x4c>
 800115a:	e0aa      	b.n	80012b2 <__aeabi_fsub+0x1a2>
 800115c:	3e01      	subs	r6, #1
 800115e:	2e00      	cmp	r6, #0
 8001160:	d000      	beq.n	8001164 <__aeabi_fsub+0x54>
 8001162:	e0f7      	b.n	8001354 <__aeabi_fsub+0x244>
 8001164:	1a5b      	subs	r3, r3, r1
 8001166:	015a      	lsls	r2, r3, #5
 8001168:	d400      	bmi.n	800116c <__aeabi_fsub+0x5c>
 800116a:	e08b      	b.n	8001284 <__aeabi_fsub+0x174>
 800116c:	019b      	lsls	r3, r3, #6
 800116e:	099c      	lsrs	r4, r3, #6
 8001170:	0020      	movs	r0, r4
 8001172:	f002 f8af 	bl	80032d4 <__clzsi2>
 8001176:	3805      	subs	r0, #5
 8001178:	4084      	lsls	r4, r0
 800117a:	4285      	cmp	r5, r0
 800117c:	dd00      	ble.n	8001180 <__aeabi_fsub+0x70>
 800117e:	e0d3      	b.n	8001328 <__aeabi_fsub+0x218>
 8001180:	1b45      	subs	r5, r0, r5
 8001182:	0023      	movs	r3, r4
 8001184:	2020      	movs	r0, #32
 8001186:	3501      	adds	r5, #1
 8001188:	40eb      	lsrs	r3, r5
 800118a:	1b45      	subs	r5, r0, r5
 800118c:	40ac      	lsls	r4, r5
 800118e:	1e62      	subs	r2, r4, #1
 8001190:	4194      	sbcs	r4, r2
 8001192:	4323      	orrs	r3, r4
 8001194:	2407      	movs	r4, #7
 8001196:	2500      	movs	r5, #0
 8001198:	401c      	ands	r4, r3
 800119a:	2201      	movs	r2, #1
 800119c:	4641      	mov	r1, r8
 800119e:	400a      	ands	r2, r1
 80011a0:	2c00      	cmp	r4, #0
 80011a2:	d004      	beq.n	80011ae <__aeabi_fsub+0x9e>
 80011a4:	210f      	movs	r1, #15
 80011a6:	4019      	ands	r1, r3
 80011a8:	2904      	cmp	r1, #4
 80011aa:	d000      	beq.n	80011ae <__aeabi_fsub+0x9e>
 80011ac:	3304      	adds	r3, #4
 80011ae:	0159      	lsls	r1, r3, #5
 80011b0:	d400      	bmi.n	80011b4 <__aeabi_fsub+0xa4>
 80011b2:	e080      	b.n	80012b6 <__aeabi_fsub+0x1a6>
 80011b4:	3501      	adds	r5, #1
 80011b6:	b2ec      	uxtb	r4, r5
 80011b8:	2dff      	cmp	r5, #255	; 0xff
 80011ba:	d000      	beq.n	80011be <__aeabi_fsub+0xae>
 80011bc:	e0a3      	b.n	8001306 <__aeabi_fsub+0x1f6>
 80011be:	24ff      	movs	r4, #255	; 0xff
 80011c0:	2300      	movs	r3, #0
 80011c2:	025b      	lsls	r3, r3, #9
 80011c4:	05e4      	lsls	r4, r4, #23
 80011c6:	0a58      	lsrs	r0, r3, #9
 80011c8:	07d2      	lsls	r2, r2, #31
 80011ca:	4320      	orrs	r0, r4
 80011cc:	4310      	orrs	r0, r2
 80011ce:	bc0c      	pop	{r2, r3}
 80011d0:	4690      	mov	r8, r2
 80011d2:	4699      	mov	r9, r3
 80011d4:	bdf8      	pop	{r3, r4, r5, r6, r7, pc}
 80011d6:	2e00      	cmp	r6, #0
 80011d8:	d174      	bne.n	80012c4 <__aeabi_fsub+0x1b4>
 80011da:	1c60      	adds	r0, r4, #1
 80011dc:	b2c0      	uxtb	r0, r0
 80011de:	2801      	cmp	r0, #1
 80011e0:	dc00      	bgt.n	80011e4 <__aeabi_fsub+0xd4>
 80011e2:	e0a7      	b.n	8001334 <__aeabi_fsub+0x224>
 80011e4:	464a      	mov	r2, r9
 80011e6:	1a9c      	subs	r4, r3, r2
 80011e8:	0162      	lsls	r2, r4, #5
 80011ea:	d500      	bpl.n	80011ee <__aeabi_fsub+0xde>
 80011ec:	e0b6      	b.n	800135c <__aeabi_fsub+0x24c>
 80011ee:	2c00      	cmp	r4, #0
 80011f0:	d1be      	bne.n	8001170 <__aeabi_fsub+0x60>
 80011f2:	2200      	movs	r2, #0
 80011f4:	2400      	movs	r4, #0
 80011f6:	2300      	movs	r3, #0
 80011f8:	e7e3      	b.n	80011c2 <__aeabi_fsub+0xb2>
 80011fa:	2e00      	cmp	r6, #0
 80011fc:	dc00      	bgt.n	8001200 <__aeabi_fsub+0xf0>
 80011fe:	e085      	b.n	800130c <__aeabi_fsub+0x1fc>
 8001200:	2800      	cmp	r0, #0
 8001202:	d046      	beq.n	8001292 <__aeabi_fsub+0x182>
 8001204:	2cff      	cmp	r4, #255	; 0xff
 8001206:	d049      	beq.n	800129c <__aeabi_fsub+0x18c>
 8001208:	2280      	movs	r2, #128	; 0x80
 800120a:	4648      	mov	r0, r9
 800120c:	04d2      	lsls	r2, r2, #19
 800120e:	4310      	orrs	r0, r2
 8001210:	4681      	mov	r9, r0
 8001212:	2201      	movs	r2, #1
 8001214:	2e1b      	cmp	r6, #27
 8001216:	dc09      	bgt.n	800122c <__aeabi_fsub+0x11c>
 8001218:	2020      	movs	r0, #32
 800121a:	464c      	mov	r4, r9
 800121c:	1b80      	subs	r0, r0, r6
 800121e:	4084      	lsls	r4, r0
 8001220:	464a      	mov	r2, r9
 8001222:	0020      	movs	r0, r4
 8001224:	40f2      	lsrs	r2, r6
 8001226:	1e44      	subs	r4, r0, #1
 8001228:	41a0      	sbcs	r0, r4
 800122a:	4302      	orrs	r2, r0
 800122c:	189b      	adds	r3, r3, r2
 800122e:	015a      	lsls	r2, r3, #5
 8001230:	d528      	bpl.n	8001284 <__aeabi_fsub+0x174>
 8001232:	3501      	adds	r5, #1
 8001234:	2dff      	cmp	r5, #255	; 0xff
 8001236:	d100      	bne.n	800123a <__aeabi_fsub+0x12a>
 8001238:	e0a8      	b.n	800138c <__aeabi_fsub+0x27c>
 800123a:	2201      	movs	r2, #1
 800123c:	2407      	movs	r4, #7
 800123e:	4994      	ldr	r1, [pc, #592]	; (8001490 <__aeabi_fsub+0x380>)
 8001240:	401a      	ands	r2, r3
 8001242:	085b      	lsrs	r3, r3, #1
 8001244:	400b      	ands	r3, r1
 8001246:	4313      	orrs	r3, r2
 8001248:	401c      	ands	r4, r3
 800124a:	e7a6      	b.n	800119a <__aeabi_fsub+0x8a>
 800124c:	2e00      	cmp	r6, #0
 800124e:	d000      	beq.n	8001252 <__aeabi_fsub+0x142>
 8001250:	e778      	b.n	8001144 <__aeabi_fsub+0x34>
 8001252:	e775      	b.n	8001140 <__aeabi_fsub+0x30>
 8001254:	2cff      	cmp	r4, #255	; 0xff
 8001256:	d054      	beq.n	8001302 <__aeabi_fsub+0x1f2>
 8001258:	2280      	movs	r2, #128	; 0x80
 800125a:	4649      	mov	r1, r9
 800125c:	04d2      	lsls	r2, r2, #19
 800125e:	4311      	orrs	r1, r2
 8001260:	4689      	mov	r9, r1
 8001262:	2201      	movs	r2, #1
 8001264:	2e1b      	cmp	r6, #27
 8001266:	dc09      	bgt.n	800127c <__aeabi_fsub+0x16c>
 8001268:	2120      	movs	r1, #32
 800126a:	4648      	mov	r0, r9
 800126c:	1b89      	subs	r1, r1, r6
 800126e:	4088      	lsls	r0, r1
 8001270:	464a      	mov	r2, r9
 8001272:	0001      	movs	r1, r0
 8001274:	40f2      	lsrs	r2, r6
 8001276:	1e48      	subs	r0, r1, #1
 8001278:	4181      	sbcs	r1, r0
 800127a:	430a      	orrs	r2, r1
 800127c:	1a9b      	subs	r3, r3, r2
 800127e:	015a      	lsls	r2, r3, #5
 8001280:	d500      	bpl.n	8001284 <__aeabi_fsub+0x174>
 8001282:	e773      	b.n	800116c <__aeabi_fsub+0x5c>
 8001284:	2201      	movs	r2, #1
 8001286:	4641      	mov	r1, r8
 8001288:	400a      	ands	r2, r1
 800128a:	0759      	lsls	r1, r3, #29
 800128c:	d000      	beq.n	8001290 <__aeabi_fsub+0x180>
 800128e:	e789      	b.n	80011a4 <__aeabi_fsub+0x94>
 8001290:	e011      	b.n	80012b6 <__aeabi_fsub+0x1a6>
 8001292:	4648      	mov	r0, r9
 8001294:	2800      	cmp	r0, #0
 8001296:	d158      	bne.n	800134a <__aeabi_fsub+0x23a>
 8001298:	2cff      	cmp	r4, #255	; 0xff
 800129a:	d10c      	bne.n	80012b6 <__aeabi_fsub+0x1a6>
 800129c:	08db      	lsrs	r3, r3, #3
 800129e:	2b00      	cmp	r3, #0
 80012a0:	d100      	bne.n	80012a4 <__aeabi_fsub+0x194>
 80012a2:	e78c      	b.n	80011be <__aeabi_fsub+0xae>
 80012a4:	2080      	movs	r0, #128	; 0x80
 80012a6:	03c0      	lsls	r0, r0, #15
 80012a8:	4303      	orrs	r3, r0
 80012aa:	025b      	lsls	r3, r3, #9
 80012ac:	0a5b      	lsrs	r3, r3, #9
 80012ae:	24ff      	movs	r4, #255	; 0xff
 80012b0:	e787      	b.n	80011c2 <__aeabi_fsub+0xb2>
 80012b2:	2cff      	cmp	r4, #255	; 0xff
 80012b4:	d025      	beq.n	8001302 <__aeabi_fsub+0x1f2>
 80012b6:	08db      	lsrs	r3, r3, #3
 80012b8:	2dff      	cmp	r5, #255	; 0xff
 80012ba:	d0f0      	beq.n	800129e <__aeabi_fsub+0x18e>
 80012bc:	025b      	lsls	r3, r3, #9
 80012be:	0a5b      	lsrs	r3, r3, #9
 80012c0:	b2ec      	uxtb	r4, r5
 80012c2:	e77e      	b.n	80011c2 <__aeabi_fsub+0xb2>
 80012c4:	2c00      	cmp	r4, #0
 80012c6:	d04d      	beq.n	8001364 <__aeabi_fsub+0x254>
 80012c8:	28ff      	cmp	r0, #255	; 0xff
 80012ca:	d018      	beq.n	80012fe <__aeabi_fsub+0x1ee>
 80012cc:	2480      	movs	r4, #128	; 0x80
 80012ce:	04e4      	lsls	r4, r4, #19
 80012d0:	4272      	negs	r2, r6
 80012d2:	4323      	orrs	r3, r4
 80012d4:	2a1b      	cmp	r2, #27
 80012d6:	dd00      	ble.n	80012da <__aeabi_fsub+0x1ca>
 80012d8:	e0c4      	b.n	8001464 <__aeabi_fsub+0x354>
 80012da:	001c      	movs	r4, r3
 80012dc:	2520      	movs	r5, #32
 80012de:	40d4      	lsrs	r4, r2
 80012e0:	1aaa      	subs	r2, r5, r2
 80012e2:	4093      	lsls	r3, r2
 80012e4:	1e5a      	subs	r2, r3, #1
 80012e6:	4193      	sbcs	r3, r2
 80012e8:	4323      	orrs	r3, r4
 80012ea:	464a      	mov	r2, r9
 80012ec:	0005      	movs	r5, r0
 80012ee:	1ad3      	subs	r3, r2, r3
 80012f0:	4688      	mov	r8, r1
 80012f2:	e738      	b.n	8001166 <__aeabi_fsub+0x56>
 80012f4:	1c72      	adds	r2, r6, #1
 80012f6:	d0f8      	beq.n	80012ea <__aeabi_fsub+0x1da>
 80012f8:	43f2      	mvns	r2, r6
 80012fa:	28ff      	cmp	r0, #255	; 0xff
 80012fc:	d1ea      	bne.n	80012d4 <__aeabi_fsub+0x1c4>
 80012fe:	000a      	movs	r2, r1
 8001300:	464b      	mov	r3, r9
 8001302:	25ff      	movs	r5, #255	; 0xff
 8001304:	e7d7      	b.n	80012b6 <__aeabi_fsub+0x1a6>
 8001306:	019b      	lsls	r3, r3, #6
 8001308:	0a5b      	lsrs	r3, r3, #9
 800130a:	e75a      	b.n	80011c2 <__aeabi_fsub+0xb2>
 800130c:	2e00      	cmp	r6, #0
 800130e:	d141      	bne.n	8001394 <__aeabi_fsub+0x284>
 8001310:	1c65      	adds	r5, r4, #1
 8001312:	b2e9      	uxtb	r1, r5
 8001314:	2901      	cmp	r1, #1
 8001316:	dd45      	ble.n	80013a4 <__aeabi_fsub+0x294>
 8001318:	2dff      	cmp	r5, #255	; 0xff
 800131a:	d100      	bne.n	800131e <__aeabi_fsub+0x20e>
 800131c:	e74f      	b.n	80011be <__aeabi_fsub+0xae>
 800131e:	2407      	movs	r4, #7
 8001320:	444b      	add	r3, r9
 8001322:	085b      	lsrs	r3, r3, #1
 8001324:	401c      	ands	r4, r3
 8001326:	e738      	b.n	800119a <__aeabi_fsub+0x8a>
 8001328:	2207      	movs	r2, #7
 800132a:	4b5a      	ldr	r3, [pc, #360]	; (8001494 <__aeabi_fsub+0x384>)
 800132c:	1a2d      	subs	r5, r5, r0
 800132e:	4023      	ands	r3, r4
 8001330:	4014      	ands	r4, r2
 8001332:	e732      	b.n	800119a <__aeabi_fsub+0x8a>
 8001334:	2c00      	cmp	r4, #0
 8001336:	d11d      	bne.n	8001374 <__aeabi_fsub+0x264>
 8001338:	2b00      	cmp	r3, #0
 800133a:	d17a      	bne.n	8001432 <__aeabi_fsub+0x322>
 800133c:	464b      	mov	r3, r9
 800133e:	2b00      	cmp	r3, #0
 8001340:	d100      	bne.n	8001344 <__aeabi_fsub+0x234>
 8001342:	e091      	b.n	8001468 <__aeabi_fsub+0x358>
 8001344:	000a      	movs	r2, r1
 8001346:	2500      	movs	r5, #0
 8001348:	e7b5      	b.n	80012b6 <__aeabi_fsub+0x1a6>
 800134a:	3e01      	subs	r6, #1
 800134c:	2e00      	cmp	r6, #0
 800134e:	d119      	bne.n	8001384 <__aeabi_fsub+0x274>
 8001350:	444b      	add	r3, r9
 8001352:	e76c      	b.n	800122e <__aeabi_fsub+0x11e>
 8001354:	2cff      	cmp	r4, #255	; 0xff
 8001356:	d184      	bne.n	8001262 <__aeabi_fsub+0x152>
 8001358:	25ff      	movs	r5, #255	; 0xff
 800135a:	e7ac      	b.n	80012b6 <__aeabi_fsub+0x1a6>
 800135c:	464a      	mov	r2, r9
 800135e:	4688      	mov	r8, r1
 8001360:	1ad4      	subs	r4, r2, r3
 8001362:	e705      	b.n	8001170 <__aeabi_fsub+0x60>
 8001364:	2b00      	cmp	r3, #0
 8001366:	d1c5      	bne.n	80012f4 <__aeabi_fsub+0x1e4>
 8001368:	000a      	movs	r2, r1
 800136a:	28ff      	cmp	r0, #255	; 0xff
 800136c:	d0c8      	beq.n	8001300 <__aeabi_fsub+0x1f0>
 800136e:	0005      	movs	r5, r0
 8001370:	464b      	mov	r3, r9
 8001372:	e7a0      	b.n	80012b6 <__aeabi_fsub+0x1a6>
 8001374:	2b00      	cmp	r3, #0
 8001376:	d149      	bne.n	800140c <__aeabi_fsub+0x2fc>
 8001378:	464b      	mov	r3, r9
 800137a:	2b00      	cmp	r3, #0
 800137c:	d077      	beq.n	800146e <__aeabi_fsub+0x35e>
 800137e:	000a      	movs	r2, r1
 8001380:	25ff      	movs	r5, #255	; 0xff
 8001382:	e798      	b.n	80012b6 <__aeabi_fsub+0x1a6>
 8001384:	2cff      	cmp	r4, #255	; 0xff
 8001386:	d000      	beq.n	800138a <__aeabi_fsub+0x27a>
 8001388:	e743      	b.n	8001212 <__aeabi_fsub+0x102>
 800138a:	e787      	b.n	800129c <__aeabi_fsub+0x18c>
 800138c:	000a      	movs	r2, r1
 800138e:	24ff      	movs	r4, #255	; 0xff
 8001390:	2300      	movs	r3, #0
 8001392:	e716      	b.n	80011c2 <__aeabi_fsub+0xb2>
 8001394:	2c00      	cmp	r4, #0
 8001396:	d115      	bne.n	80013c4 <__aeabi_fsub+0x2b4>
 8001398:	2b00      	cmp	r3, #0
 800139a:	d157      	bne.n	800144c <__aeabi_fsub+0x33c>
 800139c:	28ff      	cmp	r0, #255	; 0xff
 800139e:	d1e6      	bne.n	800136e <__aeabi_fsub+0x25e>
 80013a0:	464b      	mov	r3, r9
 80013a2:	e77b      	b.n	800129c <__aeabi_fsub+0x18c>
 80013a4:	2c00      	cmp	r4, #0
 80013a6:	d120      	bne.n	80013ea <__aeabi_fsub+0x2da>
 80013a8:	2b00      	cmp	r3, #0
 80013aa:	d057      	beq.n	800145c <__aeabi_fsub+0x34c>
 80013ac:	4649      	mov	r1, r9
 80013ae:	2900      	cmp	r1, #0
 80013b0:	d053      	beq.n	800145a <__aeabi_fsub+0x34a>
 80013b2:	444b      	add	r3, r9
 80013b4:	015a      	lsls	r2, r3, #5
 80013b6:	d568      	bpl.n	800148a <__aeabi_fsub+0x37a>
 80013b8:	2407      	movs	r4, #7
 80013ba:	4a36      	ldr	r2, [pc, #216]	; (8001494 <__aeabi_fsub+0x384>)
 80013bc:	401c      	ands	r4, r3
 80013be:	2501      	movs	r5, #1
 80013c0:	4013      	ands	r3, r2
 80013c2:	e6ea      	b.n	800119a <__aeabi_fsub+0x8a>
 80013c4:	28ff      	cmp	r0, #255	; 0xff
 80013c6:	d0eb      	beq.n	80013a0 <__aeabi_fsub+0x290>
 80013c8:	2280      	movs	r2, #128	; 0x80
 80013ca:	04d2      	lsls	r2, r2, #19
 80013cc:	4276      	negs	r6, r6
 80013ce:	4313      	orrs	r3, r2
 80013d0:	2e1b      	cmp	r6, #27
 80013d2:	dc53      	bgt.n	800147c <__aeabi_fsub+0x36c>
 80013d4:	2520      	movs	r5, #32
 80013d6:	1bad      	subs	r5, r5, r6
 80013d8:	001a      	movs	r2, r3
 80013da:	40ab      	lsls	r3, r5
 80013dc:	40f2      	lsrs	r2, r6
 80013de:	1e5c      	subs	r4, r3, #1
 80013e0:	41a3      	sbcs	r3, r4
 80013e2:	4313      	orrs	r3, r2
 80013e4:	444b      	add	r3, r9
 80013e6:	0005      	movs	r5, r0
 80013e8:	e721      	b.n	800122e <__aeabi_fsub+0x11e>
 80013ea:	2b00      	cmp	r3, #0
 80013ec:	d0d8      	beq.n	80013a0 <__aeabi_fsub+0x290>
 80013ee:	4649      	mov	r1, r9
 80013f0:	2900      	cmp	r1, #0
 80013f2:	d100      	bne.n	80013f6 <__aeabi_fsub+0x2e6>
 80013f4:	e752      	b.n	800129c <__aeabi_fsub+0x18c>
 80013f6:	2180      	movs	r1, #128	; 0x80
 80013f8:	03c9      	lsls	r1, r1, #15
 80013fa:	420f      	tst	r7, r1
 80013fc:	d100      	bne.n	8001400 <__aeabi_fsub+0x2f0>
 80013fe:	e74d      	b.n	800129c <__aeabi_fsub+0x18c>
 8001400:	4660      	mov	r0, ip
 8001402:	4208      	tst	r0, r1
 8001404:	d000      	beq.n	8001408 <__aeabi_fsub+0x2f8>
 8001406:	e749      	b.n	800129c <__aeabi_fsub+0x18c>
 8001408:	464b      	mov	r3, r9
 800140a:	e747      	b.n	800129c <__aeabi_fsub+0x18c>
 800140c:	4648      	mov	r0, r9
 800140e:	25ff      	movs	r5, #255	; 0xff
 8001410:	2800      	cmp	r0, #0
 8001412:	d100      	bne.n	8001416 <__aeabi_fsub+0x306>
 8001414:	e74f      	b.n	80012b6 <__aeabi_fsub+0x1a6>
 8001416:	2280      	movs	r2, #128	; 0x80
 8001418:	03d2      	lsls	r2, r2, #15
 800141a:	4217      	tst	r7, r2
 800141c:	d004      	beq.n	8001428 <__aeabi_fsub+0x318>
 800141e:	4660      	mov	r0, ip
 8001420:	4210      	tst	r0, r2
 8001422:	d101      	bne.n	8001428 <__aeabi_fsub+0x318>
 8001424:	464b      	mov	r3, r9
 8001426:	4688      	mov	r8, r1
 8001428:	2201      	movs	r2, #1
 800142a:	4641      	mov	r1, r8
 800142c:	25ff      	movs	r5, #255	; 0xff
 800142e:	400a      	ands	r2, r1
 8001430:	e741      	b.n	80012b6 <__aeabi_fsub+0x1a6>
 8001432:	4648      	mov	r0, r9
 8001434:	2800      	cmp	r0, #0
 8001436:	d01f      	beq.n	8001478 <__aeabi_fsub+0x368>
 8001438:	1a1a      	subs	r2, r3, r0
 800143a:	0150      	lsls	r0, r2, #5
 800143c:	d520      	bpl.n	8001480 <__aeabi_fsub+0x370>
 800143e:	464a      	mov	r2, r9
 8001440:	2407      	movs	r4, #7
 8001442:	1ad3      	subs	r3, r2, r3
 8001444:	401c      	ands	r4, r3
 8001446:	4688      	mov	r8, r1
 8001448:	2500      	movs	r5, #0
 800144a:	e6a6      	b.n	800119a <__aeabi_fsub+0x8a>
 800144c:	1c74      	adds	r4, r6, #1
 800144e:	d0c9      	beq.n	80013e4 <__aeabi_fsub+0x2d4>
 8001450:	43f6      	mvns	r6, r6
 8001452:	28ff      	cmp	r0, #255	; 0xff
 8001454:	d1bc      	bne.n	80013d0 <__aeabi_fsub+0x2c0>
 8001456:	464b      	mov	r3, r9
 8001458:	e720      	b.n	800129c <__aeabi_fsub+0x18c>
 800145a:	4699      	mov	r9, r3
 800145c:	464b      	mov	r3, r9
 800145e:	2500      	movs	r5, #0
 8001460:	08db      	lsrs	r3, r3, #3
 8001462:	e72b      	b.n	80012bc <__aeabi_fsub+0x1ac>
 8001464:	2301      	movs	r3, #1
 8001466:	e740      	b.n	80012ea <__aeabi_fsub+0x1da>
 8001468:	2200      	movs	r2, #0
 800146a:	2300      	movs	r3, #0
 800146c:	e6a9      	b.n	80011c2 <__aeabi_fsub+0xb2>
 800146e:	2380      	movs	r3, #128	; 0x80
 8001470:	2200      	movs	r2, #0
 8001472:	03db      	lsls	r3, r3, #15
 8001474:	24ff      	movs	r4, #255	; 0xff
 8001476:	e6a4      	b.n	80011c2 <__aeabi_fsub+0xb2>
 8001478:	2500      	movs	r5, #0
 800147a:	e71c      	b.n	80012b6 <__aeabi_fsub+0x1a6>
 800147c:	2301      	movs	r3, #1
 800147e:	e7b1      	b.n	80013e4 <__aeabi_fsub+0x2d4>
 8001480:	2a00      	cmp	r2, #0
 8001482:	d0f1      	beq.n	8001468 <__aeabi_fsub+0x358>
 8001484:	0013      	movs	r3, r2
 8001486:	2500      	movs	r5, #0
 8001488:	e6fc      	b.n	8001284 <__aeabi_fsub+0x174>
 800148a:	2500      	movs	r5, #0
 800148c:	e6fa      	b.n	8001284 <__aeabi_fsub+0x174>
 800148e:	46c0      	nop			; (mov r8, r8)
 8001490:	7dffffff 	.word	0x7dffffff
 8001494:	fbffffff 	.word	0xfbffffff

08001498 <__aeabi_f2iz>:
 8001498:	0241      	lsls	r1, r0, #9
 800149a:	0042      	lsls	r2, r0, #1
 800149c:	0fc3      	lsrs	r3, r0, #31
 800149e:	0a49      	lsrs	r1, r1, #9
 80014a0:	0e12      	lsrs	r2, r2, #24
 80014a2:	2000      	movs	r0, #0
 80014a4:	2a7e      	cmp	r2, #126	; 0x7e
 80014a6:	d90d      	bls.n	80014c4 <__aeabi_f2iz+0x2c>
 80014a8:	2a9d      	cmp	r2, #157	; 0x9d
 80014aa:	d80c      	bhi.n	80014c6 <__aeabi_f2iz+0x2e>
 80014ac:	2080      	movs	r0, #128	; 0x80
 80014ae:	0400      	lsls	r0, r0, #16
 80014b0:	4301      	orrs	r1, r0
 80014b2:	2a95      	cmp	r2, #149	; 0x95
 80014b4:	dc0a      	bgt.n	80014cc <__aeabi_f2iz+0x34>
 80014b6:	2096      	movs	r0, #150	; 0x96
 80014b8:	1a82      	subs	r2, r0, r2
 80014ba:	40d1      	lsrs	r1, r2
 80014bc:	4248      	negs	r0, r1
 80014be:	2b00      	cmp	r3, #0
 80014c0:	d100      	bne.n	80014c4 <__aeabi_f2iz+0x2c>
 80014c2:	0008      	movs	r0, r1
 80014c4:	4770      	bx	lr
 80014c6:	4a03      	ldr	r2, [pc, #12]	; (80014d4 <__aeabi_f2iz+0x3c>)
 80014c8:	1898      	adds	r0, r3, r2
 80014ca:	e7fb      	b.n	80014c4 <__aeabi_f2iz+0x2c>
 80014cc:	3a96      	subs	r2, #150	; 0x96
 80014ce:	4091      	lsls	r1, r2
 80014d0:	e7f4      	b.n	80014bc <__aeabi_f2iz+0x24>
 80014d2:	46c0      	nop			; (mov r8, r8)
 80014d4:	7fffffff 	.word	0x7fffffff

080014d8 <__aeabi_i2f>:
 80014d8:	b570      	push	{r4, r5, r6, lr}
 80014da:	2800      	cmp	r0, #0
 80014dc:	d03d      	beq.n	800155a <__aeabi_i2f+0x82>
 80014de:	17c3      	asrs	r3, r0, #31
 80014e0:	18c5      	adds	r5, r0, r3
 80014e2:	405d      	eors	r5, r3
 80014e4:	0fc4      	lsrs	r4, r0, #31
 80014e6:	0028      	movs	r0, r5
 80014e8:	f001 fef4 	bl	80032d4 <__clzsi2>
 80014ec:	229e      	movs	r2, #158	; 0x9e
 80014ee:	1a12      	subs	r2, r2, r0
 80014f0:	2a96      	cmp	r2, #150	; 0x96
 80014f2:	dc07      	bgt.n	8001504 <__aeabi_i2f+0x2c>
 80014f4:	b2d2      	uxtb	r2, r2
 80014f6:	2808      	cmp	r0, #8
 80014f8:	dd33      	ble.n	8001562 <__aeabi_i2f+0x8a>
 80014fa:	3808      	subs	r0, #8
 80014fc:	4085      	lsls	r5, r0
 80014fe:	0268      	lsls	r0, r5, #9
 8001500:	0a40      	lsrs	r0, r0, #9
 8001502:	e023      	b.n	800154c <__aeabi_i2f+0x74>
 8001504:	2a99      	cmp	r2, #153	; 0x99
 8001506:	dd0b      	ble.n	8001520 <__aeabi_i2f+0x48>
 8001508:	2305      	movs	r3, #5
 800150a:	0029      	movs	r1, r5
 800150c:	1a1b      	subs	r3, r3, r0
 800150e:	40d9      	lsrs	r1, r3
 8001510:	0003      	movs	r3, r0
 8001512:	331b      	adds	r3, #27
 8001514:	409d      	lsls	r5, r3
 8001516:	002b      	movs	r3, r5
 8001518:	1e5d      	subs	r5, r3, #1
 800151a:	41ab      	sbcs	r3, r5
 800151c:	4319      	orrs	r1, r3
 800151e:	000d      	movs	r5, r1
 8001520:	2805      	cmp	r0, #5
 8001522:	dd01      	ble.n	8001528 <__aeabi_i2f+0x50>
 8001524:	1f43      	subs	r3, r0, #5
 8001526:	409d      	lsls	r5, r3
 8001528:	002b      	movs	r3, r5
 800152a:	490f      	ldr	r1, [pc, #60]	; (8001568 <__aeabi_i2f+0x90>)
 800152c:	400b      	ands	r3, r1
 800152e:	076e      	lsls	r6, r5, #29
 8001530:	d009      	beq.n	8001546 <__aeabi_i2f+0x6e>
 8001532:	260f      	movs	r6, #15
 8001534:	4035      	ands	r5, r6
 8001536:	2d04      	cmp	r5, #4
 8001538:	d005      	beq.n	8001546 <__aeabi_i2f+0x6e>
 800153a:	3304      	adds	r3, #4
 800153c:	015d      	lsls	r5, r3, #5
 800153e:	d502      	bpl.n	8001546 <__aeabi_i2f+0x6e>
 8001540:	229f      	movs	r2, #159	; 0x9f
 8001542:	400b      	ands	r3, r1
 8001544:	1a12      	subs	r2, r2, r0
 8001546:	019b      	lsls	r3, r3, #6
 8001548:	0a58      	lsrs	r0, r3, #9
 800154a:	b2d2      	uxtb	r2, r2
 800154c:	0240      	lsls	r0, r0, #9
 800154e:	05d2      	lsls	r2, r2, #23
 8001550:	0a40      	lsrs	r0, r0, #9
 8001552:	07e4      	lsls	r4, r4, #31
 8001554:	4310      	orrs	r0, r2
 8001556:	4320      	orrs	r0, r4
 8001558:	bd70      	pop	{r4, r5, r6, pc}
 800155a:	2400      	movs	r4, #0
 800155c:	2200      	movs	r2, #0
 800155e:	2000      	movs	r0, #0
 8001560:	e7f4      	b.n	800154c <__aeabi_i2f+0x74>
 8001562:	0268      	lsls	r0, r5, #9
 8001564:	0a40      	lsrs	r0, r0, #9
 8001566:	e7f1      	b.n	800154c <__aeabi_i2f+0x74>
 8001568:	fbffffff 	.word	0xfbffffff

0800156c <__aeabi_ui2f>:
 800156c:	b570      	push	{r4, r5, r6, lr}
 800156e:	1e04      	subs	r4, r0, #0
 8001570:	d034      	beq.n	80015dc <__aeabi_ui2f+0x70>
 8001572:	f001 feaf 	bl	80032d4 <__clzsi2>
 8001576:	229e      	movs	r2, #158	; 0x9e
 8001578:	1a12      	subs	r2, r2, r0
 800157a:	2a96      	cmp	r2, #150	; 0x96
 800157c:	dc07      	bgt.n	800158e <__aeabi_ui2f+0x22>
 800157e:	b2d2      	uxtb	r2, r2
 8001580:	2808      	cmp	r0, #8
 8001582:	dd2e      	ble.n	80015e2 <__aeabi_ui2f+0x76>
 8001584:	3808      	subs	r0, #8
 8001586:	4084      	lsls	r4, r0
 8001588:	0260      	lsls	r0, r4, #9
 800158a:	0a40      	lsrs	r0, r0, #9
 800158c:	e021      	b.n	80015d2 <__aeabi_ui2f+0x66>
 800158e:	2a99      	cmp	r2, #153	; 0x99
 8001590:	dd09      	ble.n	80015a6 <__aeabi_ui2f+0x3a>
 8001592:	0003      	movs	r3, r0
 8001594:	0021      	movs	r1, r4
 8001596:	331b      	adds	r3, #27
 8001598:	4099      	lsls	r1, r3
 800159a:	1e4b      	subs	r3, r1, #1
 800159c:	4199      	sbcs	r1, r3
 800159e:	2305      	movs	r3, #5
 80015a0:	1a1b      	subs	r3, r3, r0
 80015a2:	40dc      	lsrs	r4, r3
 80015a4:	430c      	orrs	r4, r1
 80015a6:	2805      	cmp	r0, #5
 80015a8:	dd01      	ble.n	80015ae <__aeabi_ui2f+0x42>
 80015aa:	1f43      	subs	r3, r0, #5
 80015ac:	409c      	lsls	r4, r3
 80015ae:	0023      	movs	r3, r4
 80015b0:	490d      	ldr	r1, [pc, #52]	; (80015e8 <__aeabi_ui2f+0x7c>)
 80015b2:	400b      	ands	r3, r1
 80015b4:	0765      	lsls	r5, r4, #29
 80015b6:	d009      	beq.n	80015cc <__aeabi_ui2f+0x60>
 80015b8:	250f      	movs	r5, #15
 80015ba:	402c      	ands	r4, r5
 80015bc:	2c04      	cmp	r4, #4
 80015be:	d005      	beq.n	80015cc <__aeabi_ui2f+0x60>
 80015c0:	3304      	adds	r3, #4
 80015c2:	015c      	lsls	r4, r3, #5
 80015c4:	d502      	bpl.n	80015cc <__aeabi_ui2f+0x60>
 80015c6:	229f      	movs	r2, #159	; 0x9f
 80015c8:	400b      	ands	r3, r1
 80015ca:	1a12      	subs	r2, r2, r0
 80015cc:	019b      	lsls	r3, r3, #6
 80015ce:	0a58      	lsrs	r0, r3, #9
 80015d0:	b2d2      	uxtb	r2, r2
 80015d2:	0240      	lsls	r0, r0, #9
 80015d4:	05d2      	lsls	r2, r2, #23
 80015d6:	0a40      	lsrs	r0, r0, #9
 80015d8:	4310      	orrs	r0, r2
 80015da:	bd70      	pop	{r4, r5, r6, pc}
 80015dc:	2200      	movs	r2, #0
 80015de:	2000      	movs	r0, #0
 80015e0:	e7f7      	b.n	80015d2 <__aeabi_ui2f+0x66>
 80015e2:	0260      	lsls	r0, r4, #9
 80015e4:	0a40      	lsrs	r0, r0, #9
 80015e6:	e7f4      	b.n	80015d2 <__aeabi_ui2f+0x66>
 80015e8:	fbffffff 	.word	0xfbffffff

080015ec <__aeabi_dadd>:
 80015ec:	b5f0      	push	{r4, r5, r6, r7, lr}
 80015ee:	464f      	mov	r7, r9
 80015f0:	4646      	mov	r6, r8
 80015f2:	46d6      	mov	lr, sl
 80015f4:	000c      	movs	r4, r1
 80015f6:	0309      	lsls	r1, r1, #12
 80015f8:	b5c0      	push	{r6, r7, lr}
 80015fa:	0a49      	lsrs	r1, r1, #9
 80015fc:	0f47      	lsrs	r7, r0, #29
 80015fe:	005e      	lsls	r6, r3, #1
 8001600:	4339      	orrs	r1, r7
 8001602:	031f      	lsls	r7, r3, #12
 8001604:	0fdb      	lsrs	r3, r3, #31
 8001606:	469c      	mov	ip, r3
 8001608:	0065      	lsls	r5, r4, #1
 800160a:	0a7b      	lsrs	r3, r7, #9
 800160c:	0f57      	lsrs	r7, r2, #29
 800160e:	431f      	orrs	r7, r3
 8001610:	0d6d      	lsrs	r5, r5, #21
 8001612:	0fe4      	lsrs	r4, r4, #31
 8001614:	0d76      	lsrs	r6, r6, #21
 8001616:	46a1      	mov	r9, r4
 8001618:	00c0      	lsls	r0, r0, #3
 800161a:	46b8      	mov	r8, r7
 800161c:	00d2      	lsls	r2, r2, #3
 800161e:	1bab      	subs	r3, r5, r6
 8001620:	4564      	cmp	r4, ip
 8001622:	d07b      	beq.n	800171c <__aeabi_dadd+0x130>
 8001624:	2b00      	cmp	r3, #0
 8001626:	dd5f      	ble.n	80016e8 <__aeabi_dadd+0xfc>
 8001628:	2e00      	cmp	r6, #0
 800162a:	d000      	beq.n	800162e <__aeabi_dadd+0x42>
 800162c:	e0a4      	b.n	8001778 <__aeabi_dadd+0x18c>
 800162e:	003e      	movs	r6, r7
 8001630:	4316      	orrs	r6, r2
 8001632:	d100      	bne.n	8001636 <__aeabi_dadd+0x4a>
 8001634:	e112      	b.n	800185c <__aeabi_dadd+0x270>
 8001636:	1e5e      	subs	r6, r3, #1
 8001638:	2e00      	cmp	r6, #0
 800163a:	d000      	beq.n	800163e <__aeabi_dadd+0x52>
 800163c:	e19e      	b.n	800197c <__aeabi_dadd+0x390>
 800163e:	1a87      	subs	r7, r0, r2
 8001640:	4643      	mov	r3, r8
 8001642:	42b8      	cmp	r0, r7
 8001644:	4180      	sbcs	r0, r0
 8001646:	2501      	movs	r5, #1
 8001648:	1ac9      	subs	r1, r1, r3
 800164a:	4240      	negs	r0, r0
 800164c:	1a09      	subs	r1, r1, r0
 800164e:	020b      	lsls	r3, r1, #8
 8001650:	d400      	bmi.n	8001654 <__aeabi_dadd+0x68>
 8001652:	e131      	b.n	80018b8 <__aeabi_dadd+0x2cc>
 8001654:	0249      	lsls	r1, r1, #9
 8001656:	0a4e      	lsrs	r6, r1, #9
 8001658:	2e00      	cmp	r6, #0
 800165a:	d100      	bne.n	800165e <__aeabi_dadd+0x72>
 800165c:	e16e      	b.n	800193c <__aeabi_dadd+0x350>
 800165e:	0030      	movs	r0, r6
 8001660:	f001 fe38 	bl	80032d4 <__clzsi2>
 8001664:	0003      	movs	r3, r0
 8001666:	3b08      	subs	r3, #8
 8001668:	2b1f      	cmp	r3, #31
 800166a:	dd00      	ble.n	800166e <__aeabi_dadd+0x82>
 800166c:	e161      	b.n	8001932 <__aeabi_dadd+0x346>
 800166e:	2220      	movs	r2, #32
 8001670:	0039      	movs	r1, r7
 8001672:	1ad2      	subs	r2, r2, r3
 8001674:	409e      	lsls	r6, r3
 8001676:	40d1      	lsrs	r1, r2
 8001678:	409f      	lsls	r7, r3
 800167a:	430e      	orrs	r6, r1
 800167c:	429d      	cmp	r5, r3
 800167e:	dd00      	ble.n	8001682 <__aeabi_dadd+0x96>
 8001680:	e151      	b.n	8001926 <__aeabi_dadd+0x33a>
 8001682:	1b5d      	subs	r5, r3, r5
 8001684:	1c6b      	adds	r3, r5, #1
 8001686:	2b1f      	cmp	r3, #31
 8001688:	dd00      	ble.n	800168c <__aeabi_dadd+0xa0>
 800168a:	e17c      	b.n	8001986 <__aeabi_dadd+0x39a>
 800168c:	2120      	movs	r1, #32
 800168e:	1ac9      	subs	r1, r1, r3
 8001690:	003d      	movs	r5, r7
 8001692:	0030      	movs	r0, r6
 8001694:	408f      	lsls	r7, r1
 8001696:	4088      	lsls	r0, r1
 8001698:	40dd      	lsrs	r5, r3
 800169a:	1e79      	subs	r1, r7, #1
 800169c:	418f      	sbcs	r7, r1
 800169e:	0031      	movs	r1, r6
 80016a0:	2207      	movs	r2, #7
 80016a2:	4328      	orrs	r0, r5
 80016a4:	40d9      	lsrs	r1, r3
 80016a6:	2500      	movs	r5, #0
 80016a8:	4307      	orrs	r7, r0
 80016aa:	403a      	ands	r2, r7
 80016ac:	2a00      	cmp	r2, #0
 80016ae:	d009      	beq.n	80016c4 <__aeabi_dadd+0xd8>
 80016b0:	230f      	movs	r3, #15
 80016b2:	403b      	ands	r3, r7
 80016b4:	2b04      	cmp	r3, #4
 80016b6:	d005      	beq.n	80016c4 <__aeabi_dadd+0xd8>
 80016b8:	1d3b      	adds	r3, r7, #4
 80016ba:	42bb      	cmp	r3, r7
 80016bc:	41bf      	sbcs	r7, r7
 80016be:	427f      	negs	r7, r7
 80016c0:	19c9      	adds	r1, r1, r7
 80016c2:	001f      	movs	r7, r3
 80016c4:	020b      	lsls	r3, r1, #8
 80016c6:	d400      	bmi.n	80016ca <__aeabi_dadd+0xde>
 80016c8:	e226      	b.n	8001b18 <__aeabi_dadd+0x52c>
 80016ca:	1c6a      	adds	r2, r5, #1
 80016cc:	4bc6      	ldr	r3, [pc, #792]	; (80019e8 <__aeabi_dadd+0x3fc>)
 80016ce:	0555      	lsls	r5, r2, #21
 80016d0:	0d6d      	lsrs	r5, r5, #21
 80016d2:	429a      	cmp	r2, r3
 80016d4:	d100      	bne.n	80016d8 <__aeabi_dadd+0xec>
 80016d6:	e106      	b.n	80018e6 <__aeabi_dadd+0x2fa>
 80016d8:	4ac4      	ldr	r2, [pc, #784]	; (80019ec <__aeabi_dadd+0x400>)
 80016da:	08ff      	lsrs	r7, r7, #3
 80016dc:	400a      	ands	r2, r1
 80016de:	0753      	lsls	r3, r2, #29
 80016e0:	0252      	lsls	r2, r2, #9
 80016e2:	433b      	orrs	r3, r7
 80016e4:	0b12      	lsrs	r2, r2, #12
 80016e6:	e08e      	b.n	8001806 <__aeabi_dadd+0x21a>
 80016e8:	2b00      	cmp	r3, #0
 80016ea:	d000      	beq.n	80016ee <__aeabi_dadd+0x102>
 80016ec:	e0b8      	b.n	8001860 <__aeabi_dadd+0x274>
 80016ee:	1c6b      	adds	r3, r5, #1
 80016f0:	055b      	lsls	r3, r3, #21
 80016f2:	0d5b      	lsrs	r3, r3, #21
 80016f4:	2b01      	cmp	r3, #1
 80016f6:	dc00      	bgt.n	80016fa <__aeabi_dadd+0x10e>
 80016f8:	e130      	b.n	800195c <__aeabi_dadd+0x370>
 80016fa:	1a87      	subs	r7, r0, r2
 80016fc:	4643      	mov	r3, r8
 80016fe:	42b8      	cmp	r0, r7
 8001700:	41b6      	sbcs	r6, r6
 8001702:	1acb      	subs	r3, r1, r3
 8001704:	4276      	negs	r6, r6
 8001706:	1b9e      	subs	r6, r3, r6
 8001708:	0233      	lsls	r3, r6, #8
 800170a:	d500      	bpl.n	800170e <__aeabi_dadd+0x122>
 800170c:	e14c      	b.n	80019a8 <__aeabi_dadd+0x3bc>
 800170e:	003b      	movs	r3, r7
 8001710:	4333      	orrs	r3, r6
 8001712:	d1a1      	bne.n	8001658 <__aeabi_dadd+0x6c>
 8001714:	2200      	movs	r2, #0
 8001716:	2400      	movs	r4, #0
 8001718:	2500      	movs	r5, #0
 800171a:	e070      	b.n	80017fe <__aeabi_dadd+0x212>
 800171c:	2b00      	cmp	r3, #0
 800171e:	dc00      	bgt.n	8001722 <__aeabi_dadd+0x136>
 8001720:	e0e5      	b.n	80018ee <__aeabi_dadd+0x302>
 8001722:	2e00      	cmp	r6, #0
 8001724:	d100      	bne.n	8001728 <__aeabi_dadd+0x13c>
 8001726:	e083      	b.n	8001830 <__aeabi_dadd+0x244>
 8001728:	4eaf      	ldr	r6, [pc, #700]	; (80019e8 <__aeabi_dadd+0x3fc>)
 800172a:	42b5      	cmp	r5, r6
 800172c:	d060      	beq.n	80017f0 <__aeabi_dadd+0x204>
 800172e:	2680      	movs	r6, #128	; 0x80
 8001730:	0436      	lsls	r6, r6, #16
 8001732:	4337      	orrs	r7, r6
 8001734:	46b8      	mov	r8, r7
 8001736:	2b38      	cmp	r3, #56	; 0x38
 8001738:	dc00      	bgt.n	800173c <__aeabi_dadd+0x150>
 800173a:	e13e      	b.n	80019ba <__aeabi_dadd+0x3ce>
 800173c:	4643      	mov	r3, r8
 800173e:	4313      	orrs	r3, r2
 8001740:	001f      	movs	r7, r3
 8001742:	1e7a      	subs	r2, r7, #1
 8001744:	4197      	sbcs	r7, r2
 8001746:	183f      	adds	r7, r7, r0
 8001748:	4287      	cmp	r7, r0
 800174a:	4180      	sbcs	r0, r0
 800174c:	4240      	negs	r0, r0
 800174e:	1809      	adds	r1, r1, r0
 8001750:	020b      	lsls	r3, r1, #8
 8001752:	d400      	bmi.n	8001756 <__aeabi_dadd+0x16a>
 8001754:	e0b0      	b.n	80018b8 <__aeabi_dadd+0x2cc>
 8001756:	4ba4      	ldr	r3, [pc, #656]	; (80019e8 <__aeabi_dadd+0x3fc>)
 8001758:	3501      	adds	r5, #1
 800175a:	429d      	cmp	r5, r3
 800175c:	d100      	bne.n	8001760 <__aeabi_dadd+0x174>
 800175e:	e0c3      	b.n	80018e8 <__aeabi_dadd+0x2fc>
 8001760:	4aa2      	ldr	r2, [pc, #648]	; (80019ec <__aeabi_dadd+0x400>)
 8001762:	087b      	lsrs	r3, r7, #1
 8001764:	400a      	ands	r2, r1
 8001766:	2101      	movs	r1, #1
 8001768:	400f      	ands	r7, r1
 800176a:	431f      	orrs	r7, r3
 800176c:	0851      	lsrs	r1, r2, #1
 800176e:	07d3      	lsls	r3, r2, #31
 8001770:	2207      	movs	r2, #7
 8001772:	431f      	orrs	r7, r3
 8001774:	403a      	ands	r2, r7
 8001776:	e799      	b.n	80016ac <__aeabi_dadd+0xc0>
 8001778:	4e9b      	ldr	r6, [pc, #620]	; (80019e8 <__aeabi_dadd+0x3fc>)
 800177a:	42b5      	cmp	r5, r6
 800177c:	d038      	beq.n	80017f0 <__aeabi_dadd+0x204>
 800177e:	2680      	movs	r6, #128	; 0x80
 8001780:	0436      	lsls	r6, r6, #16
 8001782:	4337      	orrs	r7, r6
 8001784:	46b8      	mov	r8, r7
 8001786:	2b38      	cmp	r3, #56	; 0x38
 8001788:	dd00      	ble.n	800178c <__aeabi_dadd+0x1a0>
 800178a:	e0dc      	b.n	8001946 <__aeabi_dadd+0x35a>
 800178c:	2b1f      	cmp	r3, #31
 800178e:	dc00      	bgt.n	8001792 <__aeabi_dadd+0x1a6>
 8001790:	e130      	b.n	80019f4 <__aeabi_dadd+0x408>
 8001792:	001e      	movs	r6, r3
 8001794:	4647      	mov	r7, r8
 8001796:	3e20      	subs	r6, #32
 8001798:	40f7      	lsrs	r7, r6
 800179a:	46bc      	mov	ip, r7
 800179c:	2b20      	cmp	r3, #32
 800179e:	d004      	beq.n	80017aa <__aeabi_dadd+0x1be>
 80017a0:	2640      	movs	r6, #64	; 0x40
 80017a2:	1af3      	subs	r3, r6, r3
 80017a4:	4646      	mov	r6, r8
 80017a6:	409e      	lsls	r6, r3
 80017a8:	4332      	orrs	r2, r6
 80017aa:	0017      	movs	r7, r2
 80017ac:	4663      	mov	r3, ip
 80017ae:	1e7a      	subs	r2, r7, #1
 80017b0:	4197      	sbcs	r7, r2
 80017b2:	431f      	orrs	r7, r3
 80017b4:	e0cc      	b.n	8001950 <__aeabi_dadd+0x364>
 80017b6:	2b00      	cmp	r3, #0
 80017b8:	d100      	bne.n	80017bc <__aeabi_dadd+0x1d0>
 80017ba:	e204      	b.n	8001bc6 <__aeabi_dadd+0x5da>
 80017bc:	4643      	mov	r3, r8
 80017be:	4313      	orrs	r3, r2
 80017c0:	d100      	bne.n	80017c4 <__aeabi_dadd+0x1d8>
 80017c2:	e159      	b.n	8001a78 <__aeabi_dadd+0x48c>
 80017c4:	074b      	lsls	r3, r1, #29
 80017c6:	08c0      	lsrs	r0, r0, #3
 80017c8:	4318      	orrs	r0, r3
 80017ca:	2380      	movs	r3, #128	; 0x80
 80017cc:	08c9      	lsrs	r1, r1, #3
 80017ce:	031b      	lsls	r3, r3, #12
 80017d0:	4219      	tst	r1, r3
 80017d2:	d008      	beq.n	80017e6 <__aeabi_dadd+0x1fa>
 80017d4:	4645      	mov	r5, r8
 80017d6:	08ed      	lsrs	r5, r5, #3
 80017d8:	421d      	tst	r5, r3
 80017da:	d104      	bne.n	80017e6 <__aeabi_dadd+0x1fa>
 80017dc:	4643      	mov	r3, r8
 80017de:	08d0      	lsrs	r0, r2, #3
 80017e0:	0759      	lsls	r1, r3, #29
 80017e2:	4308      	orrs	r0, r1
 80017e4:	0029      	movs	r1, r5
 80017e6:	0f42      	lsrs	r2, r0, #29
 80017e8:	00c9      	lsls	r1, r1, #3
 80017ea:	4d7f      	ldr	r5, [pc, #508]	; (80019e8 <__aeabi_dadd+0x3fc>)
 80017ec:	4311      	orrs	r1, r2
 80017ee:	00c0      	lsls	r0, r0, #3
 80017f0:	074b      	lsls	r3, r1, #29
 80017f2:	08ca      	lsrs	r2, r1, #3
 80017f4:	497c      	ldr	r1, [pc, #496]	; (80019e8 <__aeabi_dadd+0x3fc>)
 80017f6:	08c0      	lsrs	r0, r0, #3
 80017f8:	4303      	orrs	r3, r0
 80017fa:	428d      	cmp	r5, r1
 80017fc:	d068      	beq.n	80018d0 <__aeabi_dadd+0x2e4>
 80017fe:	0312      	lsls	r2, r2, #12
 8001800:	056d      	lsls	r5, r5, #21
 8001802:	0b12      	lsrs	r2, r2, #12
 8001804:	0d6d      	lsrs	r5, r5, #21
 8001806:	2100      	movs	r1, #0
 8001808:	0312      	lsls	r2, r2, #12
 800180a:	0018      	movs	r0, r3
 800180c:	0b13      	lsrs	r3, r2, #12
 800180e:	0d0a      	lsrs	r2, r1, #20
 8001810:	0512      	lsls	r2, r2, #20
 8001812:	431a      	orrs	r2, r3
 8001814:	4b76      	ldr	r3, [pc, #472]	; (80019f0 <__aeabi_dadd+0x404>)
 8001816:	052d      	lsls	r5, r5, #20
 8001818:	4013      	ands	r3, r2
 800181a:	432b      	orrs	r3, r5
 800181c:	005b      	lsls	r3, r3, #1
 800181e:	07e4      	lsls	r4, r4, #31
 8001820:	085b      	lsrs	r3, r3, #1
 8001822:	4323      	orrs	r3, r4
 8001824:	0019      	movs	r1, r3
 8001826:	bc1c      	pop	{r2, r3, r4}
 8001828:	4690      	mov	r8, r2
 800182a:	4699      	mov	r9, r3
 800182c:	46a2      	mov	sl, r4
 800182e:	bdf0      	pop	{r4, r5, r6, r7, pc}
 8001830:	003e      	movs	r6, r7
 8001832:	4316      	orrs	r6, r2
 8001834:	d012      	beq.n	800185c <__aeabi_dadd+0x270>
 8001836:	1e5e      	subs	r6, r3, #1
 8001838:	2e00      	cmp	r6, #0
 800183a:	d000      	beq.n	800183e <__aeabi_dadd+0x252>
 800183c:	e100      	b.n	8001a40 <__aeabi_dadd+0x454>
 800183e:	1887      	adds	r7, r0, r2
 8001840:	4287      	cmp	r7, r0
 8001842:	4180      	sbcs	r0, r0
 8001844:	4441      	add	r1, r8
 8001846:	4240      	negs	r0, r0
 8001848:	1809      	adds	r1, r1, r0
 800184a:	2501      	movs	r5, #1
 800184c:	020b      	lsls	r3, r1, #8
 800184e:	d533      	bpl.n	80018b8 <__aeabi_dadd+0x2cc>
 8001850:	2502      	movs	r5, #2
 8001852:	e785      	b.n	8001760 <__aeabi_dadd+0x174>
 8001854:	4664      	mov	r4, ip
 8001856:	0033      	movs	r3, r6
 8001858:	4641      	mov	r1, r8
 800185a:	0010      	movs	r0, r2
 800185c:	001d      	movs	r5, r3
 800185e:	e7c7      	b.n	80017f0 <__aeabi_dadd+0x204>
 8001860:	2d00      	cmp	r5, #0
 8001862:	d000      	beq.n	8001866 <__aeabi_dadd+0x27a>
 8001864:	e0da      	b.n	8001a1c <__aeabi_dadd+0x430>
 8001866:	000c      	movs	r4, r1
 8001868:	4304      	orrs	r4, r0
 800186a:	d0f3      	beq.n	8001854 <__aeabi_dadd+0x268>
 800186c:	1c5c      	adds	r4, r3, #1
 800186e:	d100      	bne.n	8001872 <__aeabi_dadd+0x286>
 8001870:	e19f      	b.n	8001bb2 <__aeabi_dadd+0x5c6>
 8001872:	4c5d      	ldr	r4, [pc, #372]	; (80019e8 <__aeabi_dadd+0x3fc>)
 8001874:	42a6      	cmp	r6, r4
 8001876:	d100      	bne.n	800187a <__aeabi_dadd+0x28e>
 8001878:	e12f      	b.n	8001ada <__aeabi_dadd+0x4ee>
 800187a:	43db      	mvns	r3, r3
 800187c:	2b38      	cmp	r3, #56	; 0x38
 800187e:	dd00      	ble.n	8001882 <__aeabi_dadd+0x296>
 8001880:	e166      	b.n	8001b50 <__aeabi_dadd+0x564>
 8001882:	2b1f      	cmp	r3, #31
 8001884:	dd00      	ble.n	8001888 <__aeabi_dadd+0x29c>
 8001886:	e183      	b.n	8001b90 <__aeabi_dadd+0x5a4>
 8001888:	2420      	movs	r4, #32
 800188a:	0005      	movs	r5, r0
 800188c:	1ae4      	subs	r4, r4, r3
 800188e:	000f      	movs	r7, r1
 8001890:	40dd      	lsrs	r5, r3
 8001892:	40d9      	lsrs	r1, r3
 8001894:	40a0      	lsls	r0, r4
 8001896:	4643      	mov	r3, r8
 8001898:	40a7      	lsls	r7, r4
 800189a:	1a5b      	subs	r3, r3, r1
 800189c:	1e44      	subs	r4, r0, #1
 800189e:	41a0      	sbcs	r0, r4
 80018a0:	4698      	mov	r8, r3
 80018a2:	432f      	orrs	r7, r5
 80018a4:	4338      	orrs	r0, r7
 80018a6:	1a17      	subs	r7, r2, r0
 80018a8:	42ba      	cmp	r2, r7
 80018aa:	4192      	sbcs	r2, r2
 80018ac:	4643      	mov	r3, r8
 80018ae:	4252      	negs	r2, r2
 80018b0:	1a99      	subs	r1, r3, r2
 80018b2:	4664      	mov	r4, ip
 80018b4:	0035      	movs	r5, r6
 80018b6:	e6ca      	b.n	800164e <__aeabi_dadd+0x62>
 80018b8:	2207      	movs	r2, #7
 80018ba:	403a      	ands	r2, r7
 80018bc:	2a00      	cmp	r2, #0
 80018be:	d000      	beq.n	80018c2 <__aeabi_dadd+0x2d6>
 80018c0:	e6f6      	b.n	80016b0 <__aeabi_dadd+0xc4>
 80018c2:	074b      	lsls	r3, r1, #29
 80018c4:	08ca      	lsrs	r2, r1, #3
 80018c6:	4948      	ldr	r1, [pc, #288]	; (80019e8 <__aeabi_dadd+0x3fc>)
 80018c8:	08ff      	lsrs	r7, r7, #3
 80018ca:	433b      	orrs	r3, r7
 80018cc:	428d      	cmp	r5, r1
 80018ce:	d196      	bne.n	80017fe <__aeabi_dadd+0x212>
 80018d0:	0019      	movs	r1, r3
 80018d2:	4311      	orrs	r1, r2
 80018d4:	d100      	bne.n	80018d8 <__aeabi_dadd+0x2ec>
 80018d6:	e19e      	b.n	8001c16 <__aeabi_dadd+0x62a>
 80018d8:	2180      	movs	r1, #128	; 0x80
 80018da:	0309      	lsls	r1, r1, #12
 80018dc:	430a      	orrs	r2, r1
 80018de:	0312      	lsls	r2, r2, #12
 80018e0:	0b12      	lsrs	r2, r2, #12
 80018e2:	4d41      	ldr	r5, [pc, #260]	; (80019e8 <__aeabi_dadd+0x3fc>)
 80018e4:	e78f      	b.n	8001806 <__aeabi_dadd+0x21a>
 80018e6:	0015      	movs	r5, r2
 80018e8:	2200      	movs	r2, #0
 80018ea:	2300      	movs	r3, #0
 80018ec:	e78b      	b.n	8001806 <__aeabi_dadd+0x21a>
 80018ee:	2b00      	cmp	r3, #0
 80018f0:	d000      	beq.n	80018f4 <__aeabi_dadd+0x308>
 80018f2:	e0c7      	b.n	8001a84 <__aeabi_dadd+0x498>
 80018f4:	1c6b      	adds	r3, r5, #1
 80018f6:	055f      	lsls	r7, r3, #21
 80018f8:	0d7f      	lsrs	r7, r7, #21
 80018fa:	2f01      	cmp	r7, #1
 80018fc:	dc00      	bgt.n	8001900 <__aeabi_dadd+0x314>
 80018fe:	e0f1      	b.n	8001ae4 <__aeabi_dadd+0x4f8>
 8001900:	4d39      	ldr	r5, [pc, #228]	; (80019e8 <__aeabi_dadd+0x3fc>)
 8001902:	42ab      	cmp	r3, r5
 8001904:	d100      	bne.n	8001908 <__aeabi_dadd+0x31c>
 8001906:	e0b9      	b.n	8001a7c <__aeabi_dadd+0x490>
 8001908:	1885      	adds	r5, r0, r2
 800190a:	000a      	movs	r2, r1
 800190c:	4285      	cmp	r5, r0
 800190e:	4189      	sbcs	r1, r1
 8001910:	4442      	add	r2, r8
 8001912:	4249      	negs	r1, r1
 8001914:	1851      	adds	r1, r2, r1
 8001916:	2207      	movs	r2, #7
 8001918:	07cf      	lsls	r7, r1, #31
 800191a:	086d      	lsrs	r5, r5, #1
 800191c:	432f      	orrs	r7, r5
 800191e:	0849      	lsrs	r1, r1, #1
 8001920:	403a      	ands	r2, r7
 8001922:	001d      	movs	r5, r3
 8001924:	e6c2      	b.n	80016ac <__aeabi_dadd+0xc0>
 8001926:	2207      	movs	r2, #7
 8001928:	4930      	ldr	r1, [pc, #192]	; (80019ec <__aeabi_dadd+0x400>)
 800192a:	1aed      	subs	r5, r5, r3
 800192c:	4031      	ands	r1, r6
 800192e:	403a      	ands	r2, r7
 8001930:	e6bc      	b.n	80016ac <__aeabi_dadd+0xc0>
 8001932:	003e      	movs	r6, r7
 8001934:	3828      	subs	r0, #40	; 0x28
 8001936:	4086      	lsls	r6, r0
 8001938:	2700      	movs	r7, #0
 800193a:	e69f      	b.n	800167c <__aeabi_dadd+0x90>
 800193c:	0038      	movs	r0, r7
 800193e:	f001 fcc9 	bl	80032d4 <__clzsi2>
 8001942:	3020      	adds	r0, #32
 8001944:	e68e      	b.n	8001664 <__aeabi_dadd+0x78>
 8001946:	4643      	mov	r3, r8
 8001948:	4313      	orrs	r3, r2
 800194a:	001f      	movs	r7, r3
 800194c:	1e7a      	subs	r2, r7, #1
 800194e:	4197      	sbcs	r7, r2
 8001950:	1bc7      	subs	r7, r0, r7
 8001952:	42b8      	cmp	r0, r7
 8001954:	4180      	sbcs	r0, r0
 8001956:	4240      	negs	r0, r0
 8001958:	1a09      	subs	r1, r1, r0
 800195a:	e678      	b.n	800164e <__aeabi_dadd+0x62>
 800195c:	000e      	movs	r6, r1
 800195e:	003b      	movs	r3, r7
 8001960:	4306      	orrs	r6, r0
 8001962:	4313      	orrs	r3, r2
 8001964:	2d00      	cmp	r5, #0
 8001966:	d161      	bne.n	8001a2c <__aeabi_dadd+0x440>
 8001968:	2e00      	cmp	r6, #0
 800196a:	d000      	beq.n	800196e <__aeabi_dadd+0x382>
 800196c:	e0f4      	b.n	8001b58 <__aeabi_dadd+0x56c>
 800196e:	2b00      	cmp	r3, #0
 8001970:	d100      	bne.n	8001974 <__aeabi_dadd+0x388>
 8001972:	e11b      	b.n	8001bac <__aeabi_dadd+0x5c0>
 8001974:	4664      	mov	r4, ip
 8001976:	0039      	movs	r1, r7
 8001978:	0010      	movs	r0, r2
 800197a:	e739      	b.n	80017f0 <__aeabi_dadd+0x204>
 800197c:	4f1a      	ldr	r7, [pc, #104]	; (80019e8 <__aeabi_dadd+0x3fc>)
 800197e:	42bb      	cmp	r3, r7
 8001980:	d07a      	beq.n	8001a78 <__aeabi_dadd+0x48c>
 8001982:	0033      	movs	r3, r6
 8001984:	e6ff      	b.n	8001786 <__aeabi_dadd+0x19a>
 8001986:	0030      	movs	r0, r6
 8001988:	3d1f      	subs	r5, #31
 800198a:	40e8      	lsrs	r0, r5
 800198c:	2b20      	cmp	r3, #32
 800198e:	d003      	beq.n	8001998 <__aeabi_dadd+0x3ac>
 8001990:	2140      	movs	r1, #64	; 0x40
 8001992:	1acb      	subs	r3, r1, r3
 8001994:	409e      	lsls	r6, r3
 8001996:	4337      	orrs	r7, r6
 8001998:	1e7b      	subs	r3, r7, #1
 800199a:	419f      	sbcs	r7, r3
 800199c:	2207      	movs	r2, #7
 800199e:	4307      	orrs	r7, r0
 80019a0:	403a      	ands	r2, r7
 80019a2:	2100      	movs	r1, #0
 80019a4:	2500      	movs	r5, #0
 80019a6:	e789      	b.n	80018bc <__aeabi_dadd+0x2d0>
 80019a8:	1a17      	subs	r7, r2, r0
 80019aa:	4643      	mov	r3, r8
 80019ac:	42ba      	cmp	r2, r7
 80019ae:	41b6      	sbcs	r6, r6
 80019b0:	1a59      	subs	r1, r3, r1
 80019b2:	4276      	negs	r6, r6
 80019b4:	1b8e      	subs	r6, r1, r6
 80019b6:	4664      	mov	r4, ip
 80019b8:	e64e      	b.n	8001658 <__aeabi_dadd+0x6c>
 80019ba:	2b1f      	cmp	r3, #31
 80019bc:	dd00      	ble.n	80019c0 <__aeabi_dadd+0x3d4>
 80019be:	e0ad      	b.n	8001b1c <__aeabi_dadd+0x530>
 80019c0:	2620      	movs	r6, #32
 80019c2:	4647      	mov	r7, r8
 80019c4:	1af6      	subs	r6, r6, r3
 80019c6:	40b7      	lsls	r7, r6
 80019c8:	46b9      	mov	r9, r7
 80019ca:	0017      	movs	r7, r2
 80019cc:	46b2      	mov	sl, r6
 80019ce:	40df      	lsrs	r7, r3
 80019d0:	464e      	mov	r6, r9
 80019d2:	433e      	orrs	r6, r7
 80019d4:	0037      	movs	r7, r6
 80019d6:	4656      	mov	r6, sl
 80019d8:	40b2      	lsls	r2, r6
 80019da:	1e56      	subs	r6, r2, #1
 80019dc:	41b2      	sbcs	r2, r6
 80019de:	4317      	orrs	r7, r2
 80019e0:	4642      	mov	r2, r8
 80019e2:	40da      	lsrs	r2, r3
 80019e4:	1889      	adds	r1, r1, r2
 80019e6:	e6ae      	b.n	8001746 <__aeabi_dadd+0x15a>
 80019e8:	000007ff 	.word	0x000007ff
 80019ec:	ff7fffff 	.word	0xff7fffff
 80019f0:	800fffff 	.word	0x800fffff
 80019f4:	2620      	movs	r6, #32
 80019f6:	4647      	mov	r7, r8
 80019f8:	1af6      	subs	r6, r6, r3
 80019fa:	40b7      	lsls	r7, r6
 80019fc:	46b9      	mov	r9, r7
 80019fe:	0017      	movs	r7, r2
 8001a00:	46b2      	mov	sl, r6
 8001a02:	40df      	lsrs	r7, r3
 8001a04:	464e      	mov	r6, r9
 8001a06:	433e      	orrs	r6, r7
 8001a08:	0037      	movs	r7, r6
 8001a0a:	4656      	mov	r6, sl
 8001a0c:	40b2      	lsls	r2, r6
 8001a0e:	1e56      	subs	r6, r2, #1
 8001a10:	41b2      	sbcs	r2, r6
 8001a12:	4317      	orrs	r7, r2
 8001a14:	4642      	mov	r2, r8
 8001a16:	40da      	lsrs	r2, r3
 8001a18:	1a89      	subs	r1, r1, r2
 8001a1a:	e799      	b.n	8001950 <__aeabi_dadd+0x364>
 8001a1c:	4c7f      	ldr	r4, [pc, #508]	; (8001c1c <__aeabi_dadd+0x630>)
 8001a1e:	42a6      	cmp	r6, r4
 8001a20:	d05b      	beq.n	8001ada <__aeabi_dadd+0x4ee>
 8001a22:	2480      	movs	r4, #128	; 0x80
 8001a24:	0424      	lsls	r4, r4, #16
 8001a26:	425b      	negs	r3, r3
 8001a28:	4321      	orrs	r1, r4
 8001a2a:	e727      	b.n	800187c <__aeabi_dadd+0x290>
 8001a2c:	2e00      	cmp	r6, #0
 8001a2e:	d10c      	bne.n	8001a4a <__aeabi_dadd+0x45e>
 8001a30:	2b00      	cmp	r3, #0
 8001a32:	d100      	bne.n	8001a36 <__aeabi_dadd+0x44a>
 8001a34:	e0cb      	b.n	8001bce <__aeabi_dadd+0x5e2>
 8001a36:	4664      	mov	r4, ip
 8001a38:	0039      	movs	r1, r7
 8001a3a:	0010      	movs	r0, r2
 8001a3c:	4d77      	ldr	r5, [pc, #476]	; (8001c1c <__aeabi_dadd+0x630>)
 8001a3e:	e6d7      	b.n	80017f0 <__aeabi_dadd+0x204>
 8001a40:	4f76      	ldr	r7, [pc, #472]	; (8001c1c <__aeabi_dadd+0x630>)
 8001a42:	42bb      	cmp	r3, r7
 8001a44:	d018      	beq.n	8001a78 <__aeabi_dadd+0x48c>
 8001a46:	0033      	movs	r3, r6
 8001a48:	e675      	b.n	8001736 <__aeabi_dadd+0x14a>
 8001a4a:	2b00      	cmp	r3, #0
 8001a4c:	d014      	beq.n	8001a78 <__aeabi_dadd+0x48c>
 8001a4e:	074b      	lsls	r3, r1, #29
 8001a50:	08c0      	lsrs	r0, r0, #3
 8001a52:	4318      	orrs	r0, r3
 8001a54:	2380      	movs	r3, #128	; 0x80
 8001a56:	08c9      	lsrs	r1, r1, #3
 8001a58:	031b      	lsls	r3, r3, #12
 8001a5a:	4219      	tst	r1, r3
 8001a5c:	d007      	beq.n	8001a6e <__aeabi_dadd+0x482>
 8001a5e:	08fc      	lsrs	r4, r7, #3
 8001a60:	421c      	tst	r4, r3
 8001a62:	d104      	bne.n	8001a6e <__aeabi_dadd+0x482>
 8001a64:	0779      	lsls	r1, r7, #29
 8001a66:	08d0      	lsrs	r0, r2, #3
 8001a68:	4308      	orrs	r0, r1
 8001a6a:	46e1      	mov	r9, ip
 8001a6c:	0021      	movs	r1, r4
 8001a6e:	464c      	mov	r4, r9
 8001a70:	0f42      	lsrs	r2, r0, #29
 8001a72:	00c9      	lsls	r1, r1, #3
 8001a74:	4311      	orrs	r1, r2
 8001a76:	00c0      	lsls	r0, r0, #3
 8001a78:	4d68      	ldr	r5, [pc, #416]	; (8001c1c <__aeabi_dadd+0x630>)
 8001a7a:	e6b9      	b.n	80017f0 <__aeabi_dadd+0x204>
 8001a7c:	001d      	movs	r5, r3
 8001a7e:	2200      	movs	r2, #0
 8001a80:	2300      	movs	r3, #0
 8001a82:	e6c0      	b.n	8001806 <__aeabi_dadd+0x21a>
 8001a84:	2d00      	cmp	r5, #0
 8001a86:	d15b      	bne.n	8001b40 <__aeabi_dadd+0x554>
 8001a88:	000d      	movs	r5, r1
 8001a8a:	4305      	orrs	r5, r0
 8001a8c:	d100      	bne.n	8001a90 <__aeabi_dadd+0x4a4>
 8001a8e:	e6e2      	b.n	8001856 <__aeabi_dadd+0x26a>
 8001a90:	1c5d      	adds	r5, r3, #1
 8001a92:	d100      	bne.n	8001a96 <__aeabi_dadd+0x4aa>
 8001a94:	e0b0      	b.n	8001bf8 <__aeabi_dadd+0x60c>
 8001a96:	4d61      	ldr	r5, [pc, #388]	; (8001c1c <__aeabi_dadd+0x630>)
 8001a98:	42ae      	cmp	r6, r5
 8001a9a:	d01f      	beq.n	8001adc <__aeabi_dadd+0x4f0>
 8001a9c:	43db      	mvns	r3, r3
 8001a9e:	2b38      	cmp	r3, #56	; 0x38
 8001aa0:	dc71      	bgt.n	8001b86 <__aeabi_dadd+0x59a>
 8001aa2:	2b1f      	cmp	r3, #31
 8001aa4:	dd00      	ble.n	8001aa8 <__aeabi_dadd+0x4bc>
 8001aa6:	e096      	b.n	8001bd6 <__aeabi_dadd+0x5ea>
 8001aa8:	2520      	movs	r5, #32
 8001aaa:	000f      	movs	r7, r1
 8001aac:	1aed      	subs	r5, r5, r3
 8001aae:	40af      	lsls	r7, r5
 8001ab0:	46b9      	mov	r9, r7
 8001ab2:	0007      	movs	r7, r0
 8001ab4:	46aa      	mov	sl, r5
 8001ab6:	40df      	lsrs	r7, r3
 8001ab8:	464d      	mov	r5, r9
 8001aba:	433d      	orrs	r5, r7
 8001abc:	002f      	movs	r7, r5
 8001abe:	4655      	mov	r5, sl
 8001ac0:	40a8      	lsls	r0, r5
 8001ac2:	40d9      	lsrs	r1, r3
 8001ac4:	1e45      	subs	r5, r0, #1
 8001ac6:	41a8      	sbcs	r0, r5
 8001ac8:	4488      	add	r8, r1
 8001aca:	4307      	orrs	r7, r0
 8001acc:	18bf      	adds	r7, r7, r2
 8001ace:	4297      	cmp	r7, r2
 8001ad0:	4192      	sbcs	r2, r2
 8001ad2:	4251      	negs	r1, r2
 8001ad4:	4441      	add	r1, r8
 8001ad6:	0035      	movs	r5, r6
 8001ad8:	e63a      	b.n	8001750 <__aeabi_dadd+0x164>
 8001ada:	4664      	mov	r4, ip
 8001adc:	0035      	movs	r5, r6
 8001ade:	4641      	mov	r1, r8
 8001ae0:	0010      	movs	r0, r2
 8001ae2:	e685      	b.n	80017f0 <__aeabi_dadd+0x204>
 8001ae4:	000b      	movs	r3, r1
 8001ae6:	4303      	orrs	r3, r0
 8001ae8:	2d00      	cmp	r5, #0
 8001aea:	d000      	beq.n	8001aee <__aeabi_dadd+0x502>
 8001aec:	e663      	b.n	80017b6 <__aeabi_dadd+0x1ca>
 8001aee:	2b00      	cmp	r3, #0
 8001af0:	d0f5      	beq.n	8001ade <__aeabi_dadd+0x4f2>
 8001af2:	4643      	mov	r3, r8
 8001af4:	4313      	orrs	r3, r2
 8001af6:	d100      	bne.n	8001afa <__aeabi_dadd+0x50e>
 8001af8:	e67a      	b.n	80017f0 <__aeabi_dadd+0x204>
 8001afa:	1887      	adds	r7, r0, r2
 8001afc:	4287      	cmp	r7, r0
 8001afe:	4180      	sbcs	r0, r0
 8001b00:	2207      	movs	r2, #7
 8001b02:	4441      	add	r1, r8
 8001b04:	4240      	negs	r0, r0
 8001b06:	1809      	adds	r1, r1, r0
 8001b08:	403a      	ands	r2, r7
 8001b0a:	020b      	lsls	r3, r1, #8
 8001b0c:	d400      	bmi.n	8001b10 <__aeabi_dadd+0x524>
 8001b0e:	e6d5      	b.n	80018bc <__aeabi_dadd+0x2d0>
 8001b10:	4b43      	ldr	r3, [pc, #268]	; (8001c20 <__aeabi_dadd+0x634>)
 8001b12:	3501      	adds	r5, #1
 8001b14:	4019      	ands	r1, r3
 8001b16:	e5c9      	b.n	80016ac <__aeabi_dadd+0xc0>
 8001b18:	0038      	movs	r0, r7
 8001b1a:	e669      	b.n	80017f0 <__aeabi_dadd+0x204>
 8001b1c:	001e      	movs	r6, r3
 8001b1e:	4647      	mov	r7, r8
 8001b20:	3e20      	subs	r6, #32
 8001b22:	40f7      	lsrs	r7, r6
 8001b24:	46bc      	mov	ip, r7
 8001b26:	2b20      	cmp	r3, #32
 8001b28:	d004      	beq.n	8001b34 <__aeabi_dadd+0x548>
 8001b2a:	2640      	movs	r6, #64	; 0x40
 8001b2c:	1af3      	subs	r3, r6, r3
 8001b2e:	4646      	mov	r6, r8
 8001b30:	409e      	lsls	r6, r3
 8001b32:	4332      	orrs	r2, r6
 8001b34:	0017      	movs	r7, r2
 8001b36:	4663      	mov	r3, ip
 8001b38:	1e7a      	subs	r2, r7, #1
 8001b3a:	4197      	sbcs	r7, r2
 8001b3c:	431f      	orrs	r7, r3
 8001b3e:	e602      	b.n	8001746 <__aeabi_dadd+0x15a>
 8001b40:	4d36      	ldr	r5, [pc, #216]	; (8001c1c <__aeabi_dadd+0x630>)
 8001b42:	42ae      	cmp	r6, r5
 8001b44:	d0ca      	beq.n	8001adc <__aeabi_dadd+0x4f0>
 8001b46:	2580      	movs	r5, #128	; 0x80
 8001b48:	042d      	lsls	r5, r5, #16
 8001b4a:	425b      	negs	r3, r3
 8001b4c:	4329      	orrs	r1, r5
 8001b4e:	e7a6      	b.n	8001a9e <__aeabi_dadd+0x4b2>
 8001b50:	4308      	orrs	r0, r1
 8001b52:	1e41      	subs	r1, r0, #1
 8001b54:	4188      	sbcs	r0, r1
 8001b56:	e6a6      	b.n	80018a6 <__aeabi_dadd+0x2ba>
 8001b58:	2b00      	cmp	r3, #0
 8001b5a:	d100      	bne.n	8001b5e <__aeabi_dadd+0x572>
 8001b5c:	e648      	b.n	80017f0 <__aeabi_dadd+0x204>
 8001b5e:	1a87      	subs	r7, r0, r2
 8001b60:	4643      	mov	r3, r8
 8001b62:	42b8      	cmp	r0, r7
 8001b64:	41b6      	sbcs	r6, r6
 8001b66:	1acb      	subs	r3, r1, r3
 8001b68:	4276      	negs	r6, r6
 8001b6a:	1b9e      	subs	r6, r3, r6
 8001b6c:	0233      	lsls	r3, r6, #8
 8001b6e:	d54b      	bpl.n	8001c08 <__aeabi_dadd+0x61c>
 8001b70:	1a17      	subs	r7, r2, r0
 8001b72:	4643      	mov	r3, r8
 8001b74:	42ba      	cmp	r2, r7
 8001b76:	4192      	sbcs	r2, r2
 8001b78:	1a59      	subs	r1, r3, r1
 8001b7a:	4252      	negs	r2, r2
 8001b7c:	1a89      	subs	r1, r1, r2
 8001b7e:	2207      	movs	r2, #7
 8001b80:	4664      	mov	r4, ip
 8001b82:	403a      	ands	r2, r7
 8001b84:	e592      	b.n	80016ac <__aeabi_dadd+0xc0>
 8001b86:	4301      	orrs	r1, r0
 8001b88:	000f      	movs	r7, r1
 8001b8a:	1e79      	subs	r1, r7, #1
 8001b8c:	418f      	sbcs	r7, r1
 8001b8e:	e79d      	b.n	8001acc <__aeabi_dadd+0x4e0>
 8001b90:	001c      	movs	r4, r3
 8001b92:	000f      	movs	r7, r1
 8001b94:	3c20      	subs	r4, #32
 8001b96:	40e7      	lsrs	r7, r4
 8001b98:	2b20      	cmp	r3, #32
 8001b9a:	d003      	beq.n	8001ba4 <__aeabi_dadd+0x5b8>
 8001b9c:	2440      	movs	r4, #64	; 0x40
 8001b9e:	1ae3      	subs	r3, r4, r3
 8001ba0:	4099      	lsls	r1, r3
 8001ba2:	4308      	orrs	r0, r1
 8001ba4:	1e41      	subs	r1, r0, #1
 8001ba6:	4188      	sbcs	r0, r1
 8001ba8:	4338      	orrs	r0, r7
 8001baa:	e67c      	b.n	80018a6 <__aeabi_dadd+0x2ba>
 8001bac:	2200      	movs	r2, #0
 8001bae:	2400      	movs	r4, #0
 8001bb0:	e625      	b.n	80017fe <__aeabi_dadd+0x212>
 8001bb2:	1a17      	subs	r7, r2, r0
 8001bb4:	4643      	mov	r3, r8
 8001bb6:	42ba      	cmp	r2, r7
 8001bb8:	4192      	sbcs	r2, r2
 8001bba:	1a59      	subs	r1, r3, r1
 8001bbc:	4252      	negs	r2, r2
 8001bbe:	1a89      	subs	r1, r1, r2
 8001bc0:	4664      	mov	r4, ip
 8001bc2:	0035      	movs	r5, r6
 8001bc4:	e543      	b.n	800164e <__aeabi_dadd+0x62>
 8001bc6:	4641      	mov	r1, r8
 8001bc8:	0010      	movs	r0, r2
 8001bca:	4d14      	ldr	r5, [pc, #80]	; (8001c1c <__aeabi_dadd+0x630>)
 8001bcc:	e610      	b.n	80017f0 <__aeabi_dadd+0x204>
 8001bce:	2280      	movs	r2, #128	; 0x80
 8001bd0:	2400      	movs	r4, #0
 8001bd2:	0312      	lsls	r2, r2, #12
 8001bd4:	e680      	b.n	80018d8 <__aeabi_dadd+0x2ec>
 8001bd6:	001d      	movs	r5, r3
 8001bd8:	000f      	movs	r7, r1
 8001bda:	3d20      	subs	r5, #32
 8001bdc:	40ef      	lsrs	r7, r5
 8001bde:	46bc      	mov	ip, r7
 8001be0:	2b20      	cmp	r3, #32
 8001be2:	d003      	beq.n	8001bec <__aeabi_dadd+0x600>
 8001be4:	2540      	movs	r5, #64	; 0x40
 8001be6:	1aeb      	subs	r3, r5, r3
 8001be8:	4099      	lsls	r1, r3
 8001bea:	4308      	orrs	r0, r1
 8001bec:	0007      	movs	r7, r0
 8001bee:	4663      	mov	r3, ip
 8001bf0:	1e78      	subs	r0, r7, #1
 8001bf2:	4187      	sbcs	r7, r0
 8001bf4:	431f      	orrs	r7, r3
 8001bf6:	e769      	b.n	8001acc <__aeabi_dadd+0x4e0>
 8001bf8:	1887      	adds	r7, r0, r2
 8001bfa:	4297      	cmp	r7, r2
 8001bfc:	419b      	sbcs	r3, r3
 8001bfe:	4441      	add	r1, r8
 8001c00:	425b      	negs	r3, r3
 8001c02:	18c9      	adds	r1, r1, r3
 8001c04:	0035      	movs	r5, r6
 8001c06:	e5a3      	b.n	8001750 <__aeabi_dadd+0x164>
 8001c08:	003b      	movs	r3, r7
 8001c0a:	4333      	orrs	r3, r6
 8001c0c:	d0ce      	beq.n	8001bac <__aeabi_dadd+0x5c0>
 8001c0e:	2207      	movs	r2, #7
 8001c10:	0031      	movs	r1, r6
 8001c12:	403a      	ands	r2, r7
 8001c14:	e652      	b.n	80018bc <__aeabi_dadd+0x2d0>
 8001c16:	2300      	movs	r3, #0
 8001c18:	001a      	movs	r2, r3
 8001c1a:	e5f4      	b.n	8001806 <__aeabi_dadd+0x21a>
 8001c1c:	000007ff 	.word	0x000007ff
 8001c20:	ff7fffff 	.word	0xff7fffff

08001c24 <__aeabi_ddiv>:
 8001c24:	b5f0      	push	{r4, r5, r6, r7, lr}
 8001c26:	4657      	mov	r7, sl
 8001c28:	46de      	mov	lr, fp
 8001c2a:	464e      	mov	r6, r9
 8001c2c:	4645      	mov	r5, r8
 8001c2e:	b5e0      	push	{r5, r6, r7, lr}
 8001c30:	4683      	mov	fp, r0
 8001c32:	0007      	movs	r7, r0
 8001c34:	030e      	lsls	r6, r1, #12
 8001c36:	0048      	lsls	r0, r1, #1
 8001c38:	b085      	sub	sp, #20
 8001c3a:	4692      	mov	sl, r2
 8001c3c:	001c      	movs	r4, r3
 8001c3e:	0b36      	lsrs	r6, r6, #12
 8001c40:	0d40      	lsrs	r0, r0, #21
 8001c42:	0fcd      	lsrs	r5, r1, #31
 8001c44:	2800      	cmp	r0, #0
 8001c46:	d100      	bne.n	8001c4a <__aeabi_ddiv+0x26>
 8001c48:	e09d      	b.n	8001d86 <__aeabi_ddiv+0x162>
 8001c4a:	4b95      	ldr	r3, [pc, #596]	; (8001ea0 <__aeabi_ddiv+0x27c>)
 8001c4c:	4298      	cmp	r0, r3
 8001c4e:	d039      	beq.n	8001cc4 <__aeabi_ddiv+0xa0>
 8001c50:	2380      	movs	r3, #128	; 0x80
 8001c52:	00f6      	lsls	r6, r6, #3
 8001c54:	041b      	lsls	r3, r3, #16
 8001c56:	431e      	orrs	r6, r3
 8001c58:	4a92      	ldr	r2, [pc, #584]	; (8001ea4 <__aeabi_ddiv+0x280>)
 8001c5a:	0f7b      	lsrs	r3, r7, #29
 8001c5c:	4333      	orrs	r3, r6
 8001c5e:	4699      	mov	r9, r3
 8001c60:	4694      	mov	ip, r2
 8001c62:	0003      	movs	r3, r0
 8001c64:	4463      	add	r3, ip
 8001c66:	9300      	str	r3, [sp, #0]
 8001c68:	2300      	movs	r3, #0
 8001c6a:	2600      	movs	r6, #0
 8001c6c:	00ff      	lsls	r7, r7, #3
 8001c6e:	9302      	str	r3, [sp, #8]
 8001c70:	0323      	lsls	r3, r4, #12
 8001c72:	0b1b      	lsrs	r3, r3, #12
 8001c74:	4698      	mov	r8, r3
 8001c76:	0063      	lsls	r3, r4, #1
 8001c78:	0fe4      	lsrs	r4, r4, #31
 8001c7a:	4652      	mov	r2, sl
 8001c7c:	0d5b      	lsrs	r3, r3, #21
 8001c7e:	9401      	str	r4, [sp, #4]
 8001c80:	d100      	bne.n	8001c84 <__aeabi_ddiv+0x60>
 8001c82:	e0b3      	b.n	8001dec <__aeabi_ddiv+0x1c8>
 8001c84:	4986      	ldr	r1, [pc, #536]	; (8001ea0 <__aeabi_ddiv+0x27c>)
 8001c86:	428b      	cmp	r3, r1
 8001c88:	d100      	bne.n	8001c8c <__aeabi_ddiv+0x68>
 8001c8a:	e09e      	b.n	8001dca <__aeabi_ddiv+0x1a6>
 8001c8c:	4642      	mov	r2, r8
 8001c8e:	00d1      	lsls	r1, r2, #3
 8001c90:	2280      	movs	r2, #128	; 0x80
 8001c92:	0412      	lsls	r2, r2, #16
 8001c94:	430a      	orrs	r2, r1
 8001c96:	4651      	mov	r1, sl
 8001c98:	0f49      	lsrs	r1, r1, #29
 8001c9a:	4311      	orrs	r1, r2
 8001c9c:	468b      	mov	fp, r1
 8001c9e:	4981      	ldr	r1, [pc, #516]	; (8001ea4 <__aeabi_ddiv+0x280>)
 8001ca0:	4652      	mov	r2, sl
 8001ca2:	468c      	mov	ip, r1
 8001ca4:	9900      	ldr	r1, [sp, #0]
 8001ca6:	4463      	add	r3, ip
 8001ca8:	1acb      	subs	r3, r1, r3
 8001caa:	2100      	movs	r1, #0
 8001cac:	00d2      	lsls	r2, r2, #3
 8001cae:	9300      	str	r3, [sp, #0]
 8001cb0:	002b      	movs	r3, r5
 8001cb2:	4063      	eors	r3, r4
 8001cb4:	469a      	mov	sl, r3
 8001cb6:	2e0f      	cmp	r6, #15
 8001cb8:	d900      	bls.n	8001cbc <__aeabi_ddiv+0x98>
 8001cba:	e105      	b.n	8001ec8 <__aeabi_ddiv+0x2a4>
 8001cbc:	4b7a      	ldr	r3, [pc, #488]	; (8001ea8 <__aeabi_ddiv+0x284>)
 8001cbe:	00b6      	lsls	r6, r6, #2
 8001cc0:	599b      	ldr	r3, [r3, r6]
 8001cc2:	469f      	mov	pc, r3
 8001cc4:	465b      	mov	r3, fp
 8001cc6:	4333      	orrs	r3, r6
 8001cc8:	4699      	mov	r9, r3
 8001cca:	d000      	beq.n	8001cce <__aeabi_ddiv+0xaa>
 8001ccc:	e0b8      	b.n	8001e40 <__aeabi_ddiv+0x21c>
 8001cce:	2302      	movs	r3, #2
 8001cd0:	2608      	movs	r6, #8
 8001cd2:	2700      	movs	r7, #0
 8001cd4:	9000      	str	r0, [sp, #0]
 8001cd6:	9302      	str	r3, [sp, #8]
 8001cd8:	e7ca      	b.n	8001c70 <__aeabi_ddiv+0x4c>
 8001cda:	46cb      	mov	fp, r9
 8001cdc:	003a      	movs	r2, r7
 8001cde:	9902      	ldr	r1, [sp, #8]
 8001ce0:	9501      	str	r5, [sp, #4]
 8001ce2:	9b01      	ldr	r3, [sp, #4]
 8001ce4:	469a      	mov	sl, r3
 8001ce6:	2902      	cmp	r1, #2
 8001ce8:	d027      	beq.n	8001d3a <__aeabi_ddiv+0x116>
 8001cea:	2903      	cmp	r1, #3
 8001cec:	d100      	bne.n	8001cf0 <__aeabi_ddiv+0xcc>
 8001cee:	e280      	b.n	80021f2 <__aeabi_ddiv+0x5ce>
 8001cf0:	2901      	cmp	r1, #1
 8001cf2:	d044      	beq.n	8001d7e <__aeabi_ddiv+0x15a>
 8001cf4:	496d      	ldr	r1, [pc, #436]	; (8001eac <__aeabi_ddiv+0x288>)
 8001cf6:	9b00      	ldr	r3, [sp, #0]
 8001cf8:	468c      	mov	ip, r1
 8001cfa:	4463      	add	r3, ip
 8001cfc:	001c      	movs	r4, r3
 8001cfe:	2c00      	cmp	r4, #0
 8001d00:	dd38      	ble.n	8001d74 <__aeabi_ddiv+0x150>
 8001d02:	0753      	lsls	r3, r2, #29
 8001d04:	d000      	beq.n	8001d08 <__aeabi_ddiv+0xe4>
 8001d06:	e213      	b.n	8002130 <__aeabi_ddiv+0x50c>
 8001d08:	08d2      	lsrs	r2, r2, #3
 8001d0a:	465b      	mov	r3, fp
 8001d0c:	01db      	lsls	r3, r3, #7
 8001d0e:	d509      	bpl.n	8001d24 <__aeabi_ddiv+0x100>
 8001d10:	4659      	mov	r1, fp
 8001d12:	4b67      	ldr	r3, [pc, #412]	; (8001eb0 <__aeabi_ddiv+0x28c>)
 8001d14:	4019      	ands	r1, r3
 8001d16:	468b      	mov	fp, r1
 8001d18:	2180      	movs	r1, #128	; 0x80
 8001d1a:	00c9      	lsls	r1, r1, #3
 8001d1c:	468c      	mov	ip, r1
 8001d1e:	9b00      	ldr	r3, [sp, #0]
 8001d20:	4463      	add	r3, ip
 8001d22:	001c      	movs	r4, r3
 8001d24:	4b63      	ldr	r3, [pc, #396]	; (8001eb4 <__aeabi_ddiv+0x290>)
 8001d26:	429c      	cmp	r4, r3
 8001d28:	dc07      	bgt.n	8001d3a <__aeabi_ddiv+0x116>
 8001d2a:	465b      	mov	r3, fp
 8001d2c:	0564      	lsls	r4, r4, #21
 8001d2e:	075f      	lsls	r7, r3, #29
 8001d30:	025b      	lsls	r3, r3, #9
 8001d32:	4317      	orrs	r7, r2
 8001d34:	0b1b      	lsrs	r3, r3, #12
 8001d36:	0d62      	lsrs	r2, r4, #21
 8001d38:	e002      	b.n	8001d40 <__aeabi_ddiv+0x11c>
 8001d3a:	2300      	movs	r3, #0
 8001d3c:	2700      	movs	r7, #0
 8001d3e:	4a58      	ldr	r2, [pc, #352]	; (8001ea0 <__aeabi_ddiv+0x27c>)
 8001d40:	2100      	movs	r1, #0
 8001d42:	031b      	lsls	r3, r3, #12
 8001d44:	0b1c      	lsrs	r4, r3, #12
 8001d46:	0d0b      	lsrs	r3, r1, #20
 8001d48:	051b      	lsls	r3, r3, #20
 8001d4a:	4323      	orrs	r3, r4
 8001d4c:	0514      	lsls	r4, r2, #20
 8001d4e:	4a5a      	ldr	r2, [pc, #360]	; (8001eb8 <__aeabi_ddiv+0x294>)
 8001d50:	0038      	movs	r0, r7
 8001d52:	4013      	ands	r3, r2
 8001d54:	431c      	orrs	r4, r3
 8001d56:	4653      	mov	r3, sl
 8001d58:	0064      	lsls	r4, r4, #1
 8001d5a:	07db      	lsls	r3, r3, #31
 8001d5c:	0864      	lsrs	r4, r4, #1
 8001d5e:	431c      	orrs	r4, r3
 8001d60:	0021      	movs	r1, r4
 8001d62:	b005      	add	sp, #20
 8001d64:	bc3c      	pop	{r2, r3, r4, r5}
 8001d66:	4690      	mov	r8, r2
 8001d68:	4699      	mov	r9, r3
 8001d6a:	46a2      	mov	sl, r4
 8001d6c:	46ab      	mov	fp, r5
 8001d6e:	bdf0      	pop	{r4, r5, r6, r7, pc}
 8001d70:	2201      	movs	r2, #1
 8001d72:	4252      	negs	r2, r2
 8001d74:	2301      	movs	r3, #1
 8001d76:	1b1b      	subs	r3, r3, r4
 8001d78:	2b38      	cmp	r3, #56	; 0x38
 8001d7a:	dc00      	bgt.n	8001d7e <__aeabi_ddiv+0x15a>
 8001d7c:	e1ad      	b.n	80020da <__aeabi_ddiv+0x4b6>
 8001d7e:	2200      	movs	r2, #0
 8001d80:	2300      	movs	r3, #0
 8001d82:	2700      	movs	r7, #0
 8001d84:	e7dc      	b.n	8001d40 <__aeabi_ddiv+0x11c>
 8001d86:	465b      	mov	r3, fp
 8001d88:	4333      	orrs	r3, r6
 8001d8a:	4699      	mov	r9, r3
 8001d8c:	d05e      	beq.n	8001e4c <__aeabi_ddiv+0x228>
 8001d8e:	2e00      	cmp	r6, #0
 8001d90:	d100      	bne.n	8001d94 <__aeabi_ddiv+0x170>
 8001d92:	e18a      	b.n	80020aa <__aeabi_ddiv+0x486>
 8001d94:	0030      	movs	r0, r6
 8001d96:	f001 fa9d 	bl	80032d4 <__clzsi2>
 8001d9a:	0003      	movs	r3, r0
 8001d9c:	3b0b      	subs	r3, #11
 8001d9e:	2b1c      	cmp	r3, #28
 8001da0:	dd00      	ble.n	8001da4 <__aeabi_ddiv+0x180>
 8001da2:	e17b      	b.n	800209c <__aeabi_ddiv+0x478>
 8001da4:	221d      	movs	r2, #29
 8001da6:	1ad3      	subs	r3, r2, r3
 8001da8:	465a      	mov	r2, fp
 8001daa:	0001      	movs	r1, r0
 8001dac:	40da      	lsrs	r2, r3
 8001dae:	3908      	subs	r1, #8
 8001db0:	408e      	lsls	r6, r1
 8001db2:	0013      	movs	r3, r2
 8001db4:	465f      	mov	r7, fp
 8001db6:	4333      	orrs	r3, r6
 8001db8:	4699      	mov	r9, r3
 8001dba:	408f      	lsls	r7, r1
 8001dbc:	4b3f      	ldr	r3, [pc, #252]	; (8001ebc <__aeabi_ddiv+0x298>)
 8001dbe:	2600      	movs	r6, #0
 8001dc0:	1a1b      	subs	r3, r3, r0
 8001dc2:	9300      	str	r3, [sp, #0]
 8001dc4:	2300      	movs	r3, #0
 8001dc6:	9302      	str	r3, [sp, #8]
 8001dc8:	e752      	b.n	8001c70 <__aeabi_ddiv+0x4c>
 8001dca:	4641      	mov	r1, r8
 8001dcc:	4653      	mov	r3, sl
 8001dce:	430b      	orrs	r3, r1
 8001dd0:	493b      	ldr	r1, [pc, #236]	; (8001ec0 <__aeabi_ddiv+0x29c>)
 8001dd2:	469b      	mov	fp, r3
 8001dd4:	468c      	mov	ip, r1
 8001dd6:	9b00      	ldr	r3, [sp, #0]
 8001dd8:	4463      	add	r3, ip
 8001dda:	9300      	str	r3, [sp, #0]
 8001ddc:	465b      	mov	r3, fp
 8001dde:	2b00      	cmp	r3, #0
 8001de0:	d13b      	bne.n	8001e5a <__aeabi_ddiv+0x236>
 8001de2:	2302      	movs	r3, #2
 8001de4:	2200      	movs	r2, #0
 8001de6:	431e      	orrs	r6, r3
 8001de8:	2102      	movs	r1, #2
 8001dea:	e761      	b.n	8001cb0 <__aeabi_ddiv+0x8c>
 8001dec:	4643      	mov	r3, r8
 8001dee:	4313      	orrs	r3, r2
 8001df0:	469b      	mov	fp, r3
 8001df2:	d037      	beq.n	8001e64 <__aeabi_ddiv+0x240>
 8001df4:	4643      	mov	r3, r8
 8001df6:	2b00      	cmp	r3, #0
 8001df8:	d100      	bne.n	8001dfc <__aeabi_ddiv+0x1d8>
 8001dfa:	e162      	b.n	80020c2 <__aeabi_ddiv+0x49e>
 8001dfc:	4640      	mov	r0, r8
 8001dfe:	f001 fa69 	bl	80032d4 <__clzsi2>
 8001e02:	0003      	movs	r3, r0
 8001e04:	3b0b      	subs	r3, #11
 8001e06:	2b1c      	cmp	r3, #28
 8001e08:	dd00      	ble.n	8001e0c <__aeabi_ddiv+0x1e8>
 8001e0a:	e153      	b.n	80020b4 <__aeabi_ddiv+0x490>
 8001e0c:	0002      	movs	r2, r0
 8001e0e:	4641      	mov	r1, r8
 8001e10:	3a08      	subs	r2, #8
 8001e12:	4091      	lsls	r1, r2
 8001e14:	4688      	mov	r8, r1
 8001e16:	211d      	movs	r1, #29
 8001e18:	1acb      	subs	r3, r1, r3
 8001e1a:	4651      	mov	r1, sl
 8001e1c:	40d9      	lsrs	r1, r3
 8001e1e:	000b      	movs	r3, r1
 8001e20:	4641      	mov	r1, r8
 8001e22:	430b      	orrs	r3, r1
 8001e24:	469b      	mov	fp, r3
 8001e26:	4653      	mov	r3, sl
 8001e28:	4093      	lsls	r3, r2
 8001e2a:	001a      	movs	r2, r3
 8001e2c:	9b00      	ldr	r3, [sp, #0]
 8001e2e:	4925      	ldr	r1, [pc, #148]	; (8001ec4 <__aeabi_ddiv+0x2a0>)
 8001e30:	469c      	mov	ip, r3
 8001e32:	4460      	add	r0, ip
 8001e34:	0003      	movs	r3, r0
 8001e36:	468c      	mov	ip, r1
 8001e38:	4463      	add	r3, ip
 8001e3a:	9300      	str	r3, [sp, #0]
 8001e3c:	2100      	movs	r1, #0
 8001e3e:	e737      	b.n	8001cb0 <__aeabi_ddiv+0x8c>
 8001e40:	2303      	movs	r3, #3
 8001e42:	46b1      	mov	r9, r6
 8001e44:	9000      	str	r0, [sp, #0]
 8001e46:	260c      	movs	r6, #12
 8001e48:	9302      	str	r3, [sp, #8]
 8001e4a:	e711      	b.n	8001c70 <__aeabi_ddiv+0x4c>
 8001e4c:	2300      	movs	r3, #0
 8001e4e:	9300      	str	r3, [sp, #0]
 8001e50:	3301      	adds	r3, #1
 8001e52:	2604      	movs	r6, #4
 8001e54:	2700      	movs	r7, #0
 8001e56:	9302      	str	r3, [sp, #8]
 8001e58:	e70a      	b.n	8001c70 <__aeabi_ddiv+0x4c>
 8001e5a:	2303      	movs	r3, #3
 8001e5c:	46c3      	mov	fp, r8
 8001e5e:	431e      	orrs	r6, r3
 8001e60:	2103      	movs	r1, #3
 8001e62:	e725      	b.n	8001cb0 <__aeabi_ddiv+0x8c>
 8001e64:	3301      	adds	r3, #1
 8001e66:	431e      	orrs	r6, r3
 8001e68:	2200      	movs	r2, #0
 8001e6a:	2101      	movs	r1, #1
 8001e6c:	e720      	b.n	8001cb0 <__aeabi_ddiv+0x8c>
 8001e6e:	2300      	movs	r3, #0
 8001e70:	469a      	mov	sl, r3
 8001e72:	2380      	movs	r3, #128	; 0x80
 8001e74:	2700      	movs	r7, #0
 8001e76:	031b      	lsls	r3, r3, #12
 8001e78:	4a09      	ldr	r2, [pc, #36]	; (8001ea0 <__aeabi_ddiv+0x27c>)
 8001e7a:	e761      	b.n	8001d40 <__aeabi_ddiv+0x11c>
 8001e7c:	2380      	movs	r3, #128	; 0x80
 8001e7e:	4649      	mov	r1, r9
 8001e80:	031b      	lsls	r3, r3, #12
 8001e82:	4219      	tst	r1, r3
 8001e84:	d100      	bne.n	8001e88 <__aeabi_ddiv+0x264>
 8001e86:	e0e2      	b.n	800204e <__aeabi_ddiv+0x42a>
 8001e88:	4659      	mov	r1, fp
 8001e8a:	4219      	tst	r1, r3
 8001e8c:	d000      	beq.n	8001e90 <__aeabi_ddiv+0x26c>
 8001e8e:	e0de      	b.n	800204e <__aeabi_ddiv+0x42a>
 8001e90:	430b      	orrs	r3, r1
 8001e92:	031b      	lsls	r3, r3, #12
 8001e94:	0017      	movs	r7, r2
 8001e96:	0b1b      	lsrs	r3, r3, #12
 8001e98:	46a2      	mov	sl, r4
 8001e9a:	4a01      	ldr	r2, [pc, #4]	; (8001ea0 <__aeabi_ddiv+0x27c>)
 8001e9c:	e750      	b.n	8001d40 <__aeabi_ddiv+0x11c>
 8001e9e:	46c0      	nop			; (mov r8, r8)
 8001ea0:	000007ff 	.word	0x000007ff
 8001ea4:	fffffc01 	.word	0xfffffc01
 8001ea8:	0801a8c4 	.word	0x0801a8c4
 8001eac:	000003ff 	.word	0x000003ff
 8001eb0:	feffffff 	.word	0xfeffffff
 8001eb4:	000007fe 	.word	0x000007fe
 8001eb8:	800fffff 	.word	0x800fffff
 8001ebc:	fffffc0d 	.word	0xfffffc0d
 8001ec0:	fffff801 	.word	0xfffff801
 8001ec4:	000003f3 	.word	0x000003f3
 8001ec8:	45d9      	cmp	r9, fp
 8001eca:	d900      	bls.n	8001ece <__aeabi_ddiv+0x2aa>
 8001ecc:	e0cb      	b.n	8002066 <__aeabi_ddiv+0x442>
 8001ece:	d100      	bne.n	8001ed2 <__aeabi_ddiv+0x2ae>
 8001ed0:	e0c6      	b.n	8002060 <__aeabi_ddiv+0x43c>
 8001ed2:	003c      	movs	r4, r7
 8001ed4:	4648      	mov	r0, r9
 8001ed6:	2700      	movs	r7, #0
 8001ed8:	9b00      	ldr	r3, [sp, #0]
 8001eda:	3b01      	subs	r3, #1
 8001edc:	9300      	str	r3, [sp, #0]
 8001ede:	465b      	mov	r3, fp
 8001ee0:	0e16      	lsrs	r6, r2, #24
 8001ee2:	021b      	lsls	r3, r3, #8
 8001ee4:	431e      	orrs	r6, r3
 8001ee6:	0213      	lsls	r3, r2, #8
 8001ee8:	4698      	mov	r8, r3
 8001eea:	0433      	lsls	r3, r6, #16
 8001eec:	0c1b      	lsrs	r3, r3, #16
 8001eee:	4699      	mov	r9, r3
 8001ef0:	0c31      	lsrs	r1, r6, #16
 8001ef2:	9101      	str	r1, [sp, #4]
 8001ef4:	f7fe f9be 	bl	8000274 <__aeabi_uidivmod>
 8001ef8:	464a      	mov	r2, r9
 8001efa:	4342      	muls	r2, r0
 8001efc:	040b      	lsls	r3, r1, #16
 8001efe:	0c21      	lsrs	r1, r4, #16
 8001f00:	0005      	movs	r5, r0
 8001f02:	4319      	orrs	r1, r3
 8001f04:	428a      	cmp	r2, r1
 8001f06:	d907      	bls.n	8001f18 <__aeabi_ddiv+0x2f4>
 8001f08:	1989      	adds	r1, r1, r6
 8001f0a:	3d01      	subs	r5, #1
 8001f0c:	428e      	cmp	r6, r1
 8001f0e:	d803      	bhi.n	8001f18 <__aeabi_ddiv+0x2f4>
 8001f10:	428a      	cmp	r2, r1
 8001f12:	d901      	bls.n	8001f18 <__aeabi_ddiv+0x2f4>
 8001f14:	1e85      	subs	r5, r0, #2
 8001f16:	1989      	adds	r1, r1, r6
 8001f18:	1a88      	subs	r0, r1, r2
 8001f1a:	9901      	ldr	r1, [sp, #4]
 8001f1c:	f7fe f9aa 	bl	8000274 <__aeabi_uidivmod>
 8001f20:	0409      	lsls	r1, r1, #16
 8001f22:	468c      	mov	ip, r1
 8001f24:	464a      	mov	r2, r9
 8001f26:	0421      	lsls	r1, r4, #16
 8001f28:	4664      	mov	r4, ip
 8001f2a:	4342      	muls	r2, r0
 8001f2c:	0c09      	lsrs	r1, r1, #16
 8001f2e:	0003      	movs	r3, r0
 8001f30:	4321      	orrs	r1, r4
 8001f32:	428a      	cmp	r2, r1
 8001f34:	d904      	bls.n	8001f40 <__aeabi_ddiv+0x31c>
 8001f36:	1989      	adds	r1, r1, r6
 8001f38:	3b01      	subs	r3, #1
 8001f3a:	428e      	cmp	r6, r1
 8001f3c:	d800      	bhi.n	8001f40 <__aeabi_ddiv+0x31c>
 8001f3e:	e0f1      	b.n	8002124 <__aeabi_ddiv+0x500>
 8001f40:	042d      	lsls	r5, r5, #16
 8001f42:	431d      	orrs	r5, r3
 8001f44:	46ab      	mov	fp, r5
 8001f46:	4643      	mov	r3, r8
 8001f48:	1a89      	subs	r1, r1, r2
 8001f4a:	4642      	mov	r2, r8
 8001f4c:	0c28      	lsrs	r0, r5, #16
 8001f4e:	0412      	lsls	r2, r2, #16
 8001f50:	0c1d      	lsrs	r5, r3, #16
 8001f52:	465b      	mov	r3, fp
 8001f54:	0c14      	lsrs	r4, r2, #16
 8001f56:	0022      	movs	r2, r4
 8001f58:	041b      	lsls	r3, r3, #16
 8001f5a:	0c1b      	lsrs	r3, r3, #16
 8001f5c:	435a      	muls	r2, r3
 8001f5e:	9403      	str	r4, [sp, #12]
 8001f60:	436b      	muls	r3, r5
 8001f62:	4344      	muls	r4, r0
 8001f64:	9502      	str	r5, [sp, #8]
 8001f66:	4368      	muls	r0, r5
 8001f68:	191b      	adds	r3, r3, r4
 8001f6a:	0c15      	lsrs	r5, r2, #16
 8001f6c:	18eb      	adds	r3, r5, r3
 8001f6e:	429c      	cmp	r4, r3
 8001f70:	d903      	bls.n	8001f7a <__aeabi_ddiv+0x356>
 8001f72:	2480      	movs	r4, #128	; 0x80
 8001f74:	0264      	lsls	r4, r4, #9
 8001f76:	46a4      	mov	ip, r4
 8001f78:	4460      	add	r0, ip
 8001f7a:	0c1c      	lsrs	r4, r3, #16
 8001f7c:	0415      	lsls	r5, r2, #16
 8001f7e:	041b      	lsls	r3, r3, #16
 8001f80:	0c2d      	lsrs	r5, r5, #16
 8001f82:	1820      	adds	r0, r4, r0
 8001f84:	195d      	adds	r5, r3, r5
 8001f86:	4281      	cmp	r1, r0
 8001f88:	d377      	bcc.n	800207a <__aeabi_ddiv+0x456>
 8001f8a:	d073      	beq.n	8002074 <__aeabi_ddiv+0x450>
 8001f8c:	1a0c      	subs	r4, r1, r0
 8001f8e:	4aa2      	ldr	r2, [pc, #648]	; (8002218 <__aeabi_ddiv+0x5f4>)
 8001f90:	1b7d      	subs	r5, r7, r5
 8001f92:	42af      	cmp	r7, r5
 8001f94:	41bf      	sbcs	r7, r7
 8001f96:	4694      	mov	ip, r2
 8001f98:	9b00      	ldr	r3, [sp, #0]
 8001f9a:	427f      	negs	r7, r7
 8001f9c:	4463      	add	r3, ip
 8001f9e:	1be0      	subs	r0, r4, r7
 8001fa0:	001c      	movs	r4, r3
 8001fa2:	4286      	cmp	r6, r0
 8001fa4:	d100      	bne.n	8001fa8 <__aeabi_ddiv+0x384>
 8001fa6:	e0db      	b.n	8002160 <__aeabi_ddiv+0x53c>
 8001fa8:	9901      	ldr	r1, [sp, #4]
 8001faa:	f7fe f963 	bl	8000274 <__aeabi_uidivmod>
 8001fae:	464a      	mov	r2, r9
 8001fb0:	4342      	muls	r2, r0
 8001fb2:	040b      	lsls	r3, r1, #16
 8001fb4:	0c29      	lsrs	r1, r5, #16
 8001fb6:	0007      	movs	r7, r0
 8001fb8:	4319      	orrs	r1, r3
 8001fba:	428a      	cmp	r2, r1
 8001fbc:	d907      	bls.n	8001fce <__aeabi_ddiv+0x3aa>
 8001fbe:	1989      	adds	r1, r1, r6
 8001fc0:	3f01      	subs	r7, #1
 8001fc2:	428e      	cmp	r6, r1
 8001fc4:	d803      	bhi.n	8001fce <__aeabi_ddiv+0x3aa>
 8001fc6:	428a      	cmp	r2, r1
 8001fc8:	d901      	bls.n	8001fce <__aeabi_ddiv+0x3aa>
 8001fca:	1e87      	subs	r7, r0, #2
 8001fcc:	1989      	adds	r1, r1, r6
 8001fce:	1a88      	subs	r0, r1, r2
 8001fd0:	9901      	ldr	r1, [sp, #4]
 8001fd2:	f7fe f94f 	bl	8000274 <__aeabi_uidivmod>
 8001fd6:	0409      	lsls	r1, r1, #16
 8001fd8:	464a      	mov	r2, r9
 8001fda:	4689      	mov	r9, r1
 8001fdc:	0429      	lsls	r1, r5, #16
 8001fde:	464d      	mov	r5, r9
 8001fe0:	4342      	muls	r2, r0
 8001fe2:	0c09      	lsrs	r1, r1, #16
 8001fe4:	0003      	movs	r3, r0
 8001fe6:	4329      	orrs	r1, r5
 8001fe8:	428a      	cmp	r2, r1
 8001fea:	d907      	bls.n	8001ffc <__aeabi_ddiv+0x3d8>
 8001fec:	1989      	adds	r1, r1, r6
 8001fee:	3b01      	subs	r3, #1
 8001ff0:	428e      	cmp	r6, r1
 8001ff2:	d803      	bhi.n	8001ffc <__aeabi_ddiv+0x3d8>
 8001ff4:	428a      	cmp	r2, r1
 8001ff6:	d901      	bls.n	8001ffc <__aeabi_ddiv+0x3d8>
 8001ff8:	1e83      	subs	r3, r0, #2
 8001ffa:	1989      	adds	r1, r1, r6
 8001ffc:	043f      	lsls	r7, r7, #16
 8001ffe:	1a89      	subs	r1, r1, r2
 8002000:	003a      	movs	r2, r7
 8002002:	9f03      	ldr	r7, [sp, #12]
 8002004:	431a      	orrs	r2, r3
 8002006:	0038      	movs	r0, r7
 8002008:	0413      	lsls	r3, r2, #16
 800200a:	0c1b      	lsrs	r3, r3, #16
 800200c:	4358      	muls	r0, r3
 800200e:	4681      	mov	r9, r0
 8002010:	9802      	ldr	r0, [sp, #8]
 8002012:	0c15      	lsrs	r5, r2, #16
 8002014:	436f      	muls	r7, r5
 8002016:	4343      	muls	r3, r0
 8002018:	4345      	muls	r5, r0
 800201a:	4648      	mov	r0, r9
 800201c:	0c00      	lsrs	r0, r0, #16
 800201e:	4684      	mov	ip, r0
 8002020:	19db      	adds	r3, r3, r7
 8002022:	4463      	add	r3, ip
 8002024:	429f      	cmp	r7, r3
 8002026:	d903      	bls.n	8002030 <__aeabi_ddiv+0x40c>
 8002028:	2080      	movs	r0, #128	; 0x80
 800202a:	0240      	lsls	r0, r0, #9
 800202c:	4684      	mov	ip, r0
 800202e:	4465      	add	r5, ip
 8002030:	4648      	mov	r0, r9
 8002032:	0c1f      	lsrs	r7, r3, #16
 8002034:	0400      	lsls	r0, r0, #16
 8002036:	041b      	lsls	r3, r3, #16
 8002038:	0c00      	lsrs	r0, r0, #16
 800203a:	197d      	adds	r5, r7, r5
 800203c:	1818      	adds	r0, r3, r0
 800203e:	42a9      	cmp	r1, r5
 8002040:	d200      	bcs.n	8002044 <__aeabi_ddiv+0x420>
 8002042:	e084      	b.n	800214e <__aeabi_ddiv+0x52a>
 8002044:	d100      	bne.n	8002048 <__aeabi_ddiv+0x424>
 8002046:	e07f      	b.n	8002148 <__aeabi_ddiv+0x524>
 8002048:	2301      	movs	r3, #1
 800204a:	431a      	orrs	r2, r3
 800204c:	e657      	b.n	8001cfe <__aeabi_ddiv+0xda>
 800204e:	2380      	movs	r3, #128	; 0x80
 8002050:	464a      	mov	r2, r9
 8002052:	031b      	lsls	r3, r3, #12
 8002054:	4313      	orrs	r3, r2
 8002056:	031b      	lsls	r3, r3, #12
 8002058:	0b1b      	lsrs	r3, r3, #12
 800205a:	46aa      	mov	sl, r5
 800205c:	4a6f      	ldr	r2, [pc, #444]	; (800221c <__aeabi_ddiv+0x5f8>)
 800205e:	e66f      	b.n	8001d40 <__aeabi_ddiv+0x11c>
 8002060:	42ba      	cmp	r2, r7
 8002062:	d900      	bls.n	8002066 <__aeabi_ddiv+0x442>
 8002064:	e735      	b.n	8001ed2 <__aeabi_ddiv+0x2ae>
 8002066:	464b      	mov	r3, r9
 8002068:	07dc      	lsls	r4, r3, #31
 800206a:	0858      	lsrs	r0, r3, #1
 800206c:	087b      	lsrs	r3, r7, #1
 800206e:	431c      	orrs	r4, r3
 8002070:	07ff      	lsls	r7, r7, #31
 8002072:	e734      	b.n	8001ede <__aeabi_ddiv+0x2ba>
 8002074:	2400      	movs	r4, #0
 8002076:	42af      	cmp	r7, r5
 8002078:	d289      	bcs.n	8001f8e <__aeabi_ddiv+0x36a>
 800207a:	4447      	add	r7, r8
 800207c:	4547      	cmp	r7, r8
 800207e:	41a4      	sbcs	r4, r4
 8002080:	465b      	mov	r3, fp
 8002082:	4264      	negs	r4, r4
 8002084:	19a4      	adds	r4, r4, r6
 8002086:	1864      	adds	r4, r4, r1
 8002088:	3b01      	subs	r3, #1
 800208a:	42a6      	cmp	r6, r4
 800208c:	d21e      	bcs.n	80020cc <__aeabi_ddiv+0x4a8>
 800208e:	42a0      	cmp	r0, r4
 8002090:	d86d      	bhi.n	800216e <__aeabi_ddiv+0x54a>
 8002092:	d100      	bne.n	8002096 <__aeabi_ddiv+0x472>
 8002094:	e0b6      	b.n	8002204 <__aeabi_ddiv+0x5e0>
 8002096:	1a24      	subs	r4, r4, r0
 8002098:	469b      	mov	fp, r3
 800209a:	e778      	b.n	8001f8e <__aeabi_ddiv+0x36a>
 800209c:	0003      	movs	r3, r0
 800209e:	465a      	mov	r2, fp
 80020a0:	3b28      	subs	r3, #40	; 0x28
 80020a2:	409a      	lsls	r2, r3
 80020a4:	2700      	movs	r7, #0
 80020a6:	4691      	mov	r9, r2
 80020a8:	e688      	b.n	8001dbc <__aeabi_ddiv+0x198>
 80020aa:	4658      	mov	r0, fp
 80020ac:	f001 f912 	bl	80032d4 <__clzsi2>
 80020b0:	3020      	adds	r0, #32
 80020b2:	e672      	b.n	8001d9a <__aeabi_ddiv+0x176>
 80020b4:	0003      	movs	r3, r0
 80020b6:	4652      	mov	r2, sl
 80020b8:	3b28      	subs	r3, #40	; 0x28
 80020ba:	409a      	lsls	r2, r3
 80020bc:	4693      	mov	fp, r2
 80020be:	2200      	movs	r2, #0
 80020c0:	e6b4      	b.n	8001e2c <__aeabi_ddiv+0x208>
 80020c2:	4650      	mov	r0, sl
 80020c4:	f001 f906 	bl	80032d4 <__clzsi2>
 80020c8:	3020      	adds	r0, #32
 80020ca:	e69a      	b.n	8001e02 <__aeabi_ddiv+0x1de>
 80020cc:	42a6      	cmp	r6, r4
 80020ce:	d1e2      	bne.n	8002096 <__aeabi_ddiv+0x472>
 80020d0:	45b8      	cmp	r8, r7
 80020d2:	d9dc      	bls.n	800208e <__aeabi_ddiv+0x46a>
 80020d4:	1a34      	subs	r4, r6, r0
 80020d6:	469b      	mov	fp, r3
 80020d8:	e759      	b.n	8001f8e <__aeabi_ddiv+0x36a>
 80020da:	2b1f      	cmp	r3, #31
 80020dc:	dc65      	bgt.n	80021aa <__aeabi_ddiv+0x586>
 80020de:	4c50      	ldr	r4, [pc, #320]	; (8002220 <__aeabi_ddiv+0x5fc>)
 80020e0:	9900      	ldr	r1, [sp, #0]
 80020e2:	46a4      	mov	ip, r4
 80020e4:	465c      	mov	r4, fp
 80020e6:	4461      	add	r1, ip
 80020e8:	0008      	movs	r0, r1
 80020ea:	408c      	lsls	r4, r1
 80020ec:	0011      	movs	r1, r2
 80020ee:	4082      	lsls	r2, r0
 80020f0:	40d9      	lsrs	r1, r3
 80020f2:	1e50      	subs	r0, r2, #1
 80020f4:	4182      	sbcs	r2, r0
 80020f6:	430c      	orrs	r4, r1
 80020f8:	4314      	orrs	r4, r2
 80020fa:	465a      	mov	r2, fp
 80020fc:	40da      	lsrs	r2, r3
 80020fe:	0013      	movs	r3, r2
 8002100:	0762      	lsls	r2, r4, #29
 8002102:	d009      	beq.n	8002118 <__aeabi_ddiv+0x4f4>
 8002104:	220f      	movs	r2, #15
 8002106:	4022      	ands	r2, r4
 8002108:	2a04      	cmp	r2, #4
 800210a:	d005      	beq.n	8002118 <__aeabi_ddiv+0x4f4>
 800210c:	0022      	movs	r2, r4
 800210e:	1d14      	adds	r4, r2, #4
 8002110:	4294      	cmp	r4, r2
 8002112:	4189      	sbcs	r1, r1
 8002114:	4249      	negs	r1, r1
 8002116:	185b      	adds	r3, r3, r1
 8002118:	021a      	lsls	r2, r3, #8
 800211a:	d562      	bpl.n	80021e2 <__aeabi_ddiv+0x5be>
 800211c:	2201      	movs	r2, #1
 800211e:	2300      	movs	r3, #0
 8002120:	2700      	movs	r7, #0
 8002122:	e60d      	b.n	8001d40 <__aeabi_ddiv+0x11c>
 8002124:	428a      	cmp	r2, r1
 8002126:	d800      	bhi.n	800212a <__aeabi_ddiv+0x506>
 8002128:	e70a      	b.n	8001f40 <__aeabi_ddiv+0x31c>
 800212a:	1e83      	subs	r3, r0, #2
 800212c:	1989      	adds	r1, r1, r6
 800212e:	e707      	b.n	8001f40 <__aeabi_ddiv+0x31c>
 8002130:	230f      	movs	r3, #15
 8002132:	4013      	ands	r3, r2
 8002134:	2b04      	cmp	r3, #4
 8002136:	d100      	bne.n	800213a <__aeabi_ddiv+0x516>
 8002138:	e5e6      	b.n	8001d08 <__aeabi_ddiv+0xe4>
 800213a:	1d17      	adds	r7, r2, #4
 800213c:	4297      	cmp	r7, r2
 800213e:	4192      	sbcs	r2, r2
 8002140:	4253      	negs	r3, r2
 8002142:	449b      	add	fp, r3
 8002144:	08fa      	lsrs	r2, r7, #3
 8002146:	e5e0      	b.n	8001d0a <__aeabi_ddiv+0xe6>
 8002148:	2800      	cmp	r0, #0
 800214a:	d100      	bne.n	800214e <__aeabi_ddiv+0x52a>
 800214c:	e5d7      	b.n	8001cfe <__aeabi_ddiv+0xda>
 800214e:	1871      	adds	r1, r6, r1
 8002150:	1e53      	subs	r3, r2, #1
 8002152:	42b1      	cmp	r1, r6
 8002154:	d327      	bcc.n	80021a6 <__aeabi_ddiv+0x582>
 8002156:	42a9      	cmp	r1, r5
 8002158:	d315      	bcc.n	8002186 <__aeabi_ddiv+0x562>
 800215a:	d058      	beq.n	800220e <__aeabi_ddiv+0x5ea>
 800215c:	001a      	movs	r2, r3
 800215e:	e773      	b.n	8002048 <__aeabi_ddiv+0x424>
 8002160:	2b00      	cmp	r3, #0
 8002162:	dc00      	bgt.n	8002166 <__aeabi_ddiv+0x542>
 8002164:	e604      	b.n	8001d70 <__aeabi_ddiv+0x14c>
 8002166:	2301      	movs	r3, #1
 8002168:	2200      	movs	r2, #0
 800216a:	449b      	add	fp, r3
 800216c:	e5cd      	b.n	8001d0a <__aeabi_ddiv+0xe6>
 800216e:	2302      	movs	r3, #2
 8002170:	4447      	add	r7, r8
 8002172:	4547      	cmp	r7, r8
 8002174:	4189      	sbcs	r1, r1
 8002176:	425b      	negs	r3, r3
 8002178:	469c      	mov	ip, r3
 800217a:	4249      	negs	r1, r1
 800217c:	1989      	adds	r1, r1, r6
 800217e:	190c      	adds	r4, r1, r4
 8002180:	44e3      	add	fp, ip
 8002182:	1a24      	subs	r4, r4, r0
 8002184:	e703      	b.n	8001f8e <__aeabi_ddiv+0x36a>
 8002186:	4643      	mov	r3, r8
 8002188:	005f      	lsls	r7, r3, #1
 800218a:	4547      	cmp	r7, r8
 800218c:	419b      	sbcs	r3, r3
 800218e:	46b8      	mov	r8, r7
 8002190:	425b      	negs	r3, r3
 8002192:	199e      	adds	r6, r3, r6
 8002194:	3a02      	subs	r2, #2
 8002196:	1989      	adds	r1, r1, r6
 8002198:	42a9      	cmp	r1, r5
 800219a:	d000      	beq.n	800219e <__aeabi_ddiv+0x57a>
 800219c:	e754      	b.n	8002048 <__aeabi_ddiv+0x424>
 800219e:	4540      	cmp	r0, r8
 80021a0:	d000      	beq.n	80021a4 <__aeabi_ddiv+0x580>
 80021a2:	e751      	b.n	8002048 <__aeabi_ddiv+0x424>
 80021a4:	e5ab      	b.n	8001cfe <__aeabi_ddiv+0xda>
 80021a6:	001a      	movs	r2, r3
 80021a8:	e7f6      	b.n	8002198 <__aeabi_ddiv+0x574>
 80021aa:	211f      	movs	r1, #31
 80021ac:	465f      	mov	r7, fp
 80021ae:	4249      	negs	r1, r1
 80021b0:	1b0c      	subs	r4, r1, r4
 80021b2:	40e7      	lsrs	r7, r4
 80021b4:	2b20      	cmp	r3, #32
 80021b6:	d007      	beq.n	80021c8 <__aeabi_ddiv+0x5a4>
 80021b8:	491a      	ldr	r1, [pc, #104]	; (8002224 <__aeabi_ddiv+0x600>)
 80021ba:	9b00      	ldr	r3, [sp, #0]
 80021bc:	468c      	mov	ip, r1
 80021be:	4463      	add	r3, ip
 80021c0:	0018      	movs	r0, r3
 80021c2:	465b      	mov	r3, fp
 80021c4:	4083      	lsls	r3, r0
 80021c6:	431a      	orrs	r2, r3
 80021c8:	1e50      	subs	r0, r2, #1
 80021ca:	4182      	sbcs	r2, r0
 80021cc:	433a      	orrs	r2, r7
 80021ce:	2707      	movs	r7, #7
 80021d0:	2300      	movs	r3, #0
 80021d2:	4017      	ands	r7, r2
 80021d4:	d009      	beq.n	80021ea <__aeabi_ddiv+0x5c6>
 80021d6:	210f      	movs	r1, #15
 80021d8:	2300      	movs	r3, #0
 80021da:	4011      	ands	r1, r2
 80021dc:	0014      	movs	r4, r2
 80021de:	2904      	cmp	r1, #4
 80021e0:	d195      	bne.n	800210e <__aeabi_ddiv+0x4ea>
 80021e2:	0022      	movs	r2, r4
 80021e4:	075f      	lsls	r7, r3, #29
 80021e6:	025b      	lsls	r3, r3, #9
 80021e8:	0b1b      	lsrs	r3, r3, #12
 80021ea:	08d2      	lsrs	r2, r2, #3
 80021ec:	4317      	orrs	r7, r2
 80021ee:	2200      	movs	r2, #0
 80021f0:	e5a6      	b.n	8001d40 <__aeabi_ddiv+0x11c>
 80021f2:	2380      	movs	r3, #128	; 0x80
 80021f4:	4659      	mov	r1, fp
 80021f6:	031b      	lsls	r3, r3, #12
 80021f8:	430b      	orrs	r3, r1
 80021fa:	031b      	lsls	r3, r3, #12
 80021fc:	0017      	movs	r7, r2
 80021fe:	0b1b      	lsrs	r3, r3, #12
 8002200:	4a06      	ldr	r2, [pc, #24]	; (800221c <__aeabi_ddiv+0x5f8>)
 8002202:	e59d      	b.n	8001d40 <__aeabi_ddiv+0x11c>
 8002204:	42bd      	cmp	r5, r7
 8002206:	d8b2      	bhi.n	800216e <__aeabi_ddiv+0x54a>
 8002208:	469b      	mov	fp, r3
 800220a:	2400      	movs	r4, #0
 800220c:	e6bf      	b.n	8001f8e <__aeabi_ddiv+0x36a>
 800220e:	4580      	cmp	r8, r0
 8002210:	d3b9      	bcc.n	8002186 <__aeabi_ddiv+0x562>
 8002212:	001a      	movs	r2, r3
 8002214:	e7c3      	b.n	800219e <__aeabi_ddiv+0x57a>
 8002216:	46c0      	nop			; (mov r8, r8)
 8002218:	000003ff 	.word	0x000003ff
 800221c:	000007ff 	.word	0x000007ff
 8002220:	0000041e 	.word	0x0000041e
 8002224:	0000043e 	.word	0x0000043e

08002228 <__eqdf2>:
 8002228:	b5f0      	push	{r4, r5, r6, r7, lr}
 800222a:	464f      	mov	r7, r9
 800222c:	4646      	mov	r6, r8
 800222e:	46d6      	mov	lr, sl
 8002230:	4684      	mov	ip, r0
 8002232:	b5c0      	push	{r6, r7, lr}
 8002234:	4680      	mov	r8, r0
 8002236:	4e19      	ldr	r6, [pc, #100]	; (800229c <__eqdf2+0x74>)
 8002238:	0318      	lsls	r0, r3, #12
 800223a:	030f      	lsls	r7, r1, #12
 800223c:	004d      	lsls	r5, r1, #1
 800223e:	0b00      	lsrs	r0, r0, #12
 8002240:	005c      	lsls	r4, r3, #1
 8002242:	4682      	mov	sl, r0
 8002244:	0b3f      	lsrs	r7, r7, #12
 8002246:	0d6d      	lsrs	r5, r5, #21
 8002248:	0fc9      	lsrs	r1, r1, #31
 800224a:	4691      	mov	r9, r2
 800224c:	0d64      	lsrs	r4, r4, #21
 800224e:	0fdb      	lsrs	r3, r3, #31
 8002250:	2001      	movs	r0, #1
 8002252:	42b5      	cmp	r5, r6
 8002254:	d00a      	beq.n	800226c <__eqdf2+0x44>
 8002256:	42b4      	cmp	r4, r6
 8002258:	d003      	beq.n	8002262 <__eqdf2+0x3a>
 800225a:	42a5      	cmp	r5, r4
 800225c:	d101      	bne.n	8002262 <__eqdf2+0x3a>
 800225e:	4557      	cmp	r7, sl
 8002260:	d00c      	beq.n	800227c <__eqdf2+0x54>
 8002262:	bc1c      	pop	{r2, r3, r4}
 8002264:	4690      	mov	r8, r2
 8002266:	4699      	mov	r9, r3
 8002268:	46a2      	mov	sl, r4
 800226a:	bdf0      	pop	{r4, r5, r6, r7, pc}
 800226c:	4666      	mov	r6, ip
 800226e:	433e      	orrs	r6, r7
 8002270:	d1f7      	bne.n	8002262 <__eqdf2+0x3a>
 8002272:	42ac      	cmp	r4, r5
 8002274:	d1f5      	bne.n	8002262 <__eqdf2+0x3a>
 8002276:	4654      	mov	r4, sl
 8002278:	4314      	orrs	r4, r2
 800227a:	d1f2      	bne.n	8002262 <__eqdf2+0x3a>
 800227c:	2001      	movs	r0, #1
 800227e:	45c8      	cmp	r8, r9
 8002280:	d1ef      	bne.n	8002262 <__eqdf2+0x3a>
 8002282:	4299      	cmp	r1, r3
 8002284:	d007      	beq.n	8002296 <__eqdf2+0x6e>
 8002286:	2d00      	cmp	r5, #0
 8002288:	d1eb      	bne.n	8002262 <__eqdf2+0x3a>
 800228a:	4663      	mov	r3, ip
 800228c:	431f      	orrs	r7, r3
 800228e:	0038      	movs	r0, r7
 8002290:	1e47      	subs	r7, r0, #1
 8002292:	41b8      	sbcs	r0, r7
 8002294:	e7e5      	b.n	8002262 <__eqdf2+0x3a>
 8002296:	2000      	movs	r0, #0
 8002298:	e7e3      	b.n	8002262 <__eqdf2+0x3a>
 800229a:	46c0      	nop			; (mov r8, r8)
 800229c:	000007ff 	.word	0x000007ff

080022a0 <__gedf2>:
 80022a0:	b5f0      	push	{r4, r5, r6, r7, lr}
 80022a2:	464f      	mov	r7, r9
 80022a4:	4646      	mov	r6, r8
 80022a6:	46d6      	mov	lr, sl
 80022a8:	004d      	lsls	r5, r1, #1
 80022aa:	b5c0      	push	{r6, r7, lr}
 80022ac:	030e      	lsls	r6, r1, #12
 80022ae:	0fc9      	lsrs	r1, r1, #31
 80022b0:	468a      	mov	sl, r1
 80022b2:	492c      	ldr	r1, [pc, #176]	; (8002364 <__gedf2+0xc4>)
 80022b4:	031f      	lsls	r7, r3, #12
 80022b6:	005c      	lsls	r4, r3, #1
 80022b8:	4680      	mov	r8, r0
 80022ba:	0b36      	lsrs	r6, r6, #12
 80022bc:	0d6d      	lsrs	r5, r5, #21
 80022be:	4691      	mov	r9, r2
 80022c0:	0b3f      	lsrs	r7, r7, #12
 80022c2:	0d64      	lsrs	r4, r4, #21
 80022c4:	0fdb      	lsrs	r3, r3, #31
 80022c6:	428d      	cmp	r5, r1
 80022c8:	d01e      	beq.n	8002308 <__gedf2+0x68>
 80022ca:	428c      	cmp	r4, r1
 80022cc:	d016      	beq.n	80022fc <__gedf2+0x5c>
 80022ce:	2d00      	cmp	r5, #0
 80022d0:	d11e      	bne.n	8002310 <__gedf2+0x70>
 80022d2:	4330      	orrs	r0, r6
 80022d4:	4684      	mov	ip, r0
 80022d6:	2c00      	cmp	r4, #0
 80022d8:	d101      	bne.n	80022de <__gedf2+0x3e>
 80022da:	433a      	orrs	r2, r7
 80022dc:	d023      	beq.n	8002326 <__gedf2+0x86>
 80022de:	4662      	mov	r2, ip
 80022e0:	2a00      	cmp	r2, #0
 80022e2:	d01a      	beq.n	800231a <__gedf2+0x7a>
 80022e4:	459a      	cmp	sl, r3
 80022e6:	d029      	beq.n	800233c <__gedf2+0x9c>
 80022e8:	4651      	mov	r1, sl
 80022ea:	2002      	movs	r0, #2
 80022ec:	3901      	subs	r1, #1
 80022ee:	4008      	ands	r0, r1
 80022f0:	3801      	subs	r0, #1
 80022f2:	bc1c      	pop	{r2, r3, r4}
 80022f4:	4690      	mov	r8, r2
 80022f6:	4699      	mov	r9, r3
 80022f8:	46a2      	mov	sl, r4
 80022fa:	bdf0      	pop	{r4, r5, r6, r7, pc}
 80022fc:	0039      	movs	r1, r7
 80022fe:	4311      	orrs	r1, r2
 8002300:	d0e5      	beq.n	80022ce <__gedf2+0x2e>
 8002302:	2002      	movs	r0, #2
 8002304:	4240      	negs	r0, r0
 8002306:	e7f4      	b.n	80022f2 <__gedf2+0x52>
 8002308:	4330      	orrs	r0, r6
 800230a:	d1fa      	bne.n	8002302 <__gedf2+0x62>
 800230c:	42ac      	cmp	r4, r5
 800230e:	d00f      	beq.n	8002330 <__gedf2+0x90>
 8002310:	2c00      	cmp	r4, #0
 8002312:	d10f      	bne.n	8002334 <__gedf2+0x94>
 8002314:	433a      	orrs	r2, r7
 8002316:	d0e7      	beq.n	80022e8 <__gedf2+0x48>
 8002318:	e00c      	b.n	8002334 <__gedf2+0x94>
 800231a:	2201      	movs	r2, #1
 800231c:	3b01      	subs	r3, #1
 800231e:	4393      	bics	r3, r2
 8002320:	0018      	movs	r0, r3
 8002322:	3001      	adds	r0, #1
 8002324:	e7e5      	b.n	80022f2 <__gedf2+0x52>
 8002326:	4663      	mov	r3, ip
 8002328:	2000      	movs	r0, #0
 800232a:	2b00      	cmp	r3, #0
 800232c:	d0e1      	beq.n	80022f2 <__gedf2+0x52>
 800232e:	e7db      	b.n	80022e8 <__gedf2+0x48>
 8002330:	433a      	orrs	r2, r7
 8002332:	d1e6      	bne.n	8002302 <__gedf2+0x62>
 8002334:	459a      	cmp	sl, r3
 8002336:	d1d7      	bne.n	80022e8 <__gedf2+0x48>
 8002338:	42a5      	cmp	r5, r4
 800233a:	dcd5      	bgt.n	80022e8 <__gedf2+0x48>
 800233c:	42a5      	cmp	r5, r4
 800233e:	db05      	blt.n	800234c <__gedf2+0xac>
 8002340:	42be      	cmp	r6, r7
 8002342:	d8d1      	bhi.n	80022e8 <__gedf2+0x48>
 8002344:	d008      	beq.n	8002358 <__gedf2+0xb8>
 8002346:	2000      	movs	r0, #0
 8002348:	42be      	cmp	r6, r7
 800234a:	d2d2      	bcs.n	80022f2 <__gedf2+0x52>
 800234c:	4650      	mov	r0, sl
 800234e:	2301      	movs	r3, #1
 8002350:	3801      	subs	r0, #1
 8002352:	4398      	bics	r0, r3
 8002354:	3001      	adds	r0, #1
 8002356:	e7cc      	b.n	80022f2 <__gedf2+0x52>
 8002358:	45c8      	cmp	r8, r9
 800235a:	d8c5      	bhi.n	80022e8 <__gedf2+0x48>
 800235c:	2000      	movs	r0, #0
 800235e:	45c8      	cmp	r8, r9
 8002360:	d3f4      	bcc.n	800234c <__gedf2+0xac>
 8002362:	e7c6      	b.n	80022f2 <__gedf2+0x52>
 8002364:	000007ff 	.word	0x000007ff

08002368 <__ledf2>:
 8002368:	b5f0      	push	{r4, r5, r6, r7, lr}
 800236a:	464f      	mov	r7, r9
 800236c:	4646      	mov	r6, r8
 800236e:	46d6      	mov	lr, sl
 8002370:	004d      	lsls	r5, r1, #1
 8002372:	b5c0      	push	{r6, r7, lr}
 8002374:	030e      	lsls	r6, r1, #12
 8002376:	0fc9      	lsrs	r1, r1, #31
 8002378:	468a      	mov	sl, r1
 800237a:	492e      	ldr	r1, [pc, #184]	; (8002434 <__ledf2+0xcc>)
 800237c:	031f      	lsls	r7, r3, #12
 800237e:	005c      	lsls	r4, r3, #1
 8002380:	4680      	mov	r8, r0
 8002382:	0b36      	lsrs	r6, r6, #12
 8002384:	0d6d      	lsrs	r5, r5, #21
 8002386:	4691      	mov	r9, r2
 8002388:	0b3f      	lsrs	r7, r7, #12
 800238a:	0d64      	lsrs	r4, r4, #21
 800238c:	0fdb      	lsrs	r3, r3, #31
 800238e:	428d      	cmp	r5, r1
 8002390:	d018      	beq.n	80023c4 <__ledf2+0x5c>
 8002392:	428c      	cmp	r4, r1
 8002394:	d011      	beq.n	80023ba <__ledf2+0x52>
 8002396:	2d00      	cmp	r5, #0
 8002398:	d118      	bne.n	80023cc <__ledf2+0x64>
 800239a:	4330      	orrs	r0, r6
 800239c:	4684      	mov	ip, r0
 800239e:	2c00      	cmp	r4, #0
 80023a0:	d11e      	bne.n	80023e0 <__ledf2+0x78>
 80023a2:	433a      	orrs	r2, r7
 80023a4:	d11c      	bne.n	80023e0 <__ledf2+0x78>
 80023a6:	4663      	mov	r3, ip
 80023a8:	2000      	movs	r0, #0
 80023aa:	2b00      	cmp	r3, #0
 80023ac:	d030      	beq.n	8002410 <__ledf2+0xa8>
 80023ae:	4651      	mov	r1, sl
 80023b0:	2002      	movs	r0, #2
 80023b2:	3901      	subs	r1, #1
 80023b4:	4008      	ands	r0, r1
 80023b6:	3801      	subs	r0, #1
 80023b8:	e02a      	b.n	8002410 <__ledf2+0xa8>
 80023ba:	0039      	movs	r1, r7
 80023bc:	4311      	orrs	r1, r2
 80023be:	d0ea      	beq.n	8002396 <__ledf2+0x2e>
 80023c0:	2002      	movs	r0, #2
 80023c2:	e025      	b.n	8002410 <__ledf2+0xa8>
 80023c4:	4330      	orrs	r0, r6
 80023c6:	d1fb      	bne.n	80023c0 <__ledf2+0x58>
 80023c8:	42ac      	cmp	r4, r5
 80023ca:	d026      	beq.n	800241a <__ledf2+0xb2>
 80023cc:	2c00      	cmp	r4, #0
 80023ce:	d126      	bne.n	800241e <__ledf2+0xb6>
 80023d0:	433a      	orrs	r2, r7
 80023d2:	d124      	bne.n	800241e <__ledf2+0xb6>
 80023d4:	4651      	mov	r1, sl
 80023d6:	2002      	movs	r0, #2
 80023d8:	3901      	subs	r1, #1
 80023da:	4008      	ands	r0, r1
 80023dc:	3801      	subs	r0, #1
 80023de:	e017      	b.n	8002410 <__ledf2+0xa8>
 80023e0:	4662      	mov	r2, ip
 80023e2:	2a00      	cmp	r2, #0
 80023e4:	d00f      	beq.n	8002406 <__ledf2+0x9e>
 80023e6:	459a      	cmp	sl, r3
 80023e8:	d1e1      	bne.n	80023ae <__ledf2+0x46>
 80023ea:	42a5      	cmp	r5, r4
 80023ec:	db05      	blt.n	80023fa <__ledf2+0x92>
 80023ee:	42be      	cmp	r6, r7
 80023f0:	d8dd      	bhi.n	80023ae <__ledf2+0x46>
 80023f2:	d019      	beq.n	8002428 <__ledf2+0xc0>
 80023f4:	2000      	movs	r0, #0
 80023f6:	42be      	cmp	r6, r7
 80023f8:	d20a      	bcs.n	8002410 <__ledf2+0xa8>
 80023fa:	4650      	mov	r0, sl
 80023fc:	2301      	movs	r3, #1
 80023fe:	3801      	subs	r0, #1
 8002400:	4398      	bics	r0, r3
 8002402:	3001      	adds	r0, #1
 8002404:	e004      	b.n	8002410 <__ledf2+0xa8>
 8002406:	2201      	movs	r2, #1
 8002408:	3b01      	subs	r3, #1
 800240a:	4393      	bics	r3, r2
 800240c:	0018      	movs	r0, r3
 800240e:	3001      	adds	r0, #1
 8002410:	bc1c      	pop	{r2, r3, r4}
 8002412:	4690      	mov	r8, r2
 8002414:	4699      	mov	r9, r3
 8002416:	46a2      	mov	sl, r4
 8002418:	bdf0      	pop	{r4, r5, r6, r7, pc}
 800241a:	433a      	orrs	r2, r7
 800241c:	d1d0      	bne.n	80023c0 <__ledf2+0x58>
 800241e:	459a      	cmp	sl, r3
 8002420:	d1c5      	bne.n	80023ae <__ledf2+0x46>
 8002422:	42a5      	cmp	r5, r4
 8002424:	dcc3      	bgt.n	80023ae <__ledf2+0x46>
 8002426:	e7e0      	b.n	80023ea <__ledf2+0x82>
 8002428:	45c8      	cmp	r8, r9
 800242a:	d8c0      	bhi.n	80023ae <__ledf2+0x46>
 800242c:	2000      	movs	r0, #0
 800242e:	45c8      	cmp	r8, r9
 8002430:	d3e3      	bcc.n	80023fa <__ledf2+0x92>
 8002432:	e7ed      	b.n	8002410 <__ledf2+0xa8>
 8002434:	000007ff 	.word	0x000007ff

08002438 <__aeabi_dmul>:
 8002438:	b5f0      	push	{r4, r5, r6, r7, lr}
 800243a:	4657      	mov	r7, sl
 800243c:	46de      	mov	lr, fp
 800243e:	464e      	mov	r6, r9
 8002440:	4645      	mov	r5, r8
 8002442:	b5e0      	push	{r5, r6, r7, lr}
 8002444:	4683      	mov	fp, r0
 8002446:	0006      	movs	r6, r0
 8002448:	030f      	lsls	r7, r1, #12
 800244a:	0048      	lsls	r0, r1, #1
 800244c:	b087      	sub	sp, #28
 800244e:	4692      	mov	sl, r2
 8002450:	001d      	movs	r5, r3
 8002452:	0b3f      	lsrs	r7, r7, #12
 8002454:	0d40      	lsrs	r0, r0, #21
 8002456:	0fcc      	lsrs	r4, r1, #31
 8002458:	2800      	cmp	r0, #0
 800245a:	d100      	bne.n	800245e <__aeabi_dmul+0x26>
 800245c:	e06f      	b.n	800253e <__aeabi_dmul+0x106>
 800245e:	4bde      	ldr	r3, [pc, #888]	; (80027d8 <__aeabi_dmul+0x3a0>)
 8002460:	4298      	cmp	r0, r3
 8002462:	d038      	beq.n	80024d6 <__aeabi_dmul+0x9e>
 8002464:	2380      	movs	r3, #128	; 0x80
 8002466:	00ff      	lsls	r7, r7, #3
 8002468:	041b      	lsls	r3, r3, #16
 800246a:	431f      	orrs	r7, r3
 800246c:	0f73      	lsrs	r3, r6, #29
 800246e:	433b      	orrs	r3, r7
 8002470:	9301      	str	r3, [sp, #4]
 8002472:	4bda      	ldr	r3, [pc, #872]	; (80027dc <__aeabi_dmul+0x3a4>)
 8002474:	2700      	movs	r7, #0
 8002476:	4699      	mov	r9, r3
 8002478:	2300      	movs	r3, #0
 800247a:	469b      	mov	fp, r3
 800247c:	00f6      	lsls	r6, r6, #3
 800247e:	4481      	add	r9, r0
 8002480:	032b      	lsls	r3, r5, #12
 8002482:	0069      	lsls	r1, r5, #1
 8002484:	0b1b      	lsrs	r3, r3, #12
 8002486:	4652      	mov	r2, sl
 8002488:	4698      	mov	r8, r3
 800248a:	0d49      	lsrs	r1, r1, #21
 800248c:	0fed      	lsrs	r5, r5, #31
 800248e:	2900      	cmp	r1, #0
 8002490:	d100      	bne.n	8002494 <__aeabi_dmul+0x5c>
 8002492:	e085      	b.n	80025a0 <__aeabi_dmul+0x168>
 8002494:	4bd0      	ldr	r3, [pc, #832]	; (80027d8 <__aeabi_dmul+0x3a0>)
 8002496:	4299      	cmp	r1, r3
 8002498:	d100      	bne.n	800249c <__aeabi_dmul+0x64>
 800249a:	e073      	b.n	8002584 <__aeabi_dmul+0x14c>
 800249c:	4643      	mov	r3, r8
 800249e:	00da      	lsls	r2, r3, #3
 80024a0:	2380      	movs	r3, #128	; 0x80
 80024a2:	041b      	lsls	r3, r3, #16
 80024a4:	4313      	orrs	r3, r2
 80024a6:	4652      	mov	r2, sl
 80024a8:	48cc      	ldr	r0, [pc, #816]	; (80027dc <__aeabi_dmul+0x3a4>)
 80024aa:	0f52      	lsrs	r2, r2, #29
 80024ac:	4684      	mov	ip, r0
 80024ae:	4313      	orrs	r3, r2
 80024b0:	4652      	mov	r2, sl
 80024b2:	2000      	movs	r0, #0
 80024b4:	4461      	add	r1, ip
 80024b6:	00d2      	lsls	r2, r2, #3
 80024b8:	4489      	add	r9, r1
 80024ba:	0021      	movs	r1, r4
 80024bc:	4069      	eors	r1, r5
 80024be:	9100      	str	r1, [sp, #0]
 80024c0:	468c      	mov	ip, r1
 80024c2:	2101      	movs	r1, #1
 80024c4:	4449      	add	r1, r9
 80024c6:	468a      	mov	sl, r1
 80024c8:	2f0f      	cmp	r7, #15
 80024ca:	d900      	bls.n	80024ce <__aeabi_dmul+0x96>
 80024cc:	e090      	b.n	80025f0 <__aeabi_dmul+0x1b8>
 80024ce:	49c4      	ldr	r1, [pc, #784]	; (80027e0 <__aeabi_dmul+0x3a8>)
 80024d0:	00bf      	lsls	r7, r7, #2
 80024d2:	59cf      	ldr	r7, [r1, r7]
 80024d4:	46bf      	mov	pc, r7
 80024d6:	465b      	mov	r3, fp
 80024d8:	433b      	orrs	r3, r7
 80024da:	9301      	str	r3, [sp, #4]
 80024dc:	d000      	beq.n	80024e0 <__aeabi_dmul+0xa8>
 80024de:	e16a      	b.n	80027b6 <__aeabi_dmul+0x37e>
 80024e0:	2302      	movs	r3, #2
 80024e2:	2708      	movs	r7, #8
 80024e4:	2600      	movs	r6, #0
 80024e6:	4681      	mov	r9, r0
 80024e8:	469b      	mov	fp, r3
 80024ea:	e7c9      	b.n	8002480 <__aeabi_dmul+0x48>
 80024ec:	0032      	movs	r2, r6
 80024ee:	4658      	mov	r0, fp
 80024f0:	9b01      	ldr	r3, [sp, #4]
 80024f2:	4661      	mov	r1, ip
 80024f4:	9100      	str	r1, [sp, #0]
 80024f6:	2802      	cmp	r0, #2
 80024f8:	d100      	bne.n	80024fc <__aeabi_dmul+0xc4>
 80024fa:	e075      	b.n	80025e8 <__aeabi_dmul+0x1b0>
 80024fc:	2803      	cmp	r0, #3
 80024fe:	d100      	bne.n	8002502 <__aeabi_dmul+0xca>
 8002500:	e1fe      	b.n	8002900 <__aeabi_dmul+0x4c8>
 8002502:	2801      	cmp	r0, #1
 8002504:	d000      	beq.n	8002508 <__aeabi_dmul+0xd0>
 8002506:	e12c      	b.n	8002762 <__aeabi_dmul+0x32a>
 8002508:	2300      	movs	r3, #0
 800250a:	2700      	movs	r7, #0
 800250c:	2600      	movs	r6, #0
 800250e:	2500      	movs	r5, #0
 8002510:	033f      	lsls	r7, r7, #12
 8002512:	0d2a      	lsrs	r2, r5, #20
 8002514:	0b3f      	lsrs	r7, r7, #12
 8002516:	48b3      	ldr	r0, [pc, #716]	; (80027e4 <__aeabi_dmul+0x3ac>)
 8002518:	0512      	lsls	r2, r2, #20
 800251a:	433a      	orrs	r2, r7
 800251c:	4002      	ands	r2, r0
 800251e:	051b      	lsls	r3, r3, #20
 8002520:	4313      	orrs	r3, r2
 8002522:	9a00      	ldr	r2, [sp, #0]
 8002524:	005b      	lsls	r3, r3, #1
 8002526:	07d1      	lsls	r1, r2, #31
 8002528:	085b      	lsrs	r3, r3, #1
 800252a:	430b      	orrs	r3, r1
 800252c:	0030      	movs	r0, r6
 800252e:	0019      	movs	r1, r3
 8002530:	b007      	add	sp, #28
 8002532:	bc3c      	pop	{r2, r3, r4, r5}
 8002534:	4690      	mov	r8, r2
 8002536:	4699      	mov	r9, r3
 8002538:	46a2      	mov	sl, r4
 800253a:	46ab      	mov	fp, r5
 800253c:	bdf0      	pop	{r4, r5, r6, r7, pc}
 800253e:	465b      	mov	r3, fp
 8002540:	433b      	orrs	r3, r7
 8002542:	9301      	str	r3, [sp, #4]
 8002544:	d100      	bne.n	8002548 <__aeabi_dmul+0x110>
 8002546:	e12f      	b.n	80027a8 <__aeabi_dmul+0x370>
 8002548:	2f00      	cmp	r7, #0
 800254a:	d100      	bne.n	800254e <__aeabi_dmul+0x116>
 800254c:	e1a5      	b.n	800289a <__aeabi_dmul+0x462>
 800254e:	0038      	movs	r0, r7
 8002550:	f000 fec0 	bl	80032d4 <__clzsi2>
 8002554:	0003      	movs	r3, r0
 8002556:	3b0b      	subs	r3, #11
 8002558:	2b1c      	cmp	r3, #28
 800255a:	dd00      	ble.n	800255e <__aeabi_dmul+0x126>
 800255c:	e196      	b.n	800288c <__aeabi_dmul+0x454>
 800255e:	221d      	movs	r2, #29
 8002560:	1ad3      	subs	r3, r2, r3
 8002562:	465a      	mov	r2, fp
 8002564:	0001      	movs	r1, r0
 8002566:	40da      	lsrs	r2, r3
 8002568:	465e      	mov	r6, fp
 800256a:	3908      	subs	r1, #8
 800256c:	408f      	lsls	r7, r1
 800256e:	0013      	movs	r3, r2
 8002570:	408e      	lsls	r6, r1
 8002572:	433b      	orrs	r3, r7
 8002574:	9301      	str	r3, [sp, #4]
 8002576:	4b9c      	ldr	r3, [pc, #624]	; (80027e8 <__aeabi_dmul+0x3b0>)
 8002578:	2700      	movs	r7, #0
 800257a:	1a1b      	subs	r3, r3, r0
 800257c:	4699      	mov	r9, r3
 800257e:	2300      	movs	r3, #0
 8002580:	469b      	mov	fp, r3
 8002582:	e77d      	b.n	8002480 <__aeabi_dmul+0x48>
 8002584:	4641      	mov	r1, r8
 8002586:	4653      	mov	r3, sl
 8002588:	430b      	orrs	r3, r1
 800258a:	4993      	ldr	r1, [pc, #588]	; (80027d8 <__aeabi_dmul+0x3a0>)
 800258c:	468c      	mov	ip, r1
 800258e:	44e1      	add	r9, ip
 8002590:	2b00      	cmp	r3, #0
 8002592:	d000      	beq.n	8002596 <__aeabi_dmul+0x15e>
 8002594:	e11a      	b.n	80027cc <__aeabi_dmul+0x394>
 8002596:	2202      	movs	r2, #2
 8002598:	2002      	movs	r0, #2
 800259a:	4317      	orrs	r7, r2
 800259c:	2200      	movs	r2, #0
 800259e:	e78c      	b.n	80024ba <__aeabi_dmul+0x82>
 80025a0:	4313      	orrs	r3, r2
 80025a2:	d100      	bne.n	80025a6 <__aeabi_dmul+0x16e>
 80025a4:	e10d      	b.n	80027c2 <__aeabi_dmul+0x38a>
 80025a6:	4643      	mov	r3, r8
 80025a8:	2b00      	cmp	r3, #0
 80025aa:	d100      	bne.n	80025ae <__aeabi_dmul+0x176>
 80025ac:	e181      	b.n	80028b2 <__aeabi_dmul+0x47a>
 80025ae:	4640      	mov	r0, r8
 80025b0:	f000 fe90 	bl	80032d4 <__clzsi2>
 80025b4:	0002      	movs	r2, r0
 80025b6:	3a0b      	subs	r2, #11
 80025b8:	2a1c      	cmp	r2, #28
 80025ba:	dd00      	ble.n	80025be <__aeabi_dmul+0x186>
 80025bc:	e172      	b.n	80028a4 <__aeabi_dmul+0x46c>
 80025be:	0001      	movs	r1, r0
 80025c0:	4643      	mov	r3, r8
 80025c2:	3908      	subs	r1, #8
 80025c4:	408b      	lsls	r3, r1
 80025c6:	4698      	mov	r8, r3
 80025c8:	231d      	movs	r3, #29
 80025ca:	1a9a      	subs	r2, r3, r2
 80025cc:	4653      	mov	r3, sl
 80025ce:	40d3      	lsrs	r3, r2
 80025d0:	001a      	movs	r2, r3
 80025d2:	4643      	mov	r3, r8
 80025d4:	4313      	orrs	r3, r2
 80025d6:	4652      	mov	r2, sl
 80025d8:	408a      	lsls	r2, r1
 80025da:	4649      	mov	r1, r9
 80025dc:	1a08      	subs	r0, r1, r0
 80025de:	4982      	ldr	r1, [pc, #520]	; (80027e8 <__aeabi_dmul+0x3b0>)
 80025e0:	4689      	mov	r9, r1
 80025e2:	4481      	add	r9, r0
 80025e4:	2000      	movs	r0, #0
 80025e6:	e768      	b.n	80024ba <__aeabi_dmul+0x82>
 80025e8:	4b7b      	ldr	r3, [pc, #492]	; (80027d8 <__aeabi_dmul+0x3a0>)
 80025ea:	2700      	movs	r7, #0
 80025ec:	2600      	movs	r6, #0
 80025ee:	e78e      	b.n	800250e <__aeabi_dmul+0xd6>
 80025f0:	0c14      	lsrs	r4, r2, #16
 80025f2:	0412      	lsls	r2, r2, #16
 80025f4:	0c12      	lsrs	r2, r2, #16
 80025f6:	0011      	movs	r1, r2
 80025f8:	0c37      	lsrs	r7, r6, #16
 80025fa:	0436      	lsls	r6, r6, #16
 80025fc:	0c35      	lsrs	r5, r6, #16
 80025fe:	4379      	muls	r1, r7
 8002600:	0028      	movs	r0, r5
 8002602:	468c      	mov	ip, r1
 8002604:	002e      	movs	r6, r5
 8002606:	4360      	muls	r0, r4
 8002608:	4460      	add	r0, ip
 800260a:	4683      	mov	fp, r0
 800260c:	4356      	muls	r6, r2
 800260e:	0021      	movs	r1, r4
 8002610:	0c30      	lsrs	r0, r6, #16
 8002612:	4680      	mov	r8, r0
 8002614:	4658      	mov	r0, fp
 8002616:	4379      	muls	r1, r7
 8002618:	4440      	add	r0, r8
 800261a:	9102      	str	r1, [sp, #8]
 800261c:	4584      	cmp	ip, r0
 800261e:	d906      	bls.n	800262e <__aeabi_dmul+0x1f6>
 8002620:	4688      	mov	r8, r1
 8002622:	2180      	movs	r1, #128	; 0x80
 8002624:	0249      	lsls	r1, r1, #9
 8002626:	468c      	mov	ip, r1
 8002628:	44e0      	add	r8, ip
 800262a:	4641      	mov	r1, r8
 800262c:	9102      	str	r1, [sp, #8]
 800262e:	0436      	lsls	r6, r6, #16
 8002630:	0c01      	lsrs	r1, r0, #16
 8002632:	0c36      	lsrs	r6, r6, #16
 8002634:	0400      	lsls	r0, r0, #16
 8002636:	468b      	mov	fp, r1
 8002638:	1981      	adds	r1, r0, r6
 800263a:	0c1e      	lsrs	r6, r3, #16
 800263c:	041b      	lsls	r3, r3, #16
 800263e:	0c1b      	lsrs	r3, r3, #16
 8002640:	9103      	str	r1, [sp, #12]
 8002642:	0019      	movs	r1, r3
 8002644:	4379      	muls	r1, r7
 8002646:	468c      	mov	ip, r1
 8002648:	0028      	movs	r0, r5
 800264a:	4375      	muls	r5, r6
 800264c:	4465      	add	r5, ip
 800264e:	46a8      	mov	r8, r5
 8002650:	4358      	muls	r0, r3
 8002652:	0c05      	lsrs	r5, r0, #16
 8002654:	4445      	add	r5, r8
 8002656:	4377      	muls	r7, r6
 8002658:	42a9      	cmp	r1, r5
 800265a:	d903      	bls.n	8002664 <__aeabi_dmul+0x22c>
 800265c:	2180      	movs	r1, #128	; 0x80
 800265e:	0249      	lsls	r1, r1, #9
 8002660:	468c      	mov	ip, r1
 8002662:	4467      	add	r7, ip
 8002664:	0c29      	lsrs	r1, r5, #16
 8002666:	468c      	mov	ip, r1
 8002668:	0039      	movs	r1, r7
 800266a:	0400      	lsls	r0, r0, #16
 800266c:	0c00      	lsrs	r0, r0, #16
 800266e:	042d      	lsls	r5, r5, #16
 8002670:	182d      	adds	r5, r5, r0
 8002672:	4461      	add	r1, ip
 8002674:	44ab      	add	fp, r5
 8002676:	9105      	str	r1, [sp, #20]
 8002678:	4659      	mov	r1, fp
 800267a:	9104      	str	r1, [sp, #16]
 800267c:	9901      	ldr	r1, [sp, #4]
 800267e:	040f      	lsls	r7, r1, #16
 8002680:	0c3f      	lsrs	r7, r7, #16
 8002682:	0c08      	lsrs	r0, r1, #16
 8002684:	0039      	movs	r1, r7
 8002686:	4351      	muls	r1, r2
 8002688:	4342      	muls	r2, r0
 800268a:	4690      	mov	r8, r2
 800268c:	0002      	movs	r2, r0
 800268e:	468c      	mov	ip, r1
 8002690:	0c09      	lsrs	r1, r1, #16
 8002692:	468b      	mov	fp, r1
 8002694:	4362      	muls	r2, r4
 8002696:	437c      	muls	r4, r7
 8002698:	4444      	add	r4, r8
 800269a:	445c      	add	r4, fp
 800269c:	45a0      	cmp	r8, r4
 800269e:	d903      	bls.n	80026a8 <__aeabi_dmul+0x270>
 80026a0:	2180      	movs	r1, #128	; 0x80
 80026a2:	0249      	lsls	r1, r1, #9
 80026a4:	4688      	mov	r8, r1
 80026a6:	4442      	add	r2, r8
 80026a8:	0c21      	lsrs	r1, r4, #16
 80026aa:	4688      	mov	r8, r1
 80026ac:	4661      	mov	r1, ip
 80026ae:	0409      	lsls	r1, r1, #16
 80026b0:	0c09      	lsrs	r1, r1, #16
 80026b2:	468c      	mov	ip, r1
 80026b4:	0039      	movs	r1, r7
 80026b6:	4359      	muls	r1, r3
 80026b8:	4343      	muls	r3, r0
 80026ba:	4370      	muls	r0, r6
 80026bc:	437e      	muls	r6, r7
 80026be:	0c0f      	lsrs	r7, r1, #16
 80026c0:	18f6      	adds	r6, r6, r3
 80026c2:	0424      	lsls	r4, r4, #16
 80026c4:	19be      	adds	r6, r7, r6
 80026c6:	4464      	add	r4, ip
 80026c8:	4442      	add	r2, r8
 80026ca:	468c      	mov	ip, r1
 80026cc:	42b3      	cmp	r3, r6
 80026ce:	d903      	bls.n	80026d8 <__aeabi_dmul+0x2a0>
 80026d0:	2380      	movs	r3, #128	; 0x80
 80026d2:	025b      	lsls	r3, r3, #9
 80026d4:	4698      	mov	r8, r3
 80026d6:	4440      	add	r0, r8
 80026d8:	9b02      	ldr	r3, [sp, #8]
 80026da:	4661      	mov	r1, ip
 80026dc:	4698      	mov	r8, r3
 80026de:	9b04      	ldr	r3, [sp, #16]
 80026e0:	0437      	lsls	r7, r6, #16
 80026e2:	4443      	add	r3, r8
 80026e4:	469b      	mov	fp, r3
 80026e6:	45ab      	cmp	fp, r5
 80026e8:	41ad      	sbcs	r5, r5
 80026ea:	426b      	negs	r3, r5
 80026ec:	040d      	lsls	r5, r1, #16
 80026ee:	9905      	ldr	r1, [sp, #20]
 80026f0:	0c2d      	lsrs	r5, r5, #16
 80026f2:	468c      	mov	ip, r1
 80026f4:	197f      	adds	r7, r7, r5
 80026f6:	4467      	add	r7, ip
 80026f8:	18fd      	adds	r5, r7, r3
 80026fa:	46a8      	mov	r8, r5
 80026fc:	465d      	mov	r5, fp
 80026fe:	192d      	adds	r5, r5, r4
 8002700:	42a5      	cmp	r5, r4
 8002702:	41a4      	sbcs	r4, r4
 8002704:	4693      	mov	fp, r2
 8002706:	4264      	negs	r4, r4
 8002708:	46a4      	mov	ip, r4
 800270a:	44c3      	add	fp, r8
 800270c:	44dc      	add	ip, fp
 800270e:	428f      	cmp	r7, r1
 8002710:	41bf      	sbcs	r7, r7
 8002712:	4598      	cmp	r8, r3
 8002714:	419b      	sbcs	r3, r3
 8002716:	4593      	cmp	fp, r2
 8002718:	4192      	sbcs	r2, r2
 800271a:	45a4      	cmp	ip, r4
 800271c:	41a4      	sbcs	r4, r4
 800271e:	425b      	negs	r3, r3
 8002720:	427f      	negs	r7, r7
 8002722:	431f      	orrs	r7, r3
 8002724:	0c36      	lsrs	r6, r6, #16
 8002726:	4252      	negs	r2, r2
 8002728:	4264      	negs	r4, r4
 800272a:	19bf      	adds	r7, r7, r6
 800272c:	4322      	orrs	r2, r4
 800272e:	18bf      	adds	r7, r7, r2
 8002730:	4662      	mov	r2, ip
 8002732:	1838      	adds	r0, r7, r0
 8002734:	0243      	lsls	r3, r0, #9
 8002736:	0dd2      	lsrs	r2, r2, #23
 8002738:	9903      	ldr	r1, [sp, #12]
 800273a:	4313      	orrs	r3, r2
 800273c:	026a      	lsls	r2, r5, #9
 800273e:	430a      	orrs	r2, r1
 8002740:	1e50      	subs	r0, r2, #1
 8002742:	4182      	sbcs	r2, r0
 8002744:	4661      	mov	r1, ip
 8002746:	0ded      	lsrs	r5, r5, #23
 8002748:	432a      	orrs	r2, r5
 800274a:	024e      	lsls	r6, r1, #9
 800274c:	4332      	orrs	r2, r6
 800274e:	01d9      	lsls	r1, r3, #7
 8002750:	d400      	bmi.n	8002754 <__aeabi_dmul+0x31c>
 8002752:	e0b3      	b.n	80028bc <__aeabi_dmul+0x484>
 8002754:	2601      	movs	r6, #1
 8002756:	0850      	lsrs	r0, r2, #1
 8002758:	4032      	ands	r2, r6
 800275a:	4302      	orrs	r2, r0
 800275c:	07de      	lsls	r6, r3, #31
 800275e:	4332      	orrs	r2, r6
 8002760:	085b      	lsrs	r3, r3, #1
 8002762:	4c22      	ldr	r4, [pc, #136]	; (80027ec <__aeabi_dmul+0x3b4>)
 8002764:	4454      	add	r4, sl
 8002766:	2c00      	cmp	r4, #0
 8002768:	dd62      	ble.n	8002830 <__aeabi_dmul+0x3f8>
 800276a:	0751      	lsls	r1, r2, #29
 800276c:	d009      	beq.n	8002782 <__aeabi_dmul+0x34a>
 800276e:	200f      	movs	r0, #15
 8002770:	4010      	ands	r0, r2
 8002772:	2804      	cmp	r0, #4
 8002774:	d005      	beq.n	8002782 <__aeabi_dmul+0x34a>
 8002776:	1d10      	adds	r0, r2, #4
 8002778:	4290      	cmp	r0, r2
 800277a:	4192      	sbcs	r2, r2
 800277c:	4252      	negs	r2, r2
 800277e:	189b      	adds	r3, r3, r2
 8002780:	0002      	movs	r2, r0
 8002782:	01d9      	lsls	r1, r3, #7
 8002784:	d504      	bpl.n	8002790 <__aeabi_dmul+0x358>
 8002786:	2480      	movs	r4, #128	; 0x80
 8002788:	4819      	ldr	r0, [pc, #100]	; (80027f0 <__aeabi_dmul+0x3b8>)
 800278a:	00e4      	lsls	r4, r4, #3
 800278c:	4003      	ands	r3, r0
 800278e:	4454      	add	r4, sl
 8002790:	4818      	ldr	r0, [pc, #96]	; (80027f4 <__aeabi_dmul+0x3bc>)
 8002792:	4284      	cmp	r4, r0
 8002794:	dd00      	ble.n	8002798 <__aeabi_dmul+0x360>
 8002796:	e727      	b.n	80025e8 <__aeabi_dmul+0x1b0>
 8002798:	075e      	lsls	r6, r3, #29
 800279a:	025b      	lsls	r3, r3, #9
 800279c:	08d2      	lsrs	r2, r2, #3
 800279e:	0b1f      	lsrs	r7, r3, #12
 80027a0:	0563      	lsls	r3, r4, #21
 80027a2:	4316      	orrs	r6, r2
 80027a4:	0d5b      	lsrs	r3, r3, #21
 80027a6:	e6b2      	b.n	800250e <__aeabi_dmul+0xd6>
 80027a8:	2300      	movs	r3, #0
 80027aa:	4699      	mov	r9, r3
 80027ac:	3301      	adds	r3, #1
 80027ae:	2704      	movs	r7, #4
 80027b0:	2600      	movs	r6, #0
 80027b2:	469b      	mov	fp, r3
 80027b4:	e664      	b.n	8002480 <__aeabi_dmul+0x48>
 80027b6:	2303      	movs	r3, #3
 80027b8:	9701      	str	r7, [sp, #4]
 80027ba:	4681      	mov	r9, r0
 80027bc:	270c      	movs	r7, #12
 80027be:	469b      	mov	fp, r3
 80027c0:	e65e      	b.n	8002480 <__aeabi_dmul+0x48>
 80027c2:	2201      	movs	r2, #1
 80027c4:	2001      	movs	r0, #1
 80027c6:	4317      	orrs	r7, r2
 80027c8:	2200      	movs	r2, #0
 80027ca:	e676      	b.n	80024ba <__aeabi_dmul+0x82>
 80027cc:	2303      	movs	r3, #3
 80027ce:	2003      	movs	r0, #3
 80027d0:	431f      	orrs	r7, r3
 80027d2:	4643      	mov	r3, r8
 80027d4:	e671      	b.n	80024ba <__aeabi_dmul+0x82>
 80027d6:	46c0      	nop			; (mov r8, r8)
 80027d8:	000007ff 	.word	0x000007ff
 80027dc:	fffffc01 	.word	0xfffffc01
 80027e0:	0801a904 	.word	0x0801a904
 80027e4:	800fffff 	.word	0x800fffff
 80027e8:	fffffc0d 	.word	0xfffffc0d
 80027ec:	000003ff 	.word	0x000003ff
 80027f0:	feffffff 	.word	0xfeffffff
 80027f4:	000007fe 	.word	0x000007fe
 80027f8:	2300      	movs	r3, #0
 80027fa:	2780      	movs	r7, #128	; 0x80
 80027fc:	9300      	str	r3, [sp, #0]
 80027fe:	033f      	lsls	r7, r7, #12
 8002800:	2600      	movs	r6, #0
 8002802:	4b43      	ldr	r3, [pc, #268]	; (8002910 <__aeabi_dmul+0x4d8>)
 8002804:	e683      	b.n	800250e <__aeabi_dmul+0xd6>
 8002806:	9b01      	ldr	r3, [sp, #4]
 8002808:	0032      	movs	r2, r6
 800280a:	46a4      	mov	ip, r4
 800280c:	4658      	mov	r0, fp
 800280e:	e670      	b.n	80024f2 <__aeabi_dmul+0xba>
 8002810:	46ac      	mov	ip, r5
 8002812:	e66e      	b.n	80024f2 <__aeabi_dmul+0xba>
 8002814:	2780      	movs	r7, #128	; 0x80
 8002816:	9901      	ldr	r1, [sp, #4]
 8002818:	033f      	lsls	r7, r7, #12
 800281a:	4239      	tst	r1, r7
 800281c:	d02d      	beq.n	800287a <__aeabi_dmul+0x442>
 800281e:	423b      	tst	r3, r7
 8002820:	d12b      	bne.n	800287a <__aeabi_dmul+0x442>
 8002822:	431f      	orrs	r7, r3
 8002824:	033f      	lsls	r7, r7, #12
 8002826:	0b3f      	lsrs	r7, r7, #12
 8002828:	9500      	str	r5, [sp, #0]
 800282a:	0016      	movs	r6, r2
 800282c:	4b38      	ldr	r3, [pc, #224]	; (8002910 <__aeabi_dmul+0x4d8>)
 800282e:	e66e      	b.n	800250e <__aeabi_dmul+0xd6>
 8002830:	2501      	movs	r5, #1
 8002832:	1b2d      	subs	r5, r5, r4
 8002834:	2d38      	cmp	r5, #56	; 0x38
 8002836:	dd00      	ble.n	800283a <__aeabi_dmul+0x402>
 8002838:	e666      	b.n	8002508 <__aeabi_dmul+0xd0>
 800283a:	2d1f      	cmp	r5, #31
 800283c:	dc40      	bgt.n	80028c0 <__aeabi_dmul+0x488>
 800283e:	4835      	ldr	r0, [pc, #212]	; (8002914 <__aeabi_dmul+0x4dc>)
 8002840:	001c      	movs	r4, r3
 8002842:	4450      	add	r0, sl
 8002844:	0016      	movs	r6, r2
 8002846:	4082      	lsls	r2, r0
 8002848:	4084      	lsls	r4, r0
 800284a:	40ee      	lsrs	r6, r5
 800284c:	1e50      	subs	r0, r2, #1
 800284e:	4182      	sbcs	r2, r0
 8002850:	4334      	orrs	r4, r6
 8002852:	4314      	orrs	r4, r2
 8002854:	40eb      	lsrs	r3, r5
 8002856:	0762      	lsls	r2, r4, #29
 8002858:	d009      	beq.n	800286e <__aeabi_dmul+0x436>
 800285a:	220f      	movs	r2, #15
 800285c:	4022      	ands	r2, r4
 800285e:	2a04      	cmp	r2, #4
 8002860:	d005      	beq.n	800286e <__aeabi_dmul+0x436>
 8002862:	0022      	movs	r2, r4
 8002864:	1d14      	adds	r4, r2, #4
 8002866:	4294      	cmp	r4, r2
 8002868:	4180      	sbcs	r0, r0
 800286a:	4240      	negs	r0, r0
 800286c:	181b      	adds	r3, r3, r0
 800286e:	021a      	lsls	r2, r3, #8
 8002870:	d53e      	bpl.n	80028f0 <__aeabi_dmul+0x4b8>
 8002872:	2301      	movs	r3, #1
 8002874:	2700      	movs	r7, #0
 8002876:	2600      	movs	r6, #0
 8002878:	e649      	b.n	800250e <__aeabi_dmul+0xd6>
 800287a:	2780      	movs	r7, #128	; 0x80
 800287c:	9b01      	ldr	r3, [sp, #4]
 800287e:	033f      	lsls	r7, r7, #12
 8002880:	431f      	orrs	r7, r3
 8002882:	033f      	lsls	r7, r7, #12
 8002884:	0b3f      	lsrs	r7, r7, #12
 8002886:	9400      	str	r4, [sp, #0]
 8002888:	4b21      	ldr	r3, [pc, #132]	; (8002910 <__aeabi_dmul+0x4d8>)
